{
  "contractName": "APMRegistry",
  "abi": [
    {
      "constant": true,
      "inputs": [],
      "name": "hasInitialized",
      "outputs": [
        {
          "name": "",
          "type": "bool"
        }
      ],
      "payable": false,
      "stateMutability": "view",
      "type": "function"
    },
    {
      "constant": true,
      "inputs": [
        {
          "name": "_script",
          "type": "bytes"
        }
      ],
      "name": "getEVMScriptExecutor",
      "outputs": [
        {
          "name": "",
          "type": "address"
        }
      ],
      "payable": false,
      "stateMutability": "view",
      "type": "function"
    },
    {
      "constant": true,
      "inputs": [],
      "name": "registrar",
      "outputs": [
        {
          "name": "",
          "type": "address"
        }
      ],
      "payable": false,
      "stateMutability": "view",
      "type": "function"
    },
    {
      "constant": true,
      "inputs": [],
      "name": "getRecoveryVault",
      "outputs": [
        {
          "name": "",
          "type": "address"
        }
      ],
      "payable": false,
      "stateMutability": "view",
      "type": "function"
    },
    {
      "constant": true,
      "inputs": [],
      "name": "ens",
      "outputs": [
        {
          "name": "",
          "type": "address"
        }
      ],
      "payable": false,
      "stateMutability": "view",
      "type": "function"
    },
    {
      "constant": true,
      "inputs": [],
      "name": "CREATE_REPO_ROLE",
      "outputs": [
        {
          "name": "",
          "type": "bytes32"
        }
      ],
      "payable": false,
      "stateMutability": "view",
      "type": "function"
    },
    {
      "constant": true,
      "inputs": [
        {
          "name": "token",
          "type": "address"
        }
      ],
      "name": "allowRecoverability",
      "outputs": [
        {
          "name": "",
          "type": "bool"
        }
      ],
      "payable": false,
      "stateMutability": "view",
      "type": "function"
    },
    {
      "constant": true,
      "inputs": [],
      "name": "appId",
      "outputs": [
        {
          "name": "",
          "type": "bytes32"
        }
      ],
      "payable": false,
      "stateMutability": "view",
      "type": "function"
    },
    {
      "constant": true,
      "inputs": [],
      "name": "getInitializationBlock",
      "outputs": [
        {
          "name": "",
          "type": "uint256"
        }
      ],
      "payable": false,
      "stateMutability": "view",
      "type": "function"
    },
    {
      "constant": false,
      "inputs": [
        {
          "name": "_token",
          "type": "address"
        }
      ],
      "name": "transferToVault",
      "outputs": [],
      "payable": false,
      "stateMutability": "nonpayable",
      "type": "function"
    },
    {
      "constant": true,
      "inputs": [
        {
          "name": "_sender",
          "type": "address"
        },
        {
          "name": "_role",
          "type": "bytes32"
        },
        {
          "name": "_params",
          "type": "uint256[]"
        }
      ],
      "name": "canPerform",
      "outputs": [
        {
          "name": "",
          "type": "bool"
        }
      ],
      "payable": false,
      "stateMutability": "view",
      "type": "function"
    },
    {
      "constant": true,
      "inputs": [],
      "name": "getEVMScriptRegistry",
      "outputs": [
        {
          "name": "",
          "type": "address"
        }
      ],
      "payable": false,
      "stateMutability": "view",
      "type": "function"
    },
    {
      "constant": false,
      "inputs": [
        {
          "name": "_kernel",
          "type": "address"
        },
        {
          "name": "_appId",
          "type": "bytes32"
        },
        {
          "name": "_initializePayload",
          "type": "bytes"
        }
      ],
      "name": "newAppProxyPinned",
      "outputs": [
        {
          "name": "",
          "type": "address"
        }
      ],
      "payable": false,
      "stateMutability": "nonpayable",
      "type": "function"
    },
    {
      "constant": true,
      "inputs": [],
      "name": "kernel",
      "outputs": [
        {
          "name": "",
          "type": "address"
        }
      ],
      "payable": false,
      "stateMutability": "view",
      "type": "function"
    },
    {
      "constant": true,
      "inputs": [],
      "name": "isPetrified",
      "outputs": [
        {
          "name": "",
          "type": "bool"
        }
      ],
      "payable": false,
      "stateMutability": "view",
      "type": "function"
    },
    {
      "constant": false,
      "inputs": [
        {
          "name": "_kernel",
          "type": "address"
        },
        {
          "name": "_appId",
          "type": "bytes32"
        }
      ],
      "name": "newAppProxy",
      "outputs": [
        {
          "name": "",
          "type": "address"
        }
      ],
      "payable": false,
      "stateMutability": "nonpayable",
      "type": "function"
    },
    {
      "constant": false,
      "inputs": [
        {
          "name": "_kernel",
          "type": "address"
        },
        {
          "name": "_appId",
          "type": "bytes32"
        },
        {
          "name": "_initializePayload",
          "type": "bytes"
        }
      ],
      "name": "newAppProxy",
      "outputs": [
        {
          "name": "",
          "type": "address"
        }
      ],
      "payable": false,
      "stateMutability": "nonpayable",
      "type": "function"
    },
    {
      "constant": false,
      "inputs": [
        {
          "name": "_kernel",
          "type": "address"
        },
        {
          "name": "_appId",
          "type": "bytes32"
        }
      ],
      "name": "newAppProxyPinned",
      "outputs": [
        {
          "name": "",
          "type": "address"
        }
      ],
      "payable": false,
      "stateMutability": "nonpayable",
      "type": "function"
    },
    {
      "anonymous": false,
      "inputs": [
        {
          "indexed": false,
          "name": "id",
          "type": "bytes32"
        },
        {
          "indexed": false,
          "name": "name",
          "type": "string"
        },
        {
          "indexed": false,
          "name": "repo",
          "type": "address"
        }
      ],
      "name": "NewRepo",
      "type": "event"
    },
    {
      "anonymous": false,
      "inputs": [
        {
          "indexed": false,
          "name": "proxy",
          "type": "address"
        },
        {
          "indexed": false,
          "name": "isUpgradeable",
          "type": "bool"
        },
        {
          "indexed": false,
          "name": "appId",
          "type": "bytes32"
        }
      ],
      "name": "NewAppProxy",
      "type": "event"
    },
    {
      "anonymous": false,
      "inputs": [
        {
          "indexed": true,
          "name": "executor",
          "type": "address"
        },
        {
          "indexed": false,
          "name": "script",
          "type": "bytes"
        },
        {
          "indexed": false,
          "name": "input",
          "type": "bytes"
        },
        {
          "indexed": false,
          "name": "returnData",
          "type": "bytes"
        }
      ],
      "name": "ScriptResult",
      "type": "event"
    },
    {
      "anonymous": false,
      "inputs": [
        {
          "indexed": true,
          "name": "vault",
          "type": "address"
        },
        {
          "indexed": true,
          "name": "token",
          "type": "address"
        },
        {
          "indexed": false,
          "name": "amount",
          "type": "uint256"
        }
      ],
      "name": "RecoverToVault",
      "type": "event"
    },
    {
      "constant": false,
      "inputs": [
        {
          "name": "_registrar",
          "type": "address"
        }
      ],
      "name": "initialize",
      "outputs": [],
      "payable": false,
      "stateMutability": "nonpayable",
      "type": "function"
    },
    {
      "constant": false,
      "inputs": [
        {
          "name": "_name",
          "type": "string"
        },
        {
          "name": "_dev",
          "type": "address"
        }
      ],
      "name": "newRepo",
      "outputs": [
        {
          "name": "",
          "type": "address"
        }
      ],
      "payable": false,
      "stateMutability": "nonpayable",
      "type": "function"
    },
    {
      "constant": false,
      "inputs": [
        {
          "name": "_name",
          "type": "string"
        },
        {
          "name": "_dev",
          "type": "address"
        },
        {
          "name": "_initialSemanticVersion",
          "type": "uint16[3]"
        },
        {
          "name": "_contractAddress",
          "type": "address"
        },
        {
          "name": "_contentURI",
          "type": "bytes"
        }
      ],
      "name": "newRepoWithVersion",
      "outputs": [
        {
          "name": "",
          "type": "address"
        }
      ],
      "payable": false,
      "stateMutability": "nonpayable",
      "type": "function"
    }
  ],
  "bytecode": "0x6080604052620000176401000000006200001d810204565b6200023b565b6200003064010000000062000125810204565b60408051808201909152601881527f494e49545f414c52454144595f494e495449414c495a45440000000000000000602082015290156200010c576040517f08c379a00000000000000000000000000000000000000000000000000000000081526004018080602001828103825283818151815260200191508051906020019080838360005b83811015620000d0578181015183820152602001620000b6565b50505050905090810190601f168015620000fe5780820380516001836020036101000a031916815260200191505b509250505060405180910390fd5b506200012360001964010000000062000154810204565b565b60006200014f60008051602062003d20833981519152640100000000620025d66200023382021704565b905090565b6200016764010000000062000125810204565b60408051808201909152601881527f494e49545f414c52454144595f494e495449414c495a454400000000000000006020820152901562000206576040517f08c379a000000000000000000000000000000000000000000000000000000000815260040180806020018281038252838181518152602001915080519060200190808383600083811015620000d0578181015183820152602001620000b6565b506200023060008051602062003d208339815191528264010000000062002a0c6200023782021704565b50565b5490565b9055565b613ad5806200024b6000396000f300608060405260043610620001325763ffffffff7c01000000000000000000000000000000000000000000000000000000006000350416630803fac08114620001375780632914b9bd14620001635780632b20e39714620001e857806332ab6af0146200020057806332f0a3b514620002f95780633f15457f14620003115780635e1f3fa814620003295780637e7db6e1146200035357806380afdea814620003845780638b3dd749146200039c5780639d4941d814620003b4578063a1658fad14620003e7578063a479e508146200045e578063b0927de71462000476578063c4d66de814620004ea578063d162f8b0146200051b578063d4aae0c41462000594578063de4796ed14620005ac578063e156a8f314620005c4578063ede658b014620005f8578063ff289fc51462000671575b600080fd5b3480156200014457600080fd5b506200014f620006a5565b604080519115158252519081900360200190f35b3480156200017057600080fd5b506040805160206004803580820135601f8101849004840285018401909552848452620001bf943694929360249392840191908190840183828082843750949750620006d39650505050505050565b6040805173ffffffffffffffffffffffffffffffffffffffff9092168252519081900360200190f35b348015620001f557600080fd5b50620001bf620007e7565b3480156200020d57600080fd5b506040805160206004803580820135601f8101849004840285018401909552848452620001bf94369492936024939284019190819084018382808284375050604080516060818101909252959873ffffffffffffffffffffffffffffffffffffffff88351698909790966080820196509450602001925060039150839083908082843750506040805160208781013589018035601f81018390048302840183018552808452979a893573ffffffffffffffffffffffffffffffffffffffff169a909990989401965091945090810192508190840183828082843750949750620008039650505050505050565b3480156200030657600080fd5b50620001bf62000ef5565b3480156200031e57600080fd5b50620001bf62000f98565b3480156200033657600080fd5b506200034162000fb4565b60408051918252519081900360200190f35b3480156200036057600080fd5b506200014f73ffffffffffffffffffffffffffffffffffffffff6004351662000fd8565b3480156200039157600080fd5b506200034162000fde565b348015620003a957600080fd5b506200034162001010565b348015620003c157600080fd5b50620003e573ffffffffffffffffffffffffffffffffffffffff600435166200103d565b005b348015620003f457600080fd5b5060408051602060046044358181013583810280860185019096528085526200014f95833573ffffffffffffffffffffffffffffffffffffffff16956024803596369695606495939492019291829185019084908082843750949750620013759650505050505050565b3480156200046b57600080fd5b50620001bf62001515565b3480156200048357600080fd5b506040805160206004803580820135601f8101849004840285018401909552848452620001bf9436949293602493928401919081908401838280828437509497505050923573ffffffffffffffffffffffffffffffffffffffff169350620015da92505050565b348015620004f757600080fd5b50620003e573ffffffffffffffffffffffffffffffffffffffff60043516620016d1565b3480156200052857600080fd5b50604080516020600460443581810135601f8101849004840285018401909552848452620001bf94823573ffffffffffffffffffffffffffffffffffffffff1694602480359536959460649492019190819084018382808284375094975062001d989650505050505050565b348015620005a157600080fd5b50620001bf62001ebd565b348015620005b957600080fd5b506200014f62001eea565b348015620005d157600080fd5b50620001bf73ffffffffffffffffffffffffffffffffffffffff6004351660243562001f1d565b3480156200060557600080fd5b50604080516020600460443581810135601f8101849004840285018401909552848452620001bf94823573ffffffffffffffffffffffffffffffffffffffff1694602480359536959460649492019190819084018382808284375094975062001f439650505050505050565b3480156200067e57600080fd5b50620001bf73ffffffffffffffffffffffffffffffffffffffff6004351660243562002068565b600080620006b262001010565b90508015801590620006cd575080620006ca62002087565b10155b91505090565b6000620006df62001515565b73ffffffffffffffffffffffffffffffffffffffff166304bf2a7f836040518263ffffffff167c01000000000000000000000000000000000000000000000000000000000281526004018080602001828103825283818151815260200191508051906020019080838360005b83811015620007655781810151838201526020016200074b565b50505050905090810190601f168015620007935780820380516001836020036101000a031916815260200191505b5092505050602060405180830381600087803b158015620007b357600080fd5b505af1158015620007c8573d6000803e3d6000fd5b505050506040513d6020811015620007df57600080fd5b505192915050565b60015473ffffffffffffffffffffffffffffffffffffffff1681565b60408051600080825260208201909252819081907f2a9494d64846c9fdbf0158785aa330d8bc9caf45af27fa0e8898eb4d55adcea6906200084b9033908390855b5062001375565b60408051808201909152600f81527f4150505f415554485f4641494c45440000000000000000000000000000000000602082015290151562000928576040517f08c379a00000000000000000000000000000000000000000000000000000000081526004018080602001828103825283818151815260200191508051906020019080838360005b83811015620008ec578181015183820152602001620008d2565b50505050905090810190601f1680156200091a5780820380516001836020036101000a031916815260200191505b509250505060405180910390fd5b506200093589306200208b565b92508273ffffffffffffffffffffffffffffffffffffffff1663730534108888886040518463ffffffff167c01000000000000000000000000000000000000000000000000000000000281526004018084600360200280838360005b83811015620009ab57818101518382015260200162000991565b505050509050018373ffffffffffffffffffffffffffffffffffffffff1673ffffffffffffffffffffffffffffffffffffffff16815260200180602001828103825283818151815260200191508051906020019080838360005b8381101562000a1f57818101518382015260200162000a05565b50505050905090810190601f16801562000a4d5780820380516001836020036101000a031916815260200191505b50945050505050600060405180830381600087803b15801562000a6f57600080fd5b505af115801562000a84573d6000803e3d6000fd5b5050505062000a9262001ebd565b73ffffffffffffffffffffffffffffffffffffffff1663de2873596040518163ffffffff167c0100000000000000000000000000000000000000000000000000000000028152600401602060405180830381600087803b15801562000af657600080fd5b505af115801562000b0b573d6000803e3d6000fd5b505050506040513d602081101562000b2257600080fd5b5051604080517faa61924a000000000000000000000000000000000000000000000000000000008152905191935073ffffffffffffffffffffffffffffffffffffffff80851692639d0effdb92309288929083169163aa61924a9160048083019260209291908290030181600087803b15801562000b9f57600080fd5b505af115801562000bb4573d6000803e3d6000fd5b505050506040513d602081101562000bcb57600080fd5b5051604080517c010000000000000000000000000000000000000000000000000000000063ffffffff871602815273ffffffffffffffffffffffffffffffffffffffff948516600482015292909316602483015260448201529051606480830192600092919082900301818387803b15801562000c4757600080fd5b505af115801562000c5c573d6000803e3d6000fd5b505050508173ffffffffffffffffffffffffffffffffffffffff16630a8ed3db89858673ffffffffffffffffffffffffffffffffffffffff1663aa61924a6040518163ffffffff167c0100000000000000000000000000000000000000000000000000000000028152600401602060405180830381600087803b15801562000ce357600080fd5b505af115801562000cf8573d6000803e3d6000fd5b505050506040513d602081101562000d0f57600080fd5b5051604080517c010000000000000000000000000000000000000000000000000000000063ffffffff871602815273ffffffffffffffffffffffffffffffffffffffff948516600482015292909316602483015260448201529051606480830192600092919082900301818387803b15801562000d8b57600080fd5b505af115801562000da0573d6000803e3d6000fd5b505050508173ffffffffffffffffffffffffffffffffffffffff1663afd925df89858673ffffffffffffffffffffffffffffffffffffffff1663aa61924a6040518163ffffffff167c0100000000000000000000000000000000000000000000000000000000028152600401602060405180830381600087803b15801562000e2757600080fd5b505af115801562000e3c573d6000803e3d6000fd5b505050506040513d602081101562000e5357600080fd5b5051604080517c010000000000000000000000000000000000000000000000000000000063ffffffff871602815273ffffffffffffffffffffffffffffffffffffffff948516600482015292909316602483015260448201529051606480830192600092919082900301818387803b15801562000ecf57600080fd5b505af115801562000ee4573d6000803e3d6000fd5b50949b9a5050505050505050505050565b600062000f0162001ebd565b73ffffffffffffffffffffffffffffffffffffffff166332f0a3b56040518163ffffffff167c0100000000000000000000000000000000000000000000000000000000028152600401602060405180830381600087803b15801562000f6557600080fd5b505af115801562000f7a573d6000803e3d6000fd5b505050506040513d602081101562000f9157600080fd5b5051905090565b60005473ffffffffffffffffffffffffffffffffffffffff1681565b7f2a9494d64846c9fdbf0158785aa330d8bc9caf45af27fa0e8898eb4d55adcea681565b50600190565b60006200100b7fd625496217aa6a3453eecb9c3489dc5a53e6c67b444329ea2b2cbc9ff547639b620025d6565b905090565b60006200100b7febb05b386a8d34882b8711d156f463690983dc47815980fb82aeeff1aa43579e620025d6565b60008060006200104d8462000fd8565b60408051808201909152601281527f5245434f5645525f444953414c4c4f57454400000000000000000000000000006020820152901515620010ed576040517f08c379a000000000000000000000000000000000000000000000000000000000815260040180806020018281038252838181518152602001915080519060200190808383600083811015620008ec578181015183820152602001620008d2565b50620010f862000ef5565b92506200110583620025de565b60408051808201909152601a81527f5245434f5645525f5641554c545f4e4f545f434f4e54524143540000000000006020820152901515620011a5576040517f08c379a000000000000000000000000000000000000000000000000000000000815260040180806020018281038252838181518152602001915080519060200190808383600083811015620008ec578181015183820152602001620008d2565b5073ffffffffffffffffffffffffffffffffffffffff8416151562001213576040513031925073ffffffffffffffffffffffffffffffffffffffff84169083156108fc029084906000818181858888f193505050501580156200120c573d6000803e3d6000fd5b506200130a565b50826200123d73ffffffffffffffffffffffffffffffffffffffff82163063ffffffff6200261a16565b91506200126873ffffffffffffffffffffffffffffffffffffffff8216848463ffffffff6200275816565b60408051808201909152601d81527f5245434f5645525f544f4b454e5f5452414e534645525f4641494c4544000000602082015290151562001308576040517f08c379a000000000000000000000000000000000000000000000000000000000815260040180806020018281038252838181518152602001915080519060200190808383600083811015620008ec578181015183820152602001620008d2565b505b8373ffffffffffffffffffffffffffffffffffffffff168373ffffffffffffffffffffffffffffffffffffffff167f596caf56044b55fb8c4ca640089bbc2b63cae3e978b851f5745cbb7c5b288e02846040518082815260200191505060405180910390a350505050565b60008062001382620006a5565b15156200139357600091506200150d565b6200139d62001ebd565b905073ffffffffffffffffffffffffffffffffffffffff81161515620013c757600091506200150d565b8073ffffffffffffffffffffffffffffffffffffffff1663fdef9106863087620013f188620027f2565b6040517c010000000000000000000000000000000000000000000000000000000063ffffffff871602815273ffffffffffffffffffffffffffffffffffffffff808616600483019081529085166024830152604482018490526080606483019081528351608484015283519192909160a490910190602085019080838360005b838110156200148b57818101518382015260200162001471565b50505050905090810190601f168015620014b95780820380516001836020036101000a031916815260200191505b5095505050505050602060405180830381600087803b158015620014dc57600080fd5b505af1158015620014f1573d6000803e3d6000fd5b505050506040513d60208110156200150857600080fd5b505191505b509392505050565b6000806200152262001ebd565b604080517fbe00bbd80000000000000000000000000000000000000000000000000000000081527fd6f028ca0e8edb4a8c9757ca4fdccab25fa1e0317da1188108f7d2dee14902fb60048201527fddbcfd564f642ab5627cf68b9b7d374fb4f8a36e941a75d89c87998cef03bd616024820152905173ffffffffffffffffffffffffffffffffffffffff929092169163be00bbd8916044808201926020929091908290030181600087803b158015620007b357600080fd5b604080516000808252602082019092527f2a9494d64846c9fdbf0158785aa330d8bc9caf45af27fa0e8898eb4d55adcea6906200161c90339083908562000844565b60408051808201909152600f81527f4150505f415554485f4641494c454400000000000000000000000000000000006020820152901515620016bc576040517f08c379a000000000000000000000000000000000000000000000000000000000815260040180806020018281038252838181518152602001915080519060200190808383600083811015620008ec578181015183820152602001620008d2565b50620016c984846200208b565b949350505050565b6000620016dd62001010565b60408051808201909152601881527f494e49545f414c52454144595f494e495449414c495a45440000000000000000602082015290156200177c576040517f08c379a000000000000000000000000000000000000000000000000000000000815260040180806020018281038252838181518152602001915080519060200190808383600083811015620008ec578181015183820152602001620008d2565b5062001787620027fc565b600180547fffffffffffffffffffffffff00000000000000000000000000000000000000001673ffffffffffffffffffffffffffffffffffffffff8481169190911791829055604080517f3f15457f00000000000000000000000000000000000000000000000000000000815290519290911691633f15457f916004808201926020929091908290030181600087803b1580156200182457600080fd5b505af115801562001839573d6000803e3d6000fd5b505050506040513d60208110156200185057600080fd5b5051600080547fffffffffffffffffffffffff00000000000000000000000000000000000000001673ffffffffffffffffffffffffffffffffffffffff928316178155600154604080517fdb6069310000000000000000000000000000000000000000000000000000000081523060048201529051919093169263db60693192602480830193919282900301818387803b158015620018ee57600080fd5b505af115801562001903573d6000803e3d6000fd5b505050506200191162001ebd565b73ffffffffffffffffffffffffffffffffffffffff1663de2873596040518163ffffffff167c0100000000000000000000000000000000000000000000000000000000028152600401602060405180830381600087803b1580156200197557600080fd5b505af11580156200198a573d6000803e3d6000fd5b505050506040513d6020811015620019a157600080fd5b5051600154604080517ffef47e38000000000000000000000000000000000000000000000000000000008152905192935073ffffffffffffffffffffffffffffffffffffffff80851693636d6712d8933093921691829163fef47e38916004808201926020929091908290030181600087803b15801562001a2157600080fd5b505af115801562001a36573d6000803e3d6000fd5b505050506040513d602081101562001a4d57600080fd5b5051604080517c010000000000000000000000000000000000000000000000000000000063ffffffff871602815273ffffffffffffffffffffffffffffffffffffffff94851660048201529290931660248301526044820152905160648083019260209291908290030181600087803b15801562001aca57600080fd5b505af115801562001adf573d6000803e3d6000fd5b505050506040513d602081101562001af657600080fd5b505160408051808201909152601781527f41504d5245475f494e49545f5045524d495353494f4e53000000000000000000602082015290151562001b98576040517f08c379a000000000000000000000000000000000000000000000000000000000815260040180806020018281038252838181518152602001915080519060200190808383600083811015620008ec578181015183820152602001620008d2565b508073ffffffffffffffffffffffffffffffffffffffff16636d6712d830838473ffffffffffffffffffffffffffffffffffffffff16633d6ab68f6040518163ffffffff167c0100000000000000000000000000000000000000000000000000000000028152600401602060405180830381600087803b15801562001c1c57600080fd5b505af115801562001c31573d6000803e3d6000fd5b505050506040513d602081101562001c4857600080fd5b5051604080517c010000000000000000000000000000000000000000000000000000000063ffffffff871602815273ffffffffffffffffffffffffffffffffffffffff94851660048201529290931660248301526044820152905160648083019260209291908290030181600087803b15801562001cc557600080fd5b505af115801562001cda573d6000803e3d6000fd5b505050506040513d602081101562001cf157600080fd5b505160408051808201909152601781527f41504d5245475f494e49545f5045524d495353494f4e53000000000000000000602082015290151562001d93576040517f08c379a000000000000000000000000000000000000000000000000000000000815260040180806020018281038252838181518152602001915080519060200190808383600083811015620008ec578181015183820152602001620008d2565b505050565b60008084848462001da862002c9d565b73ffffffffffffffffffffffffffffffffffffffff8416815260208082018490526060604083018181528451918401919091528351909160808401919085019080838360005b8381101562001e0857818101518382015260200162001dee565b50505050905090810190601f16801562001e365780820380516001836020036101000a031916815260200191505b50945050505050604051809103906000f08015801562001e5a573d6000803e3d6000fd5b506040805173ffffffffffffffffffffffffffffffffffffffff831681526000602082015280820187905290519192507fd880e726dced8808d727f02dd0e6fdd3a945b24bfee77e13367bcbe61ddbaf47919081900360600190a1949350505050565b60006200100b7f4172f0f7d2289153072b0a6ca36959e0cbe2efc3afe50fc81636caa96338137b620025d6565b60007fffffffffffffffffffffffffffffffffffffffffffffffffffffffffffffffff62001f1762001010565b14905090565b6040805160008082526020820190925262001f3c908490849062001f43565b9392505050565b60008084848462001f5362002cae565b73ffffffffffffffffffffffffffffffffffffffff8416815260208082018490526060604083018181528451918401919091528351909160808401919085019080838360005b8381101562001fb357818101518382015260200162001f99565b50505050905090810190601f16801562001fe15780820380516001836020036101000a031916815260200191505b50945050505050604051809103906000f08015801562002005573d6000803e3d6000fd5b506040805173ffffffffffffffffffffffffffffffffffffffff831681526001602082015280820187905290519192507fd880e726dced8808d727f02dd0e6fdd3a945b24bfee77e13367bcbe61ddbaf47919081900360600190a1949350505050565b6040805160008082526020820190925262001f3c908490849062001d98565b4390565b6000806000808551116040805190810160405280601181526020017f41504d5245475f454d5054595f4e414d4500000000000000000000000000000081525090151562002136576040517f08c379a000000000000000000000000000000000000000000000000000000000815260040180806020018281038252838181518152602001915080519060200190808383600083811015620008ec578181015183820152602001620008d2565b5062002141620028e4565b91506200214d62001ebd565b73ffffffffffffffffffffffffffffffffffffffff1663de2873596040518163ffffffff167c0100000000000000000000000000000000000000000000000000000000028152600401602060405180830381600087803b158015620021b157600080fd5b505af1158015620021c6573d6000803e3d6000fd5b505050506040513d6020811015620021dd57600080fd5b5051604080517faa61924a000000000000000000000000000000000000000000000000000000008152905173ffffffffffffffffffffffffffffffffffffffff9283169263be038478928892879283169163aa61924a9160048083019260209291908290030181600087803b1580156200225657600080fd5b505af11580156200226b573d6000803e3d6000fd5b505050506040513d60208110156200228257600080fd5b5051604080517c010000000000000000000000000000000000000000000000000000000063ffffffff871602815273ffffffffffffffffffffffffffffffffffffffff94851660048201529284166024840152604483019190915291881660648201529051608480830192600092919082900301818387803b1580156200230857600080fd5b505af11580156200231d573d6000803e3d6000fd5b5050600154604051885173ffffffffffffffffffffffffffffffffffffffff90921693506365b0bc85925088916020918201918291908401908083835b602083106200239957805182527fffffffffffffffffffffffffffffffffffffffffffffffffffffffffffffffe090920191602091820191016200235a565b6001836020036101000a0380198251168184511680821785525050505050509050019150506040516020818303038152906040526040518082805190602001908083835b602083106200241c57805182527fffffffffffffffffffffffffffffffffffffffffffffffffffffffffffffffe09092019160209182019101620023dd565b51815160209384036101000a7fffffffffffffffffffffffffffffffffffffffffffffffffffffffffffffffff01801990921691161790526040805192909401829003822063ffffffff88167c0100000000000000000000000000000000000000000000000000000000028352600483015273ffffffffffffffffffffffffffffffffffffffff8a166024830152925160448083019650939450929083900301905081600087803b158015620024d157600080fd5b505af1158015620024e6573d6000803e3d6000fd5b505050506040513d6020811015620024fd57600080fd5b50516040805182815273ffffffffffffffffffffffffffffffffffffffff8516918101919091526060602082810182815289519284019290925288519394507f526d4ccf8c3d7b6f0b6d4cc0de526d515c87d1ea3bd264ace0b5c2e70d1b22089385938a9388939192909160808401919086019080838360005b838110156200259157818101518382015260200162002577565b50505050905090810190601f168015620025bf5780820380516001836020036101000a031916815260200191505b5094505050505060405180910390a1509392505050565b5490565b5490565b60008073ffffffffffffffffffffffffffffffffffffffff8316151562002609576000915062002614565b823b90506000811191505b50919050565b6040805173ffffffffffffffffffffffffffffffffffffffff83166024808301919091528251808303909101815260449091019091526020810180517bffffffffffffffffffffffffffffffffffffffffffffffffffffffff167f70a08231000000000000000000000000000000000000000000000000000000001790526000908180620026a9868462002987565b60408051808201909152601c81527f534146455f4552435f32305f42414c414e43455f524556455254454400000000602082015291935091508215156200274e576040517f08c379a000000000000000000000000000000000000000000000000000000000815260040180806020018281038252838181518152602001915080519060200190808383600083811015620008ec578181015183820152602001620008d2565b5095945050505050565b6040805173ffffffffffffffffffffffffffffffffffffffff8416602482015260448082018490528251808303909101815260649091019091526020810180517bffffffffffffffffffffffffffffffffffffffffffffffffffffffff167fa9059cbb00000000000000000000000000000000000000000000000000000000179052600090620027e98582620029b9565b95945050505050565b8051602002815290565b6200280662001010565b60408051808201909152601881527f494e49545f414c52454144595f494e495449414c495a4544000000000000000060208201529015620028a5576040517f08c379a000000000000000000000000000000000000000000000000000000000815260040180806020018281038252838181518152602001915080519060200190808383600083811015620008ec578181015183820152602001620008d2565b50620028e2620028b462002087565b7febb05b386a8d34882b8711d156f463690983dc47815980fb82aeeff1aa43579e9063ffffffff62002a0c16565b565b600062002904620028f462001ebd565b620028fe62002a10565b62001f1d565b90508073ffffffffffffffffffffffffffffffffffffffff16638129fc1c6040518163ffffffff167c0100000000000000000000000000000000000000000000000000000000028152600401600060405180830381600087803b1580156200296b57600080fd5b505af115801562002980573d6000803e3d6000fd5b5050505090565b6000806000806040516020818751602089018a5afa92506000831115620029ad57805191505b50909590945092505050565b6000806040516020818551602087016000895af1600081111562002a02573d8015620029ee5760208114620029f85762002a00565b6001935062002a00565b600183511493505b505b5090949350505050565b9055565b600154604080517ffaff50a8000000000000000000000000000000000000000000000000000000008152905160009273ffffffffffffffffffffffffffffffffffffffff169163faff50a891600480830192602092919082900301818787803b15801562002a7d57600080fd5b505af115801562002a92573d6000803e3d6000fd5b505050506040513d602081101562002aa957600080fd5b505160408051808201825260088082527f61706d2d7265706f000000000000000000000000000000000000000000000000602083810191825293519293929092019182918083835b6020831062002b3057805182527fffffffffffffffffffffffffffffffffffffffffffffffffffffffffffffffe0909201916020918201910162002af1565b6001836020036101000a0380198251168184511680821785525050505050509050019150506040516020818303038152906040526040518082805190602001908083835b6020831062002bb357805182527fffffffffffffffffffffffffffffffffffffffffffffffffffffffffffffffe0909201916020918201910162002b74565b51815160209384036101000a7fffffffffffffffffffffffffffffffffffffffffffffffffffffffffffffffff0180199092169116179052604080519290940182900382208282019790975281840196909652825180820384018152606090910192839052805190959294508493509185019190508083835b6020831062002c6b57805182527fffffffffffffffffffffffffffffffffffffffffffffffffffffffffffffffe0909201916020918201910162002c2c565b6001836020036101000a0380198251168184511680821785525050505050509050019150506040518091039020905090565b6040516106fd8062002cc083390190565b6040516106ed80620033bd833901905600608060405234801561001057600080fd5b506040516106fd3803806106fd8339810160409081528151602083015191830151909201828282600061004b8464010000000061017a810204565b61005d836401000000006101a2810204565b61006f836401000000006101d9810204565b90506000825111156101185761008d816401000000006102a9810204565b151561009857600080fd5b80600160a060020a03168260405180828051906020019080838360005b838110156100cd5781810151838201526020016100b5565b50505050905090810190601f1680156100fa5780820380516001836020036101000a031916815260200191505b50915050600060405180830381855af4915050151561011857600080fd5b50505050610145610137836101d9640100000000026401000000009004565b6401000000006102d6810204565b6101676101596401000000006102fb810204565b6401000000006102a9810204565b151561017257600080fd5b505050610354565b61019f6000805160206106bd8339815191528264010000000061032661032682021704565b50565b61019f7fd625496217aa6a3453eecb9c3489dc5a53e6c67b444329ea2b2cbc9ff547639b8264010000000061032661032682021704565b60006101ec64010000000061032a810204565b604080517fbe00bbd80000000000000000000000000000000000000000000000000000000081527ff1f3eb40f5bc1ad1344716ced8b8a0431d840b5783aea1fd01786bc26f35ac0f6004820152602481018590529051600160a060020a03929092169163be00bbd8916044808201926020929091908290030181600087803b15801561027757600080fd5b505af115801561028b573d6000803e3d6000fd5b505050506040513d60208110156102a157600080fd5b505192915050565b600080600160a060020a03831615156102c557600091506102d0565b823b90506000811191505b50919050565b61019f6000805160206106dd8339815191528264010000000061032661032682021704565b60006103216000805160206106dd83398151915264010000000061031e61035082021704565b905090565b9055565b60006103216000805160206106bd83398151915264010000000061031e61035082021704565b5490565b61035a806103636000396000f30060806040526004361061006c5763ffffffff7c01000000000000000000000000000000000000000000000000000000006000350416634555d5c9811461012b57806348a0c8dd146101525780635c60da1b1461017b57806380afdea8146101b9578063d4aae0c4146101ce575b6127107f665fd576fbbe6f247aff98f5c94a561e3f71ec2d3c988d56f12d342396c50cea6000825a10156100e15760003411361583541616156100dc576040513381523460208201527f15eeaa57c7bd188c1388020bcadc2c436ec60d647d36ef5b9eb3c742217ddee1604082a1005b600080fd5b6100e96101e3565b9050610126816000368080601f016020809104026020016040519081016040528093929190818152602001838380828437506101f2945050505050565b505050005b34801561013757600080fd5b50610140610233565b60408051918252519081900360200190f35b34801561015e57600080fd5b50610167610238565b604080519115158252519081900360200190f35b34801561018757600080fd5b506101906101e3565b6040805173ffffffffffffffffffffffffffffffffffffffff9092168252519081900360200190f35b3480156101c557600080fd5b50610140610263565b3480156101da57600080fd5b5061019061028e565b60006101ed6102b9565b905090565b60006101fd836102e4565b151561020857600080fd5b612710905060008083516020850186855a03f43d604051816000823e82801561022f578282f35b8282fd5b600190565b60006101ed7f665fd576fbbe6f247aff98f5c94a561e3f71ec2d3c988d56f12d342396c50cea61031e565b60006101ed7fd625496217aa6a3453eecb9c3489dc5a53e6c67b444329ea2b2cbc9ff547639b61031e565b60006101ed7f4172f0f7d2289153072b0a6ca36959e0cbe2efc3afe50fc81636caa96338137b61031e565b60006101ed7fdee64df20d65e53d7f51cb6ab6d921a0a6a638a91e942e1d8d02df28e31c038e61031e565b60008073ffffffffffffffffffffffffffffffffffffffff8316151561030d5760009150610318565b823b90506000811191505b50919050565b5490565b5490565b9055565b90555600a165627a7a7230582011dde276c5373896f3034af8449357ad9bb5fbfcfd199a85aeef252b0a933c3b00294172f0f7d2289153072b0a6ca36959e0cbe2efc3afe50fc81636caa96338137bdee64df20d65e53d7f51cb6ab6d921a0a6a638a91e942e1d8d02df28e31c038e608060405234801561001057600080fd5b506040516106ed3803806106ed8339810160409081528151602083015191830151909201828282600061004b84640100000000610124810204565b61005d8364010000000061014c810204565b61006f83640100000000610183810204565b90506000825111156101185761008d81640100000000610253810204565b151561009857600080fd5b80600160a060020a03168260405180828051906020019080838360005b838110156100cd5781810151838201526020016100b5565b50505050905090810190601f1680156100fa5780820380516001836020036101000a031916815260200191505b50915050600060405180830381855af4915050151561011857600080fd5b505050505050506102b3565b6101496000805160206106cd833981519152826401000000006103d761028082021704565b50565b6101497fd625496217aa6a3453eecb9c3489dc5a53e6c67b444329ea2b2cbc9ff547639b826401000000006103d761028082021704565b6000610196640100000000610284810204565b604080517fbe00bbd80000000000000000000000000000000000000000000000000000000081527ff1f3eb40f5bc1ad1344716ced8b8a0431d840b5783aea1fd01786bc26f35ac0f6004820152602481018590529051600160a060020a03929092169163be00bbd8916044808201926020929091908290030181600087803b15801561022157600080fd5b505af1158015610235573d6000803e3d6000fd5b505050506040513d602081101561024b57600080fd5b505192915050565b600080600160a060020a038316151561026f576000915061027a565b823b90506000811191505b50919050565b9055565b60006102aa6000805160206106cd8339815191526401000000006103cf6102af82021704565b905090565b5490565b61040b806102c26000396000f30060806040526004361061006c5763ffffffff7c01000000000000000000000000000000000000000000000000000000006000350416634555d5c9811461012b57806348a0c8dd146101525780635c60da1b1461017b57806380afdea8146101b9578063d4aae0c4146101ce575b6127107f665fd576fbbe6f247aff98f5c94a561e3f71ec2d3c988d56f12d342396c50cea6000825a10156100e15760003411361583541616156100dc576040513381523460208201527f15eeaa57c7bd188c1388020bcadc2c436ec60d647d36ef5b9eb3c742217ddee1604082a1005b600080fd5b6100e96101e3565b9050610126816000368080601f016020809104026020016040519081016040528093929190818152602001838380828437506101fa945050505050565b505050005b34801561013757600080fd5b5061014061023b565b60408051918252519081900360200190f35b34801561015e57600080fd5b50610167610240565b604080519115158252519081900360200190f35b34801561018757600080fd5b506101906101e3565b6040805173ffffffffffffffffffffffffffffffffffffffff9092168252519081900360200190f35b3480156101c557600080fd5b5061014061026b565b3480156101da57600080fd5b50610190610296565b60006101f56101f061026b565b6102c1565b905090565b600061020583610395565b151561021057600080fd5b612710905060008083516020850186855a03f43d604051816000823e828015610237578282f35b8282fd5b600290565b60006101f57f665fd576fbbe6f247aff98f5c94a561e3f71ec2d3c988d56f12d342396c50cea6103cf565b60006101f57fd625496217aa6a3453eecb9c3489dc5a53e6c67b444329ea2b2cbc9ff547639b6103cf565b60006101f57f4172f0f7d2289153072b0a6ca36959e0cbe2efc3afe50fc81636caa96338137b6103cf565b60006102cb610296565b604080517fbe00bbd80000000000000000000000000000000000000000000000000000000081527ff1f3eb40f5bc1ad1344716ced8b8a0431d840b5783aea1fd01786bc26f35ac0f600482015260248101859052905173ffffffffffffffffffffffffffffffffffffffff929092169163be00bbd8916044808201926020929091908290030181600087803b15801561036357600080fd5b505af1158015610377573d6000803e3d6000fd5b505050506040513d602081101561038d57600080fd5b505192915050565b60008073ffffffffffffffffffffffffffffffffffffffff831615156103be57600091506103c9565b823b90506000811191505b50919050565b5490565b5490565b9055565b90555600a165627a7a7230582037fda6007dae017dcd94ca2548a6ac816a59129ff8c0a1770a132538939f53c200294172f0f7d2289153072b0a6ca36959e0cbe2efc3afe50fc81636caa96338137ba165627a7a723058205d19152d87393a05714f9fc838ad19d2e49d8c78ce0c6d8d7baf3f08dbe0ecca0029ebb05b386a8d34882b8711d156f463690983dc47815980fb82aeeff1aa43579e",
  "source": "pragma solidity 0.4.24;\n\nimport \"../lib/ens/AbstractENS.sol\";\nimport \"../ens/ENSSubdomainRegistrar.sol\";\nimport \"../factory/AppProxyFactory.sol\";\nimport \"../apps/AragonApp.sol\";\nimport \"../acl/ACL.sol\";\nimport \"./Repo.sol\";\n\n\ncontract APMInternalAppNames {\n    string internal constant APM_APP_NAME = \"apm-registry\";\n    string internal constant REPO_APP_NAME = \"apm-repo\";\n    string internal constant ENS_SUB_APP_NAME = \"apm-enssub\";\n}\n\n\ncontract APMRegistry is AragonApp, AppProxyFactory, APMInternalAppNames {\n    /* Hardcoded constants to save gas\n    bytes32 public constant CREATE_REPO_ROLE = keccak256(\"CREATE_REPO_ROLE\");\n    */\n    bytes32 public constant CREATE_REPO_ROLE = 0x2a9494d64846c9fdbf0158785aa330d8bc9caf45af27fa0e8898eb4d55adcea6;\n\n    string private constant ERROR_INIT_PERMISSIONS = \"APMREG_INIT_PERMISSIONS\";\n    string private constant ERROR_EMPTY_NAME = \"APMREG_EMPTY_NAME\";\n\n    AbstractENS public ens;\n    ENSSubdomainRegistrar public registrar;\n\n    event NewRepo(bytes32 id, string name, address repo);\n\n    /**\n    * NEEDS CREATE_NAME_ROLE and POINT_ROOTNODE_ROLE permissions on registrar\n    * @dev Initialize can only be called once. It saves the block number in which it was initialized\n    * @notice Initialize this APMRegistry instance and set `_registrar` as the ENS subdomain registrar\n    * @param _registrar ENSSubdomainRegistrar instance that holds registry root node ownership\n    */\n    function initialize(ENSSubdomainRegistrar _registrar) public onlyInit {\n        initialized();\n\n        registrar = _registrar;\n        ens = registrar.ens();\n\n        registrar.pointRootNode(this);\n\n        // Check APM has all permissions it needss\n        ACL acl = ACL(kernel().acl());\n        require(acl.hasPermission(this, registrar, registrar.CREATE_NAME_ROLE()), ERROR_INIT_PERMISSIONS);\n        require(acl.hasPermission(this, acl, acl.CREATE_PERMISSIONS_ROLE()), ERROR_INIT_PERMISSIONS);\n    }\n\n    /**\n    * @notice Create new repo in registry with `_name`\n    * @param _name Repo name, must be ununsed\n    * @param _dev Address that will be given permission to create versions\n    */\n    function newRepo(string _name, address _dev) public auth(CREATE_REPO_ROLE) returns (Repo) {\n        return _newRepo(_name, _dev);\n    }\n\n    /**\n    * @notice Create new repo in registry with `_name` and publish a first version with contract `_contractAddress` and content `@fromHex(_contentURI)`\n    * @param _name Repo name\n    * @param _dev Address that will be given permission to create versions\n    * @param _initialSemanticVersion Semantic version for new repo version\n    * @param _contractAddress address for smart contract logic for version (if set to 0, it uses last versions' contractAddress)\n    * @param _contentURI External URI for fetching new version's content\n    */\n    function newRepoWithVersion(\n        string _name,\n        address _dev,\n        uint16[3] _initialSemanticVersion,\n        address _contractAddress,\n        bytes _contentURI\n    ) public auth(CREATE_REPO_ROLE) returns (Repo)\n    {\n        Repo repo = _newRepo(_name, this); // need to have permissions to create version\n        repo.newVersion(_initialSemanticVersion, _contractAddress, _contentURI);\n\n        // Give permissions to _dev\n        ACL acl = ACL(kernel().acl());\n        acl.revokePermission(this, repo, repo.CREATE_VERSION_ROLE());\n        acl.grantPermission(_dev, repo, repo.CREATE_VERSION_ROLE());\n        acl.setPermissionManager(_dev, repo, repo.CREATE_VERSION_ROLE());\n        return repo;\n    }\n\n    function _newRepo(string _name, address _dev) internal returns (Repo) {\n        require(bytes(_name).length > 0, ERROR_EMPTY_NAME);\n\n        Repo repo = newClonedRepo();\n\n        ACL(kernel().acl()).createPermission(_dev, repo, repo.CREATE_VERSION_ROLE(), _dev);\n\n        // Creates [name] subdomain in the rootNode and sets registry as resolver\n        // This will fail if repo name already exists\n        bytes32 node = registrar.createNameAndPoint(keccak256(abi.encodePacked(_name)), repo);\n\n        emit NewRepo(node, _name, repo);\n\n        return repo;\n    }\n\n    function newClonedRepo() internal returns (Repo repo) {\n        repo = Repo(newAppProxy(kernel(), repoAppId()));\n        repo.initialize();\n    }\n\n    function repoAppId() internal view returns (bytes32) {\n        return keccak256(abi.encodePacked(registrar.rootNode(), keccak256(abi.encodePacked(REPO_APP_NAME))));\n    }\n}\n",
  "sourcePath": "@aragon/os/contracts/apm/APMRegistry.sol",
  "compiler": {
    "name": "solc",
    "version": "0.4.24+commit.e67f0147.Emscripten.clang"
  },
  "schemaVersion": "2.0.1",
  "updatedAt": "2019-09-05T16:42:58.971Z"
}