{
  "contractName": "APMRegistryFactory",
  "abi": [
    {
      "constant": true,
      "inputs": [],
      "name": "registryBase",
      "outputs": [
        {
          "name": "",
          "type": "address"
        }
      ],
      "payable": false,
      "stateMutability": "view",
      "type": "function"
    },
    {
      "constant": true,
      "inputs": [],
      "name": "ensSubdomainRegistrarBase",
      "outputs": [
        {
          "name": "",
          "type": "address"
        }
      ],
      "payable": false,
      "stateMutability": "view",
      "type": "function"
    },
    {
      "constant": true,
      "inputs": [],
      "name": "ens",
      "outputs": [
        {
          "name": "",
          "type": "address"
        }
      ],
      "payable": false,
      "stateMutability": "view",
      "type": "function"
    },
    {
      "constant": true,
      "inputs": [],
      "name": "daoFactory",
      "outputs": [
        {
          "name": "",
          "type": "address"
        }
      ],
      "payable": false,
      "stateMutability": "view",
      "type": "function"
    },
    {
      "constant": true,
      "inputs": [],
      "name": "repoBase",
      "outputs": [
        {
          "name": "",
          "type": "address"
        }
      ],
      "payable": false,
      "stateMutability": "view",
      "type": "function"
    },
    {
      "inputs": [
        {
          "name": "_daoFactory",
          "type": "address"
        },
        {
          "name": "_registryBase",
          "type": "address"
        },
        {
          "name": "_repoBase",
          "type": "address"
        },
        {
          "name": "_ensSubBase",
          "type": "address"
        },
        {
          "name": "_ens",
          "type": "address"
        },
        {
          "name": "_ensFactory",
          "type": "address"
        }
      ],
      "payable": false,
      "stateMutability": "nonpayable",
      "type": "constructor"
    },
    {
      "anonymous": false,
      "inputs": [
        {
          "indexed": true,
          "name": "node",
          "type": "bytes32"
        },
        {
          "indexed": false,
          "name": "apm",
          "type": "address"
        }
      ],
      "name": "DeployAPM",
      "type": "event"
    },
    {
      "constant": false,
      "inputs": [
        {
          "name": "_tld",
          "type": "bytes32"
        },
        {
          "name": "_label",
          "type": "bytes32"
        },
        {
          "name": "_root",
          "type": "address"
        }
      ],
      "name": "newAPM",
      "outputs": [
        {
          "name": "",
          "type": "address"
        }
      ],
      "payable": false,
      "stateMutability": "nonpayable",
      "type": "function"
    }
  ],
  "bytecode": "0x60806040523480156200001157600080fd5b5060405160c0806200268f83398101604090815281516020830151918301516060840151608085015160a09095015160008054600160a060020a0319908116600160a060020a03808816919091179092556001805482168389161790556002805482168387161790556003805490911682851617905593959293919291821615156200012d57604080517fe9358b010000000000000000000000000000000000000000000000000000000081523060048201529051600160a060020a0383169163e9358b019160248083019260209291908290030181600087803b158015620000f957600080fd5b505af11580156200010e573d6000803e3d6000fd5b505050506040513d60208110156200012557600080fd5b50516200012f565b815b60048054600160a060020a0392909216600160a060020a031990921691909117905550505050505061252880620001676000396000f3006080604052600436106100775763ffffffff7c010000000000000000000000000000000000000000000000000000000060003504166339ca6e86811461007c5780633cfb35aa146100ba5780633f15457f146100cf57806348f7f2a3146100e4578063aac57b3a146100f9578063caf1bb7c1461012d575b600080fd5b34801561008857600080fd5b50610091610142565b6040805173ffffffffffffffffffffffffffffffffffffffff9092168252519081900360200190f35b3480156100c657600080fd5b5061009161015e565b3480156100db57600080fd5b5061009161017a565b3480156100f057600080fd5b50610091610196565b34801561010557600080fd5b5061009160043560243573ffffffffffffffffffffffffffffffffffffffff604435166101b2565b34801561013957600080fd5b5061009161223b565b60015473ffffffffffffffffffffffffffffffffffffffff1681565b60035473ffffffffffffffffffffffffffffffffffffffff1681565b60045473ffffffffffffffffffffffffffffffffffffffff1681565b60005473ffffffffffffffffffffffffffffffffffffffff1681565b60008060008060606000806000806101c86124dd565b8c8c6040516020018083600019166000191681526020018260001916600019168152602001925050506040516020818303038152906040526040518082805190602001908083835b6020831061022f5780518252601f199092019160209182019101610210565b51815160209384036101000a7fffffffffffffffffffffffffffffffffffffffffffffffffffffffffffffffff018019909216911617905260408051929094018290038220600480547f02571be30000000000000000000000000000000000000000000000000000000085529084018290529451909f5030965073ffffffffffffffffffffffffffffffffffffffff90941694506302571be3936024808401945091929091908290030181600087803b1580156102eb57600080fd5b505af11580156102ff573d6000803e3d6000fd5b505050506040513d602081101561031557600080fd5b505173ffffffffffffffffffffffffffffffffffffffff1614610524573073ffffffffffffffffffffffffffffffffffffffff16600460009054906101000a900473ffffffffffffffffffffffffffffffffffffffff1673ffffffffffffffffffffffffffffffffffffffff166302571be38f6040518263ffffffff167c0100000000000000000000000000000000000000000000000000000000028152600401808260001916600019168152602001915050602060405180830381600087803b1580156103e257600080fd5b505af11580156103f6573d6000803e3d6000fd5b505050506040513d602081101561040c57600080fd5b505173ffffffffffffffffffffffffffffffffffffffff161461042e57600080fd5b600460009054906101000a900473ffffffffffffffffffffffffffffffffffffffff1673ffffffffffffffffffffffffffffffffffffffff166306ab59238e8e306040518463ffffffff167c010000000000000000000000000000000000000000000000000000000002815260040180846000191660001916815260200183600019166000191681526020018273ffffffffffffffffffffffffffffffffffffffff1673ffffffffffffffffffffffffffffffffffffffff1681526020019350505050600060405180830381600087803b15801561050b57600080fd5b505af115801561051f573d6000803e3d6000fd5b505050505b60008054604080517f21687444000000000000000000000000000000000000000000000000000000008152306004820152905173ffffffffffffffffffffffffffffffffffffffff909216926321687444926024808401936020939083900390910190829087803b15801561059857600080fd5b505af11580156105ac573d6000803e3d6000fd5b505050506040513d60208110156105c257600080fd5b5051604080517fde287359000000000000000000000000000000000000000000000000000000008152905191995073ffffffffffffffffffffffffffffffffffffffff8a169163de287359916004808201926020929091908290030181600087803b15801561063057600080fd5b505af1158015610644573d6000803e3d6000fd5b505050506040513d602081101561065a57600080fd5b5051604080517f8ea8dc9d000000000000000000000000000000000000000000000000000000008152905191985073ffffffffffffffffffffffffffffffffffffffff808a169263be0384789230928d9290831691638ea8dc9d9160048083019260209291908290030181600087803b1580156106d657600080fd5b505af11580156106ea573d6000803e3d6000fd5b505050506040513d602081101561070057600080fd5b5051604080517c010000000000000000000000000000000000000000000000000000000063ffffffff871602815273ffffffffffffffffffffffffffffffffffffffff948516600482015292909316602483015260448201523060648201529051608480830192600092919082900301818387803b15801561078157600080fd5b505af1158015610795573d6000803e3d6000fd5b50506040805160008152606081018252600a60208083018281527f61706d2d656e73737562000000000000000000000000000000000000000000008486019081529451939c5073ffffffffffffffffffffffffffffffffffffffff8f16965063397edd4195508f949093909101918291908083835b602083106108295780518252601f19909201916020918201910161080a565b6001836020036101000a0380198251168184511680821785525050505050509050019150506040516020818303038152906040526040518082805190602001908083835b6020831061088c5780518252601f19909201916020918201910161086d565b51815160209384036101000a7fffffffffffffffffffffffffffffffffffffffffffffffffffffffffffffffff0180199092169116179052604080519290940182900382208282019790975281840196909652825180820384018152606090910192839052805190959294508493509185019190508083835b602083106109245780518252601f199092019160209182019101610905565b6001836020036101000a0380198251168184511680821785525050505050509050019150506040518091039020600360009054906101000a900473ffffffffffffffffffffffffffffffffffffffff168960006040518563ffffffff167c01000000000000000000000000000000000000000000000000000000000281526004018085600019166000191681526020018473ffffffffffffffffffffffffffffffffffffffff1673ffffffffffffffffffffffffffffffffffffffff1681526020018060200183151515158152602001828103825284818151815260200191508051906020019080838360005b83811015610a29578181015183820152602001610a11565b50505050905090810190601f168015610a565780820380516001836020036101000a031916815260200191505b5095505050505050602060405180830381600087803b158015610a7857600080fd5b505af1158015610a8c573d6000803e3d6000fd5b505050506040513d6020811015610aa257600080fd5b5051604080518082018252600c8082527f61706d2d726567697374727900000000000000000000000000000000000000006020838101918252935194995073ffffffffffffffffffffffffffffffffffffffff8d169463397edd41948f949391019182918083835b60208310610b295780518252601f199092019160209182019101610b0a565b6001836020036101000a0380198251168184511680821785525050505050509050019150506040516020818303038152906040526040518082805190602001908083835b60208310610b8c5780518252601f199092019160209182019101610b6d565b51815160209384036101000a7fffffffffffffffffffffffffffffffffffffffffffffffffffffffffffffffff0180199092169116179052604080519290940182900382208282019790975281840196909652825180820384018152606090910192839052805190959294508493509185019190508083835b60208310610c245780518252601f199092019160209182019101610c05565b6001836020036101000a0380198251168184511680821785525050505050509050019150506040518091039020600160009054906101000a900473ffffffffffffffffffffffffffffffffffffffff168960006040518563ffffffff167c01000000000000000000000000000000000000000000000000000000000281526004018085600019166000191681526020018473ffffffffffffffffffffffffffffffffffffffff1673ffffffffffffffffffffffffffffffffffffffff1681526020018060200183151515158152602001828103825284818151815260200191508051906020019080838360005b83811015610d29578181015183820152602001610d11565b50505050905090810190601f168015610d565780820380516001836020036101000a031916815260200191505b5095505050505050602060405180830381600087803b158015610d7857600080fd5b505af1158015610d8c573d6000803e3d6000fd5b505050506040513d6020811015610da257600080fd5b505160408051808201825260088082527f61706d2d7265706f000000000000000000000000000000000000000000000000602083810191825293519498508d949293929092019182918083835b60208310610e0e5780518252601f199092019160209182019101610def565b6001836020036101000a0380198251168184511680821785525050505050509050019150506040516020818303038152906040526040518082805190602001908083835b60208310610e715780518252601f199092019160209182019101610e52565b51815160209384036101000a7fffffffffffffffffffffffffffffffffffffffffffffffffffffffffffffffff0180199092169116179052604080519290940182900382208282019790975281840196909652825180820384018152606090910192839052805190959294508493509185019190508083835b60208310610f095780518252601f199092019160209182019101610eea565b51815160209384036101000a7fffffffffffffffffffffffffffffffffffffffffffffffffffffffffffffffff0180199092169116179052604080519290940182900382207fdb8a61d4000000000000000000000000000000000000000000000000000000008352935193985073ffffffffffffffffffffffffffffffffffffffff8e16955063ae5b25409450859363db8a61d493506004808401938290030181600087803b158015610fbb57600080fd5b505af1158015610fcf573d6000803e3d6000fd5b505050506040513d6020811015610fe557600080fd5b5051600254604080517c010000000000000000000000000000000000000000000000000000000063ffffffff861602815260048101939093526024830188905273ffffffffffffffffffffffffffffffffffffffff909116604483015251606480830192600092919082900301818387803b15801561106357600080fd5b505af1158015611077573d6000803e3d6000fd5b50506040805173ffffffffffffffffffffffffffffffffffffffff8816815290518c93507f5dd941cb8701bb50205e5aef88c8532b8d6e75b7b65e2c458e9acdf261f0f29292509081900360200190a28673ffffffffffffffffffffffffffffffffffffffff1663be03847885878873ffffffffffffffffffffffffffffffffffffffff1663fef47e386040518163ffffffff167c0100000000000000000000000000000000000000000000000000000000028152600401602060405180830381600087803b15801561114957600080fd5b505af115801561115d573d6000803e3d6000fd5b505050506040513d602081101561117357600080fd5b5051604080517c010000000000000000000000000000000000000000000000000000000063ffffffff871602815273ffffffffffffffffffffffffffffffffffffffff948516600482015292841660248401526044830191909152918f1660648201529051608480830192600092919082900301818387803b1580156111f857600080fd5b505af115801561120c573d6000803e3d6000fd5b505050508673ffffffffffffffffffffffffffffffffffffffff1663be03847885878873ffffffffffffffffffffffffffffffffffffffff1663307482cf6040518163ffffffff167c0100000000000000000000000000000000000000000000000000000000028152600401602060405180830381600087803b15801561129257600080fd5b505af11580156112a6573d6000803e3d6000fd5b505050506040513d60208110156112bc57600080fd5b5051604080517c010000000000000000000000000000000000000000000000000000000063ffffffff871602815273ffffffffffffffffffffffffffffffffffffffff948516600482015292841660248401526044830191909152918f1660648201529051608480830192600092919082900301818387803b15801561134157600080fd5b505af1158015611355573d6000803e3d6000fd5b505050508673ffffffffffffffffffffffffffffffffffffffff16633d6ab68f6040518163ffffffff167c0100000000000000000000000000000000000000000000000000000000028152600401602060405180830381600087803b1580156113bd57600080fd5b505af11580156113d1573d6000803e3d6000fd5b505050506040513d60208110156113e757600080fd5b5051604080517f0a8ed3db00000000000000000000000000000000000000000000000000000000815273ffffffffffffffffffffffffffffffffffffffff87811660048301528a16602482018190526044820184905291519294509091630a8ed3db9160648082019260009290919082900301818387803b15801561146b57600080fd5b505af115801561147f573d6000803e3d6000fd5b505060048054604080517f5b0fc9c30000000000000000000000000000000000000000000000000000000081529283018e905273ffffffffffffffffffffffffffffffffffffffff8a81166024850152905191169350635b0fc9c39250604480830192600092919082900301818387803b1580156114fc57600080fd5b505af1158015611510573d6000803e3d6000fd5b505060048054604080517fbe13f47c00000000000000000000000000000000000000000000000000000000815273ffffffffffffffffffffffffffffffffffffffff92831693810193909352602483018e905251908916935063be13f47c9250604480830192600092919082900301818387803b15801561159057600080fd5b505af11580156115a4573d6000803e3d6000fd5b505050508373ffffffffffffffffffffffffffffffffffffffff1663c4d66de8866040518263ffffffff167c0100000000000000000000000000000000000000000000000000000000028152600401808273ffffffffffffffffffffffffffffffffffffffff1673ffffffffffffffffffffffffffffffffffffffff168152602001915050600060405180830381600087803b15801561164357600080fd5b505af1158015611657573d6000803e3d6000fd5b5050600183525050604080517f5e1f3fa8000000000000000000000000000000000000000000000000000000008152905173ffffffffffffffffffffffffffffffffffffffff808a169263be038478923092899290831691635e1f3fa8916004808201926020929091908290030181600087803b1580156116d757600080fd5b505af11580156116eb573d6000803e3d6000fd5b505050506040513d602081101561170157600080fd5b5051604080517c010000000000000000000000000000000000000000000000000000000063ffffffff871602815273ffffffffffffffffffffffffffffffffffffffff948516600482015292909316602483015260448201523060648201529051608480830192600092919082900301818387803b15801561178257600080fd5b505af1158015611796573d6000803e3d6000fd5b505050508373ffffffffffffffffffffffffffffffffffffffff166332ab6af06040805190810160405280600c81526020017f61706d2d726567697374727900000000000000000000000000000000000000008152508d84600160009054906101000a900473ffffffffffffffffffffffffffffffffffffffff1661184f6040805190810160405280600881526020017f697066733a61706d000000000000000000000000000000000000000000000000815250612257565b6040517c010000000000000000000000000000000000000000000000000000000063ffffffff881602815273ffffffffffffffffffffffffffffffffffffffff851660248201526004810190819060440185606080838360005b838110156118c15781810151838201526020016118a9565b505050509050018473ffffffffffffffffffffffffffffffffffffffff1673ffffffffffffffffffffffffffffffffffffffff16815260200180602001838103835288818151815260200191508051906020019080838360005b8381101561193357818101518382015260200161191b565b50505050905090810190601f1680156119605780820380516001836020036101000a031916815260200191505b50838103825284518152845160209182019186019080838360005b8381101561199357818101518382015260200161197b565b50505050905090810190601f1680156119c05780820380516001836020036101000a031916815260200191505b50975050505050505050602060405180830381600087803b1580156119e457600080fd5b505af11580156119f8573d6000803e3d6000fd5b505050506040513d6020811015611a0e57600080fd5b8101908080519060200190929190505050508373ffffffffffffffffffffffffffffffffffffffff166332ab6af06040805190810160405280600a81526020017f61706d2d656e73737562000000000000000000000000000000000000000000008152508d84600360009054906101000a900473ffffffffffffffffffffffffffffffffffffffff16611ad56040805190810160405280600b81526020017f697066733a656e73737562000000000000000000000000000000000000000000815250612257565b6040517c010000000000000000000000000000000000000000000000000000000063ffffffff881602815273ffffffffffffffffffffffffffffffffffffffff851660248201526004810190819060440185606080838360005b83811015611b47578181015183820152602001611b2f565b505050509050018473ffffffffffffffffffffffffffffffffffffffff1673ffffffffffffffffffffffffffffffffffffffff16815260200180602001838103835288818151815260200191508051906020019080838360005b83811015611bb9578181015183820152602001611ba1565b50505050905090810190601f168015611be65780820380516001836020036101000a031916815260200191505b50838103825284518152845160209182019186019080838360005b83811015611c19578181015183820152602001611c01565b50505050905090810190601f168015611c465780820380516001836020036101000a031916815260200191505b50975050505050505050602060405180830381600087803b158015611c6a57600080fd5b505af1158015611c7e573d6000803e3d6000fd5b505050506040513d6020811015611c9457600080fd5b8101908080519060200190929190505050508373ffffffffffffffffffffffffffffffffffffffff166332ab6af06040805190810160405280600881526020017f61706d2d7265706f0000000000000000000000000000000000000000000000008152508d84600260009054906101000a900473ffffffffffffffffffffffffffffffffffffffff16611d5b6040805190810160405280600981526020017f697066733a7265706f0000000000000000000000000000000000000000000000815250612257565b6040517c010000000000000000000000000000000000000000000000000000000063ffffffff881602815273ffffffffffffffffffffffffffffffffffffffff851660248201526004810190819060440185606080838360005b83811015611dcd578181015183820152602001611db5565b505050509050018473ffffffffffffffffffffffffffffffffffffffff1673ffffffffffffffffffffffffffffffffffffffff16815260200180602001838103835288818151815260200191508051906020019080838360005b83811015611e3f578181015183820152602001611e27565b50505050905090810190601f168015611e6c5780820380516001836020036101000a031916815260200191505b50838103825284518152845160209182019186019080838360005b83811015611e9f578181015183820152602001611e87565b50505050905090810190601f168015611ecc5780820380516001836020036101000a031916815260200191505b50975050505050505050602060405180830381600087803b158015611ef057600080fd5b505af1158015611f04573d6000803e3d6000fd5b505050506040513d6020811015611f1a57600080fd5b50611f28905087858d61225a565b8673ffffffffffffffffffffffffffffffffffffffff1663afd925df8c8a8b73ffffffffffffffffffffffffffffffffffffffff16638ea8dc9d6040518163ffffffff167c0100000000000000000000000000000000000000000000000000000000028152600401602060405180830381600087803b158015611faa57600080fd5b505af1158015611fbe573d6000803e3d6000fd5b505050506040513d6020811015611fd457600080fd5b5051604080517c010000000000000000000000000000000000000000000000000000000063ffffffff871602815273ffffffffffffffffffffffffffffffffffffffff948516600482015292909316602483015260448201529051606480830192600092919082900301818387803b15801561204f57600080fd5b505af1158015612063573d6000803e3d6000fd5b5050604080517f9d0effdb00000000000000000000000000000000000000000000000000000000815230600482015273ffffffffffffffffffffffffffffffffffffffff8b1660248201819052604482018790529151919350639d0effdb925060648082019260009290919082900301818387803b1580156120e457600080fd5b505af11580156120f8573d6000803e3d6000fd5b5050604080517f0a8ed3db00000000000000000000000000000000000000000000000000000000815273ffffffffffffffffffffffffffffffffffffffff8f811660048301528b1660248201819052604482018790529151919350630a8ed3db925060648082019260009290919082900301818387803b15801561217b57600080fd5b505af115801561218f573d6000803e3d6000fd5b5050604080517fafd925df00000000000000000000000000000000000000000000000000000000815273ffffffffffffffffffffffffffffffffffffffff8f811660048301528b166024820181905260448201879052915191935063afd925df925060648082019260009290919082900301818387803b15801561221257600080fd5b505af1158015612226573d6000803e3d6000fd5b50959f9e505050505050505050505050505050565b60025473ffffffffffffffffffffffffffffffffffffffff1681565b90565b8273ffffffffffffffffffffffffffffffffffffffff16630a8ed3db82848573ffffffffffffffffffffffffffffffffffffffff16635e1f3fa86040518163ffffffff167c0100000000000000000000000000000000000000000000000000000000028152600401602060405180830381600087803b1580156122dc57600080fd5b505af11580156122f0573d6000803e3d6000fd5b505050506040513d602081101561230657600080fd5b5051604080517c010000000000000000000000000000000000000000000000000000000063ffffffff871602815273ffffffffffffffffffffffffffffffffffffffff948516600482015292909316602483015260448201529051606480830192600092919082900301818387803b15801561238157600080fd5b505af1158015612395573d6000803e3d6000fd5b505050508273ffffffffffffffffffffffffffffffffffffffff1663afd925df82848573ffffffffffffffffffffffffffffffffffffffff16635e1f3fa86040518163ffffffff167c0100000000000000000000000000000000000000000000000000000000028152600401602060405180830381600087803b15801561241b57600080fd5b505af115801561242f573d6000803e3d6000fd5b505050506040513d602081101561244557600080fd5b5051604080517c010000000000000000000000000000000000000000000000000000000063ffffffff871602815273ffffffffffffffffffffffffffffffffffffffff948516600482015292909316602483015260448201529051606480830192600092919082900301818387803b1580156124c057600080fd5b505af11580156124d4573d6000803e3d6000fd5b50505050505050565b60606040519081016040528060039060208202803883395091929150505600a165627a7a72305820458c889adaff0d7fdf7938ada8b528c9ed3fa5d80771d5d4a32cb592e07c7ef60029",
  "source": "pragma solidity 0.4.24;\n\n\nimport \"../apm/APMRegistry.sol\";\nimport \"../apm/Repo.sol\";\nimport \"../ens/ENSSubdomainRegistrar.sol\";\n\nimport \"./DAOFactory.sol\";\nimport \"./ENSFactory.sol\";\nimport \"./AppProxyFactory.sol\";\n\n\ncontract APMRegistryFactory is APMInternalAppNames {\n    DAOFactory public daoFactory;\n    APMRegistry public registryBase;\n    Repo public repoBase;\n    ENSSubdomainRegistrar public ensSubdomainRegistrarBase;\n    ENS public ens;\n\n    event DeployAPM(bytes32 indexed node, address apm);\n\n    /**\n    * @notice Create a new factory for deploying Aragon Package Managers (aragonPM)\n    * @dev Requires either a given ENS registrar or ENSFactory (used for generating a new ENS in test environments).\n    * @param _daoFactory Base factory for deploying DAOs\n    * @param _registryBase APMRegistry base contract location\n    * @param _repoBase Repo base contract location\n    * @param _ensSubBase ENSSubdomainRegistrar base contract location\n    * @param _ens ENS instance\n    * @param _ensFactory ENSFactory (used to generated a new ENS if no ENS is given)\n    */\n    constructor(\n        DAOFactory _daoFactory,\n        APMRegistry _registryBase,\n        Repo _repoBase,\n        ENSSubdomainRegistrar _ensSubBase,\n        ENS _ens,\n        ENSFactory _ensFactory\n    ) public // DAO initialized without evmscript run support\n    {\n        daoFactory = _daoFactory;\n        registryBase = _registryBase;\n        repoBase = _repoBase;\n        ensSubdomainRegistrarBase = _ensSubBase;\n\n        // Either the ENS address provided is used, if any.\n        // Or we use the ENSFactory to generate a test instance of ENS\n        // If not the ENS address nor factory address are provided, this will revert\n        ens = _ens != address(0) ? _ens : _ensFactory.newENS(this);\n    }\n\n    /**\n    * @notice Create a new Aragon Package Manager (aragonPM) DAO, holding the `_label` subdomain from parent `_tld` and controlled by `_root`\n    * @param _tld The parent node of the controlled subdomain\n    * @param _label The subdomain label\n    * @param _root Manager for the new aragonPM DAO\n    * @return The new aragonPM's APMRegistry app\n    */\n    function newAPM(bytes32 _tld, bytes32 _label, address _root) public returns (APMRegistry) {\n        bytes32 node = keccak256(abi.encodePacked(_tld, _label));\n\n        // Assume it is the test ENS\n        if (ens.owner(node) != address(this)) {\n            // If we weren't in test ens and factory doesn't have ownership, will fail\n            require(ens.owner(_tld) == address(this));\n            ens.setSubnodeOwner(_tld, _label, this);\n        }\n\n        Kernel dao = daoFactory.newDAO(this);\n        ACL acl = ACL(dao.acl());\n\n        acl.createPermission(this, dao, dao.APP_MANAGER_ROLE(), this);\n\n        // Deploy app proxies\n        bytes memory noInit = new bytes(0);\n        ENSSubdomainRegistrar ensSub = ENSSubdomainRegistrar(\n            dao.newAppInstance(\n                keccak256(abi.encodePacked(node, keccak256(abi.encodePacked(ENS_SUB_APP_NAME)))),\n                ensSubdomainRegistrarBase,\n                noInit,\n                false\n            )\n        );\n        APMRegistry apm = APMRegistry(\n            dao.newAppInstance(\n                keccak256(abi.encodePacked(node, keccak256(abi.encodePacked(APM_APP_NAME)))),\n                registryBase,\n                noInit,\n                false\n            )\n        );\n\n        // APMRegistry controls Repos\n        bytes32 repoAppId = keccak256(abi.encodePacked(node, keccak256(abi.encodePacked(REPO_APP_NAME))));\n        dao.setApp(dao.APP_BASES_NAMESPACE(), repoAppId, repoBase);\n\n        emit DeployAPM(node, apm);\n\n        // Grant permissions needed for APM on ENSSubdomainRegistrar\n        acl.createPermission(apm, ensSub, ensSub.CREATE_NAME_ROLE(), _root);\n        acl.createPermission(apm, ensSub, ensSub.POINT_ROOTNODE_ROLE(), _root);\n\n        // allow apm to create permissions for Repos in Kernel\n        bytes32 permRole = acl.CREATE_PERMISSIONS_ROLE();\n\n        acl.grantPermission(apm, acl, permRole);\n\n        // Initialize\n        ens.setOwner(node, ensSub);\n        ensSub.initialize(ens, node);\n        apm.initialize(ensSub);\n\n        uint16[3] memory firstVersion;\n        firstVersion[0] = 1;\n\n        acl.createPermission(this, apm, apm.CREATE_REPO_ROLE(), this);\n\n        apm.newRepoWithVersion(APM_APP_NAME, _root, firstVersion, registryBase, b(\"ipfs:apm\"));\n        apm.newRepoWithVersion(ENS_SUB_APP_NAME, _root, firstVersion, ensSubdomainRegistrarBase, b(\"ipfs:enssub\"));\n        apm.newRepoWithVersion(REPO_APP_NAME, _root, firstVersion, repoBase, b(\"ipfs:repo\"));\n\n        configureAPMPermissions(acl, apm, _root);\n\n        // Permission transition to _root\n        acl.setPermissionManager(_root, dao, dao.APP_MANAGER_ROLE());\n        acl.revokePermission(this, acl, permRole);\n        acl.grantPermission(_root, acl, permRole);\n        acl.setPermissionManager(_root, acl, permRole);\n\n        return apm;\n    }\n\n    function b(string memory x) internal pure returns (bytes memory y) {\n        y = bytes(x);\n    }\n\n    // Factory can be subclassed and permissions changed\n    function configureAPMPermissions(ACL _acl, APMRegistry _apm, address _root) internal {\n        _acl.grantPermission(_root, _apm, _apm.CREATE_REPO_ROLE());\n        _acl.setPermissionManager(_root, _apm, _apm.CREATE_REPO_ROLE());\n    }\n}\n",
  "sourcePath": "@aragon/os/contracts/factory/APMRegistryFactory.sol",
  "compiler": {
    "name": "solc",
    "version": "0.4.24+commit.e67f0147.Emscripten.clang"
  },
  "schemaVersion": "2.0.1",
  "updatedAt": "2019-09-05T16:42:58.983Z"
}