{
  "contractName": "AppStorage",
  "abi": [
    {
      "constant": true,
      "inputs": [],
      "name": "kernel",
      "outputs": [
        {
          "name": "",
          "type": "address"
        }
      ],
      "payable": false,
      "stateMutability": "view",
      "type": "function"
    },
    {
      "constant": true,
      "inputs": [],
      "name": "appId",
      "outputs": [
        {
          "name": "",
          "type": "bytes32"
        }
      ],
      "payable": false,
      "stateMutability": "view",
      "type": "function"
    }
  ],
  "bytecode": "0x608060405234801561001057600080fd5b5061013c806100206000396000f30060806040526004361061004b5763ffffffff7c010000000000000000000000000000000000000000000000000000000060003504166380afdea88114610050578063d4aae0c414610077575b600080fd5b34801561005c57600080fd5b506100656100b5565b60408051918252519081900360200190f35b34801561008357600080fd5b5061008c6100e5565b6040805173ffffffffffffffffffffffffffffffffffffffff9092168252519081900360200190f35b60006100e07fd625496217aa6a3453eecb9c3489dc5a53e6c67b444329ea2b2cbc9ff547639b61010c565b905090565b60006100e07f4172f0f7d2289153072b0a6ca36959e0cbe2efc3afe50fc81636caa96338137b5b54905600a165627a7a723058206ac29bb2aa600d684726783c282a13cd2109df87e1b2036799330b13bfd3deed0029",
  "source": "/*\n * SPDX-License-Identitifer:    MIT\n */\n\npragma solidity ^0.4.24;\n\nimport \"../common/UnstructuredStorage.sol\";\nimport \"../kernel/IKernel.sol\";\n\n\ncontract AppStorage {\n    using UnstructuredStorage for bytes32;\n\n    /* Hardcoded constants to save gas\n    bytes32 internal constant KERNEL_POSITION = keccak256(\"aragonOS.appStorage.kernel\");\n    bytes32 internal constant APP_ID_POSITION = keccak256(\"aragonOS.appStorage.appId\");\n    */\n    bytes32 internal constant KERNEL_POSITION = 0x4172f0f7d2289153072b0a6ca36959e0cbe2efc3afe50fc81636caa96338137b;\n    bytes32 internal constant APP_ID_POSITION = 0xd625496217aa6a3453eecb9c3489dc5a53e6c67b444329ea2b2cbc9ff547639b;\n\n    function kernel() public view returns (IKernel) {\n        return IKernel(KERNEL_POSITION.getStorageAddress());\n    }\n\n    function appId() public view returns (bytes32) {\n        return APP_ID_POSITION.getStorageBytes32();\n    }\n\n    function setKernel(IKernel _kernel) internal {\n        KERNEL_POSITION.setStorageAddress(address(_kernel));\n    }\n\n    function setAppId(bytes32 _appId) internal {\n        APP_ID_POSITION.setStorageBytes32(_appId);\n    }\n}\n",
  "sourcePath": "@aragon/os/contracts/apps/AppStorage.sol",
  "compiler": {
    "name": "solc",
    "version": "0.4.24+commit.e67f0147.Emscripten.clang"
  },
  "schemaVersion": "2.0.1",
  "updatedAt": "2019-09-05T16:42:58.975Z"
}