{
  "contractName": "CallsScript",
  "abi": [
    {
      "constant": true,
      "inputs": [],
      "name": "hasInitialized",
      "outputs": [
        {
          "name": "",
          "type": "bool"
        }
      ],
      "payable": false,
      "stateMutability": "view",
      "type": "function"
    },
    {
      "constant": true,
      "inputs": [],
      "name": "getInitializationBlock",
      "outputs": [
        {
          "name": "",
          "type": "uint256"
        }
      ],
      "payable": false,
      "stateMutability": "view",
      "type": "function"
    },
    {
      "constant": true,
      "inputs": [],
      "name": "isPetrified",
      "outputs": [
        {
          "name": "",
          "type": "bool"
        }
      ],
      "payable": false,
      "stateMutability": "view",
      "type": "function"
    },
    {
      "anonymous": false,
      "inputs": [
        {
          "indexed": true,
          "name": "sender",
          "type": "address"
        },
        {
          "indexed": true,
          "name": "src",
          "type": "address"
        },
        {
          "indexed": true,
          "name": "dst",
          "type": "address"
        }
      ],
      "name": "LogScriptCall",
      "type": "event"
    },
    {
      "constant": false,
      "inputs": [
        {
          "name": "_script",
          "type": "bytes"
        },
        {
          "name": "",
          "type": "bytes"
        },
        {
          "name": "_blacklist",
          "type": "address[]"
        }
      ],
      "name": "execScript",
      "outputs": [
        {
          "name": "",
          "type": "bytes"
        }
      ],
      "payable": false,
      "stateMutability": "nonpayable",
      "type": "function"
    },
    {
      "constant": true,
      "inputs": [],
      "name": "executorType",
      "outputs": [
        {
          "name": "",
          "type": "bytes32"
        }
      ],
      "payable": false,
      "stateMutability": "pure",
      "type": "function"
    }
  ],
  "bytecode": "0x608060405261001564010000000061001a810204565b610223565b61002b64010000000061011a810204565b60408051808201909152601881527f494e49545f414c52454144595f494e495449414c495a4544000000000000000060208201529015610103576040517f08c379a00000000000000000000000000000000000000000000000000000000081526004018080602001828103825283818151815260200191508051906020019080838360005b838110156100c85781810151838201526020016100b0565b50505050905090810190601f1680156100f55780820380516001836020036101000a031916815260200191505b509250505060405180910390fd5b50610118600019640100000000610145810204565b565b6000610140600080516020610a7a83398151915264010000000061080c61021b82021704565b905090565b61015664010000000061011a810204565b60408051808201909152601881527f494e49545f414c52454144595f494e495449414c495a45440000000000000000602082015290156101f2576040517f08c379a0000000000000000000000000000000000000000000000000000000008152600401808060200182810382528381815181526020019150805190602001908083836000838110156100c85781810151838201526020016100b0565b50610218600080516020610a7a8339815191528264010000000061081861021f82021704565b50565b5490565b9055565b610848806102326000396000f30060806040526004361061006c5763ffffffff7c01000000000000000000000000000000000000000000000000000000006000350416630803fac08114610071578063279cea351461009a5780638333d9b2146101475780638b3dd7491461016e578063de4796ed14610183575b600080fd5b34801561007d57600080fd5b50610086610198565b604080519115158252519081900360200190f35b3480156100a657600080fd5b506100d260246004803582810192908201359181358083019290820135916044359182019101356101c1565b6040805160208082528351818301528351919283929083019185019080838360005b8381101561010c5781810151838201526020016100f4565b50505050905090810190601f1680156101395780820380516001836020036101000a031916815260200191505b509250505060405180910390f35b34801561015357600080fd5b5061015c6106dc565b60408051918252519081900360200190f35b34801561017a57600080fd5b5061015c610700565b34801561018f57600080fd5b50610086610730565b6000806101a3610700565b905080158015906101bb5750806101b8610761565b10155b91505090565b606060008060008060008060006101d6610198565b60408051808201909152601481527f494e49545f4e4f545f494e495449414c495a454400000000000000000000000060208201529015156102af576040517f08c379a00000000000000000000000000000000000000000000000000000000081526004018080602001828103825283818151815260200191508051906020019080838360005b8381101561027457818101518382015260200161025c565b50505050905090810190601f1680156102a15780820380516001836020036101000a031916815260200191505b509250505060405180910390fd5b50600496505b8c8710156106cb5760408051808201909152601781527f45564d43414c4c535f494e56414c49445f4c454e47544800000000000000000060208201526018888f03101561035e576040517f08c379a00000000000000000000000000000000000000000000000000000000081526004018080602001828103825283818151815260200191508051906020019080838360008381101561027457818101518382015260200161025c565b506103a2878f8f8080601f01602080910402602001604051908101604052809392919081815260200183838082843750949594505063ffffffff6107651692505050565b9550600094505b888510156104b4578989868181106103bd57fe5b9050602002013573ffffffffffffffffffffffffffffffffffffffff1673ffffffffffffffffffffffffffffffffffffffff168673ffffffffffffffffffffffffffffffffffffffff1614156040805190810160405280601981526020017f45564d43414c4c535f424c41434b4c49535445445f43414c4c000000000000008152509015156104a8576040517f08c379a00000000000000000000000000000000000000000000000000000000081526004018080602001828103825283818151815260200191508051906020019080838360008381101561027457818101518382015260200161025c565b506001909401936103a9565b60405173ffffffffffffffffffffffffffffffffffffffff871690309033907f9dcff9d94fbfdb4622d11edb383005f95e78efb446c72d92f8e615c6025c470390600090a461053f876014018f8f8080601f01602080910402602001604051908101604052809392919081815260200183838082843750949594505063ffffffff6107ad1692505050565b63ffffffff169350866014016004019250610593838f8f8080601f01602080910402602001604051908101604052809392919081815260200183838082843750949594505063ffffffff6108051692505050565b60408051808201909152601781527f45564d43414c4c535f494e56414c49445f4c454e475448000000000000000000602082015284860198509092508d881115610639576040517f08c379a00000000000000000000000000000000000000000000000000000000081526004018080602001828103825283818151815260200191508051906020019080838360008381101561027457818101518382015260200161025c565b50600080858460008a6113885a03f19050808015610656576106c5565b6040513d8015610669573d6000833e3d82fd5b7f08c379a000000000000000000000000000000000000000000000000000000000825260206004830152601660248301527f45564d43414c4c535f43414c4c5f5245564552544544000000000000000000006044830152606482fd5b506102b5565b505050505050509695505050505050565b7f2dc858a00f3e417be1394b87c07158e989ec681ce8cc68a9093680ac1a87030290565b600061072b7febb05b386a8d34882b8711d156f463690983dc47815980fb82aeeff1aa43579e61080c565b905090565b60007fffffffffffffffffffffffffffffffffffffffffffffffffffffffffffffffff61075b610700565b14905090565b4390565b6000806107728484610810565b6c010000000000000000000000007fffffffffffffffffffffffffffffffffffffffff00000000000000000000000090911604949350505050565b6000806107ba8484610810565b7c01000000000000000000000000000000000000000000000000000000007fffffffff0000000000000000000000000000000000000000000000000000000090911604949350505050565b0160200190565b5490565b016020015190565b90555600a165627a7a72305820ab9e75a00e63cfcfbd1642fb842561c2da9bc206c48478d9b37a4ec20a9ea6170029ebb05b386a8d34882b8711d156f463690983dc47815980fb82aeeff1aa43579e",
  "source": "pragma solidity 0.4.24;\n\n// Inspired by https://github.com/reverendus/tx-manager\n\nimport \"../ScriptHelpers.sol\";\nimport \"./BaseEVMScriptExecutor.sol\";\n\n\ncontract CallsScript is BaseEVMScriptExecutor {\n    using ScriptHelpers for bytes;\n\n    /* Hardcoded constants to save gas\n    bytes32 internal constant EXECUTOR_TYPE = keccak256(\"CALLS_SCRIPT\");\n    */\n    bytes32 internal constant EXECUTOR_TYPE = 0x2dc858a00f3e417be1394b87c07158e989ec681ce8cc68a9093680ac1a870302;\n\n    string private constant ERROR_BLACKLISTED_CALL = \"EVMCALLS_BLACKLISTED_CALL\";\n    string private constant ERROR_INVALID_LENGTH = \"EVMCALLS_INVALID_LENGTH\";\n\n    /* This is manually crafted in assembly\n    string private constant ERROR_CALL_REVERTED = \"EVMCALLS_CALL_REVERTED\";\n    */\n\n    event LogScriptCall(address indexed sender, address indexed src, address indexed dst);\n\n    /**\n    * @notice Executes a number of call scripts\n    * @param _script [ specId (uint32) ] many calls with this structure ->\n    *    [ to (address: 20 bytes) ] [ calldataLength (uint32: 4 bytes) ] [ calldata (calldataLength bytes) ]\n    * @param _blacklist Addresses the script cannot call to, or will revert.\n    * @return Always returns empty byte array\n    */\n    function execScript(bytes _script, bytes, address[] _blacklist) external isInitialized returns (bytes) {\n        uint256 location = SCRIPT_START_LOCATION; // first 32 bits are spec id\n        while (location < _script.length) {\n            // Check there's at least address + calldataLength available\n            require(_script.length - location >= 0x18, ERROR_INVALID_LENGTH);\n\n            address contractAddress = _script.addressAt(location);\n            // Check address being called is not blacklist\n            for (uint256 i = 0; i < _blacklist.length; i++) {\n                require(contractAddress != _blacklist[i], ERROR_BLACKLISTED_CALL);\n            }\n\n            // logged before execution to ensure event ordering in receipt\n            // if failed entire execution is reverted regardless\n            emit LogScriptCall(msg.sender, address(this), contractAddress);\n\n            uint256 calldataLength = uint256(_script.uint32At(location + 0x14));\n            uint256 startOffset = location + 0x14 + 0x04;\n            uint256 calldataStart = _script.locationOf(startOffset);\n\n            // compute end of script / next location\n            location = startOffset + calldataLength;\n            require(location <= _script.length, ERROR_INVALID_LENGTH);\n\n            bool success;\n            assembly {\n                success := call(\n                    sub(gas, 5000),       // forward gas left - 5000\n                    contractAddress,      // address\n                    0,                    // no value\n                    calldataStart,        // calldata start\n                    calldataLength,       // calldata length\n                    0,                    // don't write output\n                    0                     // don't write output\n                )\n\n                switch success\n                case 0 {\n                    let ptr := mload(0x40)\n\n                    switch returndatasize\n                    case 0 {\n                        // No error data was returned, revert with \"EVMCALLS_CALL_REVERTED\"\n                        // See remix: doing a `revert(\"EVMCALLS_CALL_REVERTED\")` always results in\n                        // this memory layout\n                        mstore(ptr, 0x08c379a000000000000000000000000000000000000000000000000000000000)         // error identifier\n                        mstore(add(ptr, 0x04), 0x0000000000000000000000000000000000000000000000000000000000000020) // starting offset\n                        mstore(add(ptr, 0x24), 0x0000000000000000000000000000000000000000000000000000000000000016) // reason length\n                        mstore(add(ptr, 0x44), 0x45564d43414c4c535f43414c4c5f524556455254454400000000000000000000) // reason\n\n                        revert(ptr, 100) // 100 = 4 + 3 * 32 (error identifier + 3 words for the ABI encoded error)\n                    }\n                    default {\n                        // Forward the full error data\n                        returndatacopy(ptr, 0, returndatasize)\n                        revert(ptr, returndatasize)\n                    }\n                }\n                default { }\n            }\n        }\n        // No need to allocate empty bytes for the return as this can only be called via an delegatecall\n        // (due to the isInitialized modifier)\n    }\n\n    function executorType() external pure returns (bytes32) {\n        return EXECUTOR_TYPE;\n    }\n}\n",
  "sourcePath": "@aragon/os/contracts/evmscript/executors/CallsScript.sol",
  "compiler": {
    "name": "solc",
    "version": "0.4.24+commit.e67f0147.Emscripten.clang"
  },
  "schemaVersion": "2.0.1",
  "updatedAt": "2019-09-05T16:42:58.983Z"
}