{
  "contractName": "EVMScriptRegistry",
  "abi": [
    {
      "constant": true,
      "inputs": [],
      "name": "hasInitialized",
      "outputs": [
        {
          "name": "",
          "type": "bool"
        }
      ],
      "payable": false,
      "stateMutability": "view",
      "type": "function"
    },
    {
      "constant": true,
      "inputs": [],
      "name": "REGISTRY_ADD_EXECUTOR_ROLE",
      "outputs": [
        {
          "name": "",
          "type": "bytes32"
        }
      ],
      "payable": false,
      "stateMutability": "view",
      "type": "function"
    },
    {
      "constant": true,
      "inputs": [
        {
          "name": "_script",
          "type": "bytes"
        }
      ],
      "name": "getEVMScriptExecutor",
      "outputs": [
        {
          "name": "",
          "type": "address"
        }
      ],
      "payable": false,
      "stateMutability": "view",
      "type": "function"
    },
    {
      "constant": true,
      "inputs": [],
      "name": "getRecoveryVault",
      "outputs": [
        {
          "name": "",
          "type": "address"
        }
      ],
      "payable": false,
      "stateMutability": "view",
      "type": "function"
    },
    {
      "constant": true,
      "inputs": [
        {
          "name": "token",
          "type": "address"
        }
      ],
      "name": "allowRecoverability",
      "outputs": [
        {
          "name": "",
          "type": "bool"
        }
      ],
      "payable": false,
      "stateMutability": "view",
      "type": "function"
    },
    {
      "constant": true,
      "inputs": [],
      "name": "appId",
      "outputs": [
        {
          "name": "",
          "type": "bytes32"
        }
      ],
      "payable": false,
      "stateMutability": "view",
      "type": "function"
    },
    {
      "constant": true,
      "inputs": [],
      "name": "getInitializationBlock",
      "outputs": [
        {
          "name": "",
          "type": "uint256"
        }
      ],
      "payable": false,
      "stateMutability": "view",
      "type": "function"
    },
    {
      "constant": false,
      "inputs": [
        {
          "name": "_token",
          "type": "address"
        }
      ],
      "name": "transferToVault",
      "outputs": [],
      "payable": false,
      "stateMutability": "nonpayable",
      "type": "function"
    },
    {
      "constant": true,
      "inputs": [
        {
          "name": "_sender",
          "type": "address"
        },
        {
          "name": "_role",
          "type": "bytes32"
        },
        {
          "name": "_params",
          "type": "uint256[]"
        }
      ],
      "name": "canPerform",
      "outputs": [
        {
          "name": "",
          "type": "bool"
        }
      ],
      "payable": false,
      "stateMutability": "view",
      "type": "function"
    },
    {
      "constant": true,
      "inputs": [],
      "name": "getEVMScriptRegistry",
      "outputs": [
        {
          "name": "",
          "type": "address"
        }
      ],
      "payable": false,
      "stateMutability": "view",
      "type": "function"
    },
    {
      "constant": true,
      "inputs": [],
      "name": "REGISTRY_MANAGER_ROLE",
      "outputs": [
        {
          "name": "",
          "type": "bytes32"
        }
      ],
      "payable": false,
      "stateMutability": "view",
      "type": "function"
    },
    {
      "constant": true,
      "inputs": [],
      "name": "kernel",
      "outputs": [
        {
          "name": "",
          "type": "address"
        }
      ],
      "payable": false,
      "stateMutability": "view",
      "type": "function"
    },
    {
      "constant": true,
      "inputs": [],
      "name": "isPetrified",
      "outputs": [
        {
          "name": "",
          "type": "bool"
        }
      ],
      "payable": false,
      "stateMutability": "view",
      "type": "function"
    },
    {
      "constant": true,
      "inputs": [
        {
          "name": "",
          "type": "uint256"
        }
      ],
      "name": "executors",
      "outputs": [
        {
          "name": "executor",
          "type": "address"
        },
        {
          "name": "enabled",
          "type": "bool"
        }
      ],
      "payable": false,
      "stateMutability": "view",
      "type": "function"
    },
    {
      "anonymous": false,
      "inputs": [
        {
          "indexed": true,
          "name": "executorId",
          "type": "uint256"
        },
        {
          "indexed": true,
          "name": "executorAddress",
          "type": "address"
        }
      ],
      "name": "EnableExecutor",
      "type": "event"
    },
    {
      "anonymous": false,
      "inputs": [
        {
          "indexed": true,
          "name": "executorId",
          "type": "uint256"
        },
        {
          "indexed": true,
          "name": "executorAddress",
          "type": "address"
        }
      ],
      "name": "DisableExecutor",
      "type": "event"
    },
    {
      "anonymous": false,
      "inputs": [
        {
          "indexed": true,
          "name": "executor",
          "type": "address"
        },
        {
          "indexed": false,
          "name": "script",
          "type": "bytes"
        },
        {
          "indexed": false,
          "name": "input",
          "type": "bytes"
        },
        {
          "indexed": false,
          "name": "returnData",
          "type": "bytes"
        }
      ],
      "name": "ScriptResult",
      "type": "event"
    },
    {
      "anonymous": false,
      "inputs": [
        {
          "indexed": true,
          "name": "vault",
          "type": "address"
        },
        {
          "indexed": true,
          "name": "token",
          "type": "address"
        },
        {
          "indexed": false,
          "name": "amount",
          "type": "uint256"
        }
      ],
      "name": "RecoverToVault",
      "type": "event"
    },
    {
      "constant": false,
      "inputs": [],
      "name": "initialize",
      "outputs": [],
      "payable": false,
      "stateMutability": "nonpayable",
      "type": "function"
    },
    {
      "constant": false,
      "inputs": [
        {
          "name": "_executor",
          "type": "address"
        }
      ],
      "name": "addScriptExecutor",
      "outputs": [
        {
          "name": "id",
          "type": "uint256"
        }
      ],
      "payable": false,
      "stateMutability": "nonpayable",
      "type": "function"
    },
    {
      "constant": false,
      "inputs": [
        {
          "name": "_executorId",
          "type": "uint256"
        }
      ],
      "name": "disableScriptExecutor",
      "outputs": [],
      "payable": false,
      "stateMutability": "nonpayable",
      "type": "function"
    },
    {
      "constant": false,
      "inputs": [
        {
          "name": "_executorId",
          "type": "uint256"
        }
      ],
      "name": "enableScriptExecutor",
      "outputs": [],
      "payable": false,
      "stateMutability": "nonpayable",
      "type": "function"
    },
    {
      "constant": true,
      "inputs": [
        {
          "name": "_script",
          "type": "bytes"
        }
      ],
      "name": "getScriptExecutor",
      "outputs": [
        {
          "name": "",
          "type": "address"
        }
      ],
      "payable": false,
      "stateMutability": "view",
      "type": "function"
    }
  ],
  "bytecode": "0x6080604052620000176401000000006200001d810204565b6200023b565b6200003064010000000062000125810204565b60408051808201909152601881527f494e49545f414c52454144595f494e495449414c495a45440000000000000000602082015290156200010c576040517f08c379a00000000000000000000000000000000000000000000000000000000081526004018080602001828103825283818151815260200191508051906020019080838360005b83811015620000d0578181015183820152602001620000b6565b50505050905090810190601f168015620000fe5780820380516001836020036101000a031916815260200191505b509250505060405180910390fd5b506200012360001964010000000062000154810204565b565b60006200014f60008051602062001c4e833981519152640100000000620015f86200023382021704565b905090565b6200016764010000000062000125810204565b60408051808201909152601881527f494e49545f414c52454144595f494e495449414c495a454400000000000000006020820152901562000206576040517f08c379a000000000000000000000000000000000000000000000000000000000815260040180806020018281038252838181518152602001915080519060200190808383600083811015620000d0578181015183820152602001620000b6565b506200023060008051602062001c4e833981519152826401000000006200194c6200023782021704565b50565b5490565b9055565b611a03806200024b6000396000f3006080604052600436106101065763ffffffff7c010000000000000000000000000000000000000000000000000000000060003504166304bf2a7f811461010b5780630803fac01461018d57806319f3d10f146101b65780632914b9bd146101dd57806332f0a3b5146102365780635ca4d4bb1461024b5780637e7db6e11461026557806380afdea8146102935780638129fc1c146102a857806387a16f12146102bd5780638b3dd749146102eb5780639d4941d814610300578063a1658fad1461032e578063a479e508146103a2578063bd8fde1c146103b7578063cff606a0146103cc578063d4aae0c4146103e4578063de4796ed146103f9578063f97a05df1461040e575b600080fd5b34801561011757600080fd5b506040805160206004803580820135601f81018490048402850184019095528484526101649436949293602493928401919081908401838280828437509497506104569650505050505050565b6040805173ffffffffffffffffffffffffffffffffffffffff9092168252519081900360200190f35b34801561019957600080fd5b506101a26105a8565b604080519115158252519081900360200190f35b3480156101c257600080fd5b506101cb6105d1565b60408051918252519081900360200190f35b3480156101e957600080fd5b506040805160206004803580820135601f81018490048402850184019095528484526101649436949293602493928401919081908401838280828437509497506105f59650505050505050565b34801561024257600080fd5b50610164610701565b34801561025757600080fd5b5061026360043561079f565b005b34801561027157600080fd5b506101a273ffffffffffffffffffffffffffffffffffffffff600435166109b3565b34801561029f57600080fd5b506101cb6109b9565b3480156102b457600080fd5b506102636109e9565b3480156102c957600080fd5b506101cb73ffffffffffffffffffffffffffffffffffffffff60043516610a9d565b3480156102f757600080fd5b506101cb610c61565b34801561030c57600080fd5b5061026373ffffffffffffffffffffffffffffffffffffffff60043516610c8c565b34801561033a57600080fd5b5060408051602060046044358181013583810280860185019096528085526101a295833573ffffffffffffffffffffffffffffffffffffffff16956024803596369695606495939492019291829185019084908082843750949750610fae9650505050505050565b3480156103ae57600080fd5b5061016461113e565b3480156103c357600080fd5b506101cb611200565b3480156103d857600080fd5b50610263600435611224565b3480156103f057600080fd5b506101646114ff565b34801561040557600080fd5b506101a261152a565b34801561041a57600080fd5b5061042660043561155b565b6040805173ffffffffffffffffffffffffffffffffffffffff909316835290151560208301528051918290030190f35b60008060006004845110156040805190810160405280601e81526020017f45564d5245475f5343524950545f4c454e4754485f544f4f5f53484f5254000081525090151561053c576040517f08c379a00000000000000000000000000000000000000000000000000000000081526004018080602001828103825283818151815260200191508051906020019080838360005b838110156105015781810151838201526020016104e9565b50505050905090810190601f16801561052e5780820380516001836020036101000a031916815260200191505b509250505060405180910390fd5b50610546846115a0565b63ffffffff1660008181526001602052604090208054919350915074010000000000000000000000000000000000000000900460ff166105875760006105a0565b805473ffffffffffffffffffffffffffffffffffffffff165b949350505050565b6000806105b3610c61565b905080158015906105cb5750806105c86115b3565b10155b91505090565b7fc4e90f38eea8c4212a009ca7b8947943ba4d4a58d19b683417f65291d1cd9ed281565b60006105ff61113e565b73ffffffffffffffffffffffffffffffffffffffff166304bf2a7f836040518263ffffffff167c01000000000000000000000000000000000000000000000000000000000281526004018080602001828103825283818151815260200191508051906020019080838360005b8381101561068357818101518382015260200161066b565b50505050905090810190601f1680156106b05780820380516001836020036101000a031916815260200191505b5092505050602060405180830381600087803b1580156106cf57600080fd5b505af11580156106e3573d6000803e3d6000fd5b505050506040513d60208110156106f957600080fd5b505192915050565b600061070b6114ff565b73ffffffffffffffffffffffffffffffffffffffff166332f0a3b56040518163ffffffff167c0100000000000000000000000000000000000000000000000000000000028152600401602060405180830381600087803b15801561076e57600080fd5b505af1158015610782573d6000803e3d6000fd5b505050506040513d602081101561079857600080fd5b5051905090565b60007ff7a450ef335e1892cb42c8ca72e7242359d7711924b75db5717410da3f614aa36107cb836115b7565b6107d6338383610fae565b60408051808201909152600f81527f4150505f415554485f4641494c454400000000000000000000000000000000006020820152901515610873576040517f08c379a0000000000000000000000000000000000000000000000000000000008152600401808060200182810382528381815181526020019150805190602001908083836000838110156105015781810151838201526020016104e9565b5060008481526001602090815260409182902080548351808501909452601884527f45564d5245475f4558454355544f525f44495341424c4544000000000000000092840192909252945074010000000000000000000000000000000000000000900460ff161515610941576040517f08c379a0000000000000000000000000000000000000000000000000000000008152600401808060200182810382528381815181526020019150805190602001908083836000838110156105015781810151838201526020016104e9565b5082547fffffffffffffffffffffff00ffffffffffffffffffffffffffffffffffffffff8116845560405173ffffffffffffffffffffffffffffffffffffffff9091169085907fc13cd9238f8ab1e5ab1f95cde77e89288fe5c328d04739adffd57b144b408fd190600090a350505050565b50600190565b60006109e47fd625496217aa6a3453eecb9c3489dc5a53e6c67b444329ea2b2cbc9ff547639b6115f8565b905090565b6109f1610c61565b60408051808201909152601881527f494e49545f414c52454144595f494e495449414c495a4544000000000000000060208201529015610a8d576040517f08c379a0000000000000000000000000000000000000000000000000000000008152600401808060200182810382528381815181526020019150805190602001908083836000838110156105015781810151838201526020016104e9565b50610a966115fc565b6001600055565b6040805160008082526020820190925281907fc4e90f38eea8c4212a009ca7b8947943ba4d4a58d19b683417f65291d1cd9ed290610ade9033908390610fae565b60408051808201909152600f81527f4150505f415554485f4641494c454400000000000000000000000000000000006020820152901515610b7b576040517f08c379a0000000000000000000000000000000000000000000000000000000008152600401808060200182810382528381815181526020019150805190602001908083836000838110156105015781810151838201526020016104e9565b50600080546001808201835560408051808201825273ffffffffffffffffffffffffffffffffffffffff808a168083526020808401868152878952959052838720925183549551151574010000000000000000000000000000000000000000027fffffffffffffffffffffff00ffffffffffffffffffffffffffffffffffffffff919093167fffffffffffffffffffffffff00000000000000000000000000000000000000009096169590951794909416179055519194509184917f7697fa3288629310075a63816e294207c84f3cfc18ccf8e18eb917ec0bb566999190a35092915050565b60006109e47febb05b386a8d34882b8711d156f463690983dc47815980fb82aeeff1aa43579e6115f8565b6000806000610c9a846109b3565b60408051808201909152601281527f5245434f5645525f444953414c4c4f57454400000000000000000000000000006020820152901515610d37576040517f08c379a0000000000000000000000000000000000000000000000000000000008152600401808060200182810382528381815181526020019150805190602001908083836000838110156105015781810151838201526020016104e9565b50610d40610701565b9250610d4b836116df565b60408051808201909152601a81527f5245434f5645525f5641554c545f4e4f545f434f4e54524143540000000000006020820152901515610de8576040517f08c379a0000000000000000000000000000000000000000000000000000000008152600401808060200182810382528381815181526020019150805190602001908083836000838110156105015781810151838201526020016104e9565b5073ffffffffffffffffffffffffffffffffffffffff84161515610e53576040513031925073ffffffffffffffffffffffffffffffffffffffff84169083156108fc029084906000818181858888f19350505050158015610e4d573d6000803e3d6000fd5b50610f43565b5082610e7b73ffffffffffffffffffffffffffffffffffffffff82163063ffffffff61171916565b9150610ea473ffffffffffffffffffffffffffffffffffffffff8216848463ffffffff61185216565b60408051808201909152601d81527f5245434f5645525f544f4b454e5f5452414e534645525f4641494c45440000006020820152901515610f41576040517f08c379a0000000000000000000000000000000000000000000000000000000008152600401808060200182810382528381815181526020019150805190602001908083836000838110156105015781810151838201526020016104e9565b505b8373ffffffffffffffffffffffffffffffffffffffff168373ffffffffffffffffffffffffffffffffffffffff167f596caf56044b55fb8c4ca640089bbc2b63cae3e978b851f5745cbb7c5b288e02846040518082815260200191505060405180910390a350505050565b600080610fb96105a8565b1515610fc85760009150611136565b610fd06114ff565b905073ffffffffffffffffffffffffffffffffffffffff81161515610ff85760009150611136565b8073ffffffffffffffffffffffffffffffffffffffff1663fdef9106863087611020886118ea565b6040517c010000000000000000000000000000000000000000000000000000000063ffffffff871602815273ffffffffffffffffffffffffffffffffffffffff808616600483019081529085166024830152604482018490526080606483019081528351608484015283519192909160a490910190602085019080838360005b838110156110b85781810151838201526020016110a0565b50505050905090810190601f1680156110e55780820380516001836020036101000a031916815260200191505b5095505050505050602060405180830381600087803b15801561110757600080fd5b505af115801561111b573d6000803e3d6000fd5b505050506040513d602081101561113157600080fd5b505191505b509392505050565b6000806111496114ff565b604080517fbe00bbd80000000000000000000000000000000000000000000000000000000081527fd6f028ca0e8edb4a8c9757ca4fdccab25fa1e0317da1188108f7d2dee14902fb60048201527fddbcfd564f642ab5627cf68b9b7d374fb4f8a36e941a75d89c87998cef03bd616024820152905173ffffffffffffffffffffffffffffffffffffffff929092169163be00bbd8916044808201926020929091908290030181600087803b1580156106cf57600080fd5b7ff7a450ef335e1892cb42c8ca72e7242359d7711924b75db5717410da3f614aa381565b60007ff7a450ef335e1892cb42c8ca72e7242359d7711924b75db5717410da3f614aa3611250836115b7565b61125b338383610fae565b60408051808201909152600f81527f4150505f415554485f4641494c4544000000000000000000000000000000000060208201529015156112f8576040517f08c379a0000000000000000000000000000000000000000000000000000000008152600401808060200182810382528381815181526020019150805190602001908083836000838110156105015781810151838201526020016104e9565b508360008111801561130b575060005481105b60408051808201909152601a81527f45564d5245475f494e4558495354454e545f4558454355544f5200000000000060208201529015156113a8576040517f08c379a0000000000000000000000000000000000000000000000000000000008152600401808060200182810382528381815181526020019150805190602001908083836000838110156105015781810151838201526020016104e9565b5060008581526001602090815260409182902080548351808501909452601784527f45564d5245475f4558454355544f525f454e41424c454400000000000000000092840192909252955074010000000000000000000000000000000000000000900460ff1615611475576040517f08c379a0000000000000000000000000000000000000000000000000000000008152600401808060200182810382528381815181526020019150805190602001908083836000838110156105015781810151838201526020016104e9565b5083547fffffffffffffffffffffff00ffffffffffffffffffffffffffffffffffffffff16740100000000000000000000000000000000000000001780855560405173ffffffffffffffffffffffffffffffffffffffff9091169086907f7697fa3288629310075a63816e294207c84f3cfc18ccf8e18eb917ec0bb5669990600090a35050505050565b60006109e47f4172f0f7d2289153072b0a6ca36959e0cbe2efc3afe50fc81636caa96338137b6115f8565b60007fffffffffffffffffffffffffffffffffffffffffffffffffffffffffffffffff611555610c61565b14905090565b60016020526000908152604090205473ffffffffffffffffffffffffffffffffffffffff81169074010000000000000000000000000000000000000000900460ff1682565b60006115ad8260006118f4565b92915050565b4390565b60408051600180825281830190925260609160208083019080388339019050509050818160008151811015156115e957fe5b60209081029091010152919050565b5490565b611604610c61565b60408051808201909152601881527f494e49545f414c52454144595f494e495449414c495a45440000000000000000602082015290156116a0576040517f08c379a0000000000000000000000000000000000000000000000000000000008152600401808060200182810382528381815181526020019150805190602001908083836000838110156105015781810151838201526020016104e9565b506116d96116ac6115b3565b7febb05b386a8d34882b8711d156f463690983dc47815980fb82aeeff1aa43579e9063ffffffff61194c16565b565b5490565b60008073ffffffffffffffffffffffffffffffffffffffff831615156117085760009150611713565b823b90506000811191505b50919050565b6040805173ffffffffffffffffffffffffffffffffffffffff83166024808301919091528251808303909101815260449091019091526020810180517bffffffffffffffffffffffffffffffffffffffffffffffffffffffff167f70a082310000000000000000000000000000000000000000000000000000000017905260009081806117a68684611950565b60408051808201909152601c81527f534146455f4552435f32305f42414c414e43455f52455645525445440000000060208201529193509150821515611848576040517f08c379a0000000000000000000000000000000000000000000000000000000008152600401808060200182810382528381815181526020019150805190602001908083836000838110156105015781810151838201526020016104e9565b5095945050505050565b6040805173ffffffffffffffffffffffffffffffffffffffff8416602482015260448082018490528251808303909101815260649091019091526020810180517bffffffffffffffffffffffffffffffffffffffffffffffffffffffff167fa9059cbb000000000000000000000000000000000000000000000000000000001790526000906118e18582611981565b95945050505050565b8051602002815290565b60008061190184846119cf565b7c01000000000000000000000000000000000000000000000000000000007fffffffff0000000000000000000000000000000000000000000000000000000090911604949350505050565b9055565b6000806000806040516020818751602089018a5afa9250600083111561197557805191505b50909590945092505050565b6000806040516020818551602087016000895af160008111156119c5573d80156119b257602081146119bb576119c3565b600193506119c3565b600183511493505b505b5090949350505050565b0160200151905600a165627a7a7230582079959e429032044ca887606d4966d2e5941eda9ca04bb87dabd8d3b0b81b70800029ebb05b386a8d34882b8711d156f463690983dc47815980fb82aeeff1aa43579e",
  "source": "pragma solidity 0.4.24;\n\nimport \"../apps/AragonApp.sol\";\nimport \"./ScriptHelpers.sol\";\nimport \"./IEVMScriptExecutor.sol\";\nimport \"./IEVMScriptRegistry.sol\";\n\n\n/* solium-disable function-order */\n// Allow public initialize() to be first\ncontract EVMScriptRegistry is IEVMScriptRegistry, EVMScriptRegistryConstants, AragonApp {\n    using ScriptHelpers for bytes;\n\n    /* Hardcoded constants to save gas\n    bytes32 public constant REGISTRY_ADD_EXECUTOR_ROLE = keccak256(\"REGISTRY_ADD_EXECUTOR_ROLE\");\n    bytes32 public constant REGISTRY_MANAGER_ROLE = keccak256(\"REGISTRY_MANAGER_ROLE\");\n    */\n    bytes32 public constant REGISTRY_ADD_EXECUTOR_ROLE = 0xc4e90f38eea8c4212a009ca7b8947943ba4d4a58d19b683417f65291d1cd9ed2;\n    // WARN: Manager can censor all votes and the like happening in an org\n    bytes32 public constant REGISTRY_MANAGER_ROLE = 0xf7a450ef335e1892cb42c8ca72e7242359d7711924b75db5717410da3f614aa3;\n\n    uint256 internal constant SCRIPT_START_LOCATION = 4;\n\n    string private constant ERROR_INEXISTENT_EXECUTOR = \"EVMREG_INEXISTENT_EXECUTOR\";\n    string private constant ERROR_EXECUTOR_ENABLED = \"EVMREG_EXECUTOR_ENABLED\";\n    string private constant ERROR_EXECUTOR_DISABLED = \"EVMREG_EXECUTOR_DISABLED\";\n    string private constant ERROR_SCRIPT_LENGTH_TOO_SHORT = \"EVMREG_SCRIPT_LENGTH_TOO_SHORT\";\n\n    struct ExecutorEntry {\n        IEVMScriptExecutor executor;\n        bool enabled;\n    }\n\n    uint256 private executorsNextIndex;\n    mapping (uint256 => ExecutorEntry) public executors;\n\n    event EnableExecutor(uint256 indexed executorId, address indexed executorAddress);\n    event DisableExecutor(uint256 indexed executorId, address indexed executorAddress);\n\n    modifier executorExists(uint256 _executorId) {\n        require(_executorId > 0 && _executorId < executorsNextIndex, ERROR_INEXISTENT_EXECUTOR);\n        _;\n    }\n\n    /**\n    * @notice Initialize the registry\n    */\n    function initialize() public onlyInit {\n        initialized();\n        // Create empty record to begin executor IDs at 1\n        executorsNextIndex = 1;\n    }\n\n    /**\n    * @notice Add a new script executor with address `_executor` to the registry\n    * @param _executor Address of the IEVMScriptExecutor that will be added to the registry\n    * @return id Identifier of the executor in the registry\n    */\n    function addScriptExecutor(IEVMScriptExecutor _executor) external auth(REGISTRY_ADD_EXECUTOR_ROLE) returns (uint256 id) {\n        uint256 executorId = executorsNextIndex++;\n        executors[executorId] = ExecutorEntry(_executor, true);\n        emit EnableExecutor(executorId, _executor);\n        return executorId;\n    }\n\n    /**\n    * @notice Disable script executor with ID `_executorId`\n    * @param _executorId Identifier of the executor in the registry\n    */\n    function disableScriptExecutor(uint256 _executorId)\n        external\n        authP(REGISTRY_MANAGER_ROLE, arr(_executorId))\n    {\n        // Note that we don't need to check for an executor's existence in this case, as only\n        // existing executors can be enabled\n        ExecutorEntry storage executorEntry = executors[_executorId];\n        require(executorEntry.enabled, ERROR_EXECUTOR_DISABLED);\n        executorEntry.enabled = false;\n        emit DisableExecutor(_executorId, executorEntry.executor);\n    }\n\n    /**\n    * @notice Enable script executor with ID `_executorId`\n    * @param _executorId Identifier of the executor in the registry\n    */\n    function enableScriptExecutor(uint256 _executorId)\n        external\n        authP(REGISTRY_MANAGER_ROLE, arr(_executorId))\n        executorExists(_executorId)\n    {\n        ExecutorEntry storage executorEntry = executors[_executorId];\n        require(!executorEntry.enabled, ERROR_EXECUTOR_ENABLED);\n        executorEntry.enabled = true;\n        emit EnableExecutor(_executorId, executorEntry.executor);\n    }\n\n    /**\n    * @dev Get the script executor that can execute a particular script based on its first 4 bytes\n    * @param _script EVMScript being inspected\n    */\n    function getScriptExecutor(bytes _script) public view returns (IEVMScriptExecutor) {\n        require(_script.length >= SCRIPT_START_LOCATION, ERROR_SCRIPT_LENGTH_TOO_SHORT);\n        uint256 id = _script.getSpecId();\n\n        // Note that we don't need to check for an executor's existence in this case, as only\n        // existing executors can be enabled\n        ExecutorEntry storage entry = executors[id];\n        return entry.enabled ? entry.executor : IEVMScriptExecutor(0);\n    }\n}\n",
  "sourcePath": "@aragon/os/contracts/evmscript/EVMScriptRegistry.sol",
  "compiler": {
    "name": "solc",
    "version": "0.4.24+commit.e67f0147.Emscripten.clang"
  },
  "schemaVersion": "2.0.1",
  "updatedAt": "2019-09-05T16:42:58.980Z"
}