{
  "contractName": "MembershipTemplate",
  "abi": [
    {
      "inputs": [
        {
          "name": "_daoFactory",
          "type": "address"
        },
        {
          "name": "_ens",
          "type": "address"
        },
        {
          "name": "_miniMeFactory",
          "type": "address"
        },
        {
          "name": "_aragonID",
          "type": "address"
        }
      ],
      "payable": false,
      "stateMutability": "nonpayable",
      "type": "constructor"
    },
    {
      "anonymous": false,
      "inputs": [
        {
          "indexed": false,
          "name": "dao",
          "type": "address"
        }
      ],
      "name": "DeployDao",
      "type": "event"
    },
    {
      "anonymous": false,
      "inputs": [
        {
          "indexed": false,
          "name": "dao",
          "type": "address"
        }
      ],
      "name": "SetupDao",
      "type": "event"
    },
    {
      "anonymous": false,
      "inputs": [
        {
          "indexed": false,
          "name": "token",
          "type": "address"
        }
      ],
      "name": "DeployToken",
      "type": "event"
    },
    {
      "anonymous": false,
      "inputs": [
        {
          "indexed": false,
          "name": "appProxy",
          "type": "address"
        },
        {
          "indexed": false,
          "name": "appId",
          "type": "bytes32"
        }
      ],
      "name": "InstalledApp",
      "type": "event"
    },
    {
      "constant": false,
      "inputs": [
        {
          "name": "_tokenName",
          "type": "string"
        },
        {
          "name": "_tokenSymbol",
          "type": "string"
        },
        {
          "name": "_id",
          "type": "string"
        },
        {
          "name": "_members",
          "type": "address[]"
        },
        {
          "name": "_votingSettings",
          "type": "uint64[3]"
        },
        {
          "name": "_financePeriod",
          "type": "uint64"
        },
        {
          "name": "_useAgentAsVault",
          "type": "bool"
        }
      ],
      "name": "newTokenAndInstance",
      "outputs": [],
      "payable": false,
      "stateMutability": "nonpayable",
      "type": "function"
    },
    {
      "constant": false,
      "inputs": [
        {
          "name": "_name",
          "type": "string"
        },
        {
          "name": "_symbol",
          "type": "string"
        }
      ],
      "name": "newToken",
      "outputs": [
        {
          "name": "",
          "type": "address"
        }
      ],
      "payable": false,
      "stateMutability": "nonpayable",
      "type": "function"
    },
    {
      "constant": false,
      "inputs": [
        {
          "name": "_id",
          "type": "string"
        },
        {
          "name": "_members",
          "type": "address[]"
        },
        {
          "name": "_votingSettings",
          "type": "uint64[3]"
        },
        {
          "name": "_financePeriod",
          "type": "uint64"
        },
        {
          "name": "_useAgentAsVault",
          "type": "bool"
        },
        {
          "name": "_payrollSettings",
          "type": "uint256[4]"
        }
      ],
      "name": "newInstance",
      "outputs": [],
      "payable": false,
      "stateMutability": "nonpayable",
      "type": "function"
    },
    {
      "constant": false,
      "inputs": [
        {
          "name": "_id",
          "type": "string"
        },
        {
          "name": "_members",
          "type": "address[]"
        },
        {
          "name": "_votingSettings",
          "type": "uint64[3]"
        },
        {
          "name": "_financePeriod",
          "type": "uint64"
        },
        {
          "name": "_useAgentAsVault",
          "type": "bool"
        }
      ],
      "name": "newInstance",
      "outputs": [],
      "payable": false,
      "stateMutability": "nonpayable",
      "type": "function"
    }
  ],
  "bytecode": "0x60806040523480156200001157600080fd5b50604051608080620041f1833981016040908152815160208301519183015160609093015190929083838383620000518364010000000062000261810204565b60408051808201909152601981527f54454d504c4154455f454e535f4e4f545f434f4e54524143540000000000000060208201529015156200012e576040517f08c379a00000000000000000000000000000000000000000000000000000000081526004018080602001828103825283818151815260200191508051906020019080838360005b83811015620000f2578181015183820152602001620000d8565b50505050905090810190601f168015620001205780820380516001836020036101000a031916815260200191505b509250505060405180910390fd5b50620001438464010000000062000261810204565b60408051808201909152601d81527f54454d504c4154455f44414f5f4641435f4e4f545f434f4e54524143540000006020820152901515620001e3576040517f08c379a000000000000000000000000000000000000000000000000000000000815260040180806020018281038252838181518152602001915080519060200190808383600083811015620000f2578181015183820152602001620000d8565b5060008054600160a060020a0319908116600160a060020a03958616179091556003805482169285169290921790915560018054821694841694909417909355600280549093169116179055620002438164010000000062000290810204565b620002578264010000000062000348810204565b50505050620003fe565b600080600160a060020a03831615156200027f57600091506200028a565b823b90506000811191505b50919050565b620002a48164010000000062000261810204565b60408051808201909152601f81527f54454d504c4154455f415241474f4e5f49445f4e4f545f434f4e545241435400602082015290151562000344576040517f08c379a000000000000000000000000000000000000000000000000000000000815260040180806020018281038252838181518152602001915080519060200190808383600083811015620000f2578181015183820152602001620000d8565b5050565b6200035c8164010000000062000261810204565b6040805190810160405280602081526020017f54454d504c4154455f4d494e494d455f4641435f4e4f545f434f4e545241435481525090151562000344576040517f08c379a000000000000000000000000000000000000000000000000000000000815260040180806020018281038252838181518152602001915080519060200190808383600083811015620000f2578181015183820152602001620000d8565b613de3806200040e6000396000f3006080604052600436106100615763ffffffff7c01000000000000000000000000000000000000000000000000000000006000350416634629ffea811461006657806356de03bd1461012657806365914ddc146102215780638a29ac04146102ea575b600080fd5b34801561007257600080fd5b506040805160206004803580820135601f81018490048402850184019095528484526100fd94369492936024939284019190819084018382808284375050604080516020601f89358b018035918201839004830284018301909452808352979a9998810197919650918201945092508291508401838280828437509497506103439650505050505050565b6040805173ffffffffffffffffffffffffffffffffffffffff9092168252519081900360200190f35b34801561013257600080fd5b506040805160206004803580820135601f810184900484028501840190955284845261021f943694929360249392840191908190840183828082843750506040805187358901803560208181028481018201909552818452989b9a9989019892975090820195509350839250850190849080828437505060408051606081810190925295989796818101969550935060039250849150839080828437505060408051608080820183529598873567ffffffffffffffff16986020890135151598919790965060c0820195509193509091019060049083908390808284375093965061036595505050505050565b005b34801561022d57600080fd5b506040805160206004803580820135601f810184900484028501840190955284845261021f943694929360249392840191908190840183828082843750506040805187358901803560208181028481018201909552818452989b9a9989019892975090820195509350839250850190849080828437505060408051606081810190925295989796818101969550935060039250849150839080828437509396505067ffffffffffffffff84351694505050506020013515156103d5565b3480156102f657600080fd5b5061021f6024600480358281019290820135918135808301929082013591604435808301929082013591606435918201910135608467ffffffffffffffff60e43516610104351515610436565b60008061035284846000610537565b905061035e8133610815565b9392505050565b6000806000806103748a61086a565b61037f89898761090e565b610387610952565b9350935061039984848b8b8b8b610b7a565b915091506103aa8484848489610c20565b6103b5838383610c89565b6103bf8482610dcd565b6103c98a85610dd8565b50505050505050505050565b6000806000806103e48961086a565b6103ee888861105a565b6103f6610952565b9350935061040884848a8a8a8a610b7a565b91509150610417838383610c89565b6104218482610dcd565b61042b8985610dd8565b505050505050505050565b6104a28b8b8080601f0160208091040260200160405190810160405280939291908181526020018383808284378201915050505050508a8a8080601f01602080910402602001604051908101604052809392919081815260200183838082843750610343945050505050565b5061052a87878080601f0160208091040260200160405190810160405280939291908181526020018383808284375050604080516020808d0282810182019093528c82529095508c94508b9350839250850190849080828437505060408051606081810190925294508a935060039250849150839080828437820191505050505085856103d5565b5050505050505050505050565b6002546040805180820190915260208082527f54454d504c4154455f4d494e494d455f4641435f4e4f545f50524f56494445449082015260009182919073ffffffffffffffffffffffffffffffffffffffff16151561062e576040517f08c379a00000000000000000000000000000000000000000000000000000000081526004018080602001828103825283818151815260200191508051906020019080838360005b838110156105f35781810151838201526020016105db565b50505050905090810190601f1680156106205780820380516001836020036101000a031916815260200191505b509250505060405180910390fd5b506002546040517f5b7b72c10000000000000000000000000000000000000000000000000000000081526000600482018181526024830182905260ff87166064840152600160a4840181905260c0604485019081528a5160c48601528a5173ffffffffffffffffffffffffffffffffffffffff90961695635b7b72c19585948d948c948e9491939091608482019160e4019060208901908083838d5b838110156106e25781810151838201526020016106ca565b50505050905090810190601f16801561070f5780820380516001836020036101000a031916815260200191505b50838103825285518152855160209182019187019080838360005b8381101561074257818101518382015260200161072a565b50505050905090810190601f16801561076f5780820380516001836020036101000a031916815260200191505b5098505050505050505050602060405180830381600087803b15801561079457600080fd5b505af11580156107a8573d6000803e3d6000fd5b505050506040513d60208110156107be57600080fd5b50516040805173ffffffffffffffffffffffffffffffffffffffff8316815290519192507fd18525bc6595a90cc21e9fbd517ada6fc07a7e87b7d2cdb6ee9284c450ebffa4919081900360200190a1949350505050565b73ffffffffffffffffffffffffffffffffffffffff90811660009081526004602052604090208054919092167fffffffffffffffffffffffff0000000000000000000000000000000000000000909116179055565b805160408051808201909152601381527f54454d504c4154455f494e56414c49445f49440000000000000000000000000060208201529060001061090a576040517f08c379a0000000000000000000000000000000000000000000000000000000008152600401808060200182810382528381815181526020019150805190602001908083836000838110156105f35781810151838201526020016105db565b5050565b610918838361105a565b60408051808201909152601f81527f4d454d424552534849505f4241445f504159524f4c4c5f53455454494e475300602082015250505050565b600154604080517f216874440000000000000000000000000000000000000000000000000000000081523060048201529051600092839273ffffffffffffffffffffffffffffffffffffffff9091169163216874449160248082019260209290919082900301818787803b1580156109c957600080fd5b505af11580156109dd573d6000803e3d6000fd5b505050506040513d60208110156109f357600080fd5b50516040805173ffffffffffffffffffffffffffffffffffffffff8316815290519193507f0b13a9ab90735191cd544fd95ba68d1385144561cbdeb8acb8035de9a86432f5919081900360200190a18173ffffffffffffffffffffffffffffffffffffffff1663de2873596040518163ffffffff167c0100000000000000000000000000000000000000000000000000000000028152600401602060405180830381600087803b158015610aa657600080fd5b505af1158015610aba573d6000803e3d6000fd5b505050506040513d6020811015610ad057600080fd5b5051604080517f8ea8dc9d0000000000000000000000000000000000000000000000000000000081529051919250610b76918391859173ffffffffffffffffffffffffffffffffffffffff831691638ea8dc9d9160048083019260209291908290030181600087803b158015610b4557600080fd5b505af1158015610b59573d6000803e3d6000fd5b505050506040513d6020811015610b6f57600080fd5b5051611134565b9091565b6000806000806000806000610b8e336111bc565b945087610ba357610b9e8d6112dd565b610bac565b610bac8d611362565b9350610bd38d8567ffffffffffffffff8c1615610bc9578b610bce565b62278d005b611499565b9250610be38d866000600161155e565b9150610bf08d868c6116e2565b9050610bff8c838d6001611708565b610c0d8c858386868d6118ff565b919c919b50909950505050505050505050565b600080600080600080610c3287611959565b9298509096509450925073ffffffffffffffffffffffffffffffffffffffff831615610c5e5782610c60565b875b9150610c6f8b8a8888886119a3565b9050610c7e8a82848b8c611a7a565b61052a8a8a836124be565b8273ffffffffffffffffffffffffffffffffffffffff1663afd925df82848573ffffffffffffffffffffffffffffffffffffffff16630842ace46040518163ffffffff167c0100000000000000000000000000000000000000000000000000000000028152600401602060405180830381600087803b158015610d0b57600080fd5b505af1158015610d1f573d6000803e3d6000fd5b505050506040513d6020811015610d3557600080fd5b5051604080517c010000000000000000000000000000000000000000000000000000000063ffffffff871602815273ffffffffffffffffffffffffffffffffffffffff948516600482015292909316602483015260448201529051606480830192600092919082900301818387803b158015610db057600080fd5b505af1158015610dc4573d6000803e3d6000fd5b50505050505050565b61090a828283612540565b60035460408051808201909152601f81527f54454d504c4154455f415241474f4e5f49445f4e4f545f50524f56494445440060208201529073ffffffffffffffffffffffffffffffffffffffff161515610e8e576040517f08c379a0000000000000000000000000000000000000000000000000000000008152600401808060200182810382528381815181526020019150805190602001908083836000838110156105f35781810151838201526020016105db565b50600354604051835173ffffffffffffffffffffffffffffffffffffffff9092169163d22057a99185916020918201918291908401908083835b60208310610f0557805182527fffffffffffffffffffffffffffffffffffffffffffffffffffffffffffffffe09092019160209182019101610ec8565b6001836020036101000a0380198251168184511680821785525050505050509050019150506040516020818303038152906040526040518082805190602001908083835b60208310610f8657805182527fffffffffffffffffffffffffffffffffffffffffffffffffffffffffffffffe09092019160209182019101610f49565b5181516020939093036101000a7fffffffffffffffffffffffffffffffffffffffffffffffffffffffffffffffff01801990911692169190911790526040805191909301819003812063ffffffff87167c0100000000000000000000000000000000000000000000000000000000028252600482015273ffffffffffffffffffffffffffffffffffffffff88166024820152915160448084019550600094509092839003019050818387803b15801561103e57600080fd5b505af1158015611052573d6000803e3d6000fd5b505050505050565b815160408051808201909152601a81527f4d454d424552534849505f4d495353494e475f4d454d424552530000000000006020820152906000106110fa576040517f08c379a0000000000000000000000000000000000000000000000000000000008152600401808060200182810382528381815181526020019150805190602001908083836000838110156105f35781810151838201526020016105db565b5060408051808201909152601c81527f4d454d424552534849505f4241445f564f54455f53455454494e4753000000006020820152505050565b604080517fbe038478000000000000000000000000000000000000000000000000000000008152306004820181905273ffffffffffffffffffffffffffffffffffffffff858116602484015260448301859052606483019190915291519185169163be0384789160848082019260009290919082900301818387803b158015610db057600080fd5b73ffffffffffffffffffffffffffffffffffffffff8181166000908152600460209081526040808320548151808301909252601c82527f54454d504c4154455f4d495353494e475f544f4b454e5f434143484500000000928201929092529192839291161515611288576040517f08c379a0000000000000000000000000000000000000000000000000000000008152600401808060200182810382528381815181526020019150805190602001908083836000838110156105f35781810151838201526020016105db565b50505073ffffffffffffffffffffffffffffffffffffffff908116600090815260046020526040902080547fffffffffffffffffffffffff000000000000000000000000000000000000000081169091551690565b6040805160048152602481019091526020810180517bffffffffffffffffffffffffffffffffffffffffffffffffffffffff167f8129fc1c0000000000000000000000000000000000000000000000000000000017905260009061035e837f7e852e0fcfce6551c13800f1e7476f982525c2b5277ba14b24339c68416336d183612733565b6040805160048152602481019091526020810180517bffffffffffffffffffffffffffffffffffffffffffffffffffffffff167f8129fc1c00000000000000000000000000000000000000000000000000000000179052600090816113e8847f9ac98dc5f995bf0211ed589ef022719d1487e5cb2bab505676f0d084c07cf89a84612733565b604080517f8c61757d0000000000000000000000000000000000000000000000000000000081527f9ac98dc5f995bf0211ed589ef022719d1487e5cb2bab505676f0d084c07cf89a6004820152905191925073ffffffffffffffffffffffffffffffffffffffff861691638c61757d9160248082019260009290919082900301818387803b15801561147957600080fd5b505af115801561148d573d6000803e3d6000fd5b50929695505050505050565b6040805173ffffffffffffffffffffffffffffffffffffffff8416602482015267ffffffffffffffff83166044808301919091528251808303909101815260649091019091526020810180517bffffffffffffffffffffffffffffffffffffffffffffffffffffffff167f1798de8100000000000000000000000000000000000000000000000000000000179052600090611555857fbf8491150dafc5dcaee5b861414dca922de09ccffa344964ae167212e8c673ae83612742565b95945050505050565b60008061158b867f6b20a3010614eeebf2138ccec99f028a61c811b3b1a3343b6ff635985c75c91f612751565b90508473ffffffffffffffffffffffffffffffffffffffff16633cebb823826040518263ffffffff167c0100000000000000000000000000000000000000000000000000000000028152600401808273ffffffffffffffffffffffffffffffffffffffff1673ffffffffffffffffffffffffffffffffffffffff168152602001915050600060405180830381600087803b15801561162857600080fd5b505af115801561163c573d6000803e3d6000fd5b5050604080517fe37ff29f00000000000000000000000000000000000000000000000000000000815273ffffffffffffffffffffffffffffffffffffffff89811660048301528815156024830152604482018890529151918516935063e37ff29f925060648082019260009290919082900301818387803b1580156116c057600080fd5b505af11580156116d4573d6000803e3d6000fd5b509298975050505050505050565b8051602082015160408301516000926117009287928792919061276e565b949350505050565b600061177385858673ffffffffffffffffffffffffffffffffffffffff1663e9a9c8506040518163ffffffff167c0100000000000000000000000000000000000000000000000000000000028152600401602060405180830381600087803b158015610b4557600080fd5b5060005b825181101561185e578373ffffffffffffffffffffffffffffffffffffffff166340c10f1984838151811015156117aa57fe5b90602001906020020151846040518363ffffffff167c0100000000000000000000000000000000000000000000000000000000028152600401808373ffffffffffffffffffffffffffffffffffffffff1673ffffffffffffffffffffffffffffffffffffffff16815260200182815260200192505050600060405180830381600087803b15801561183a57600080fd5b505af115801561184e573d6000803e3d6000fd5b5050600190920191506117779050565b6118f885858673ffffffffffffffffffffffffffffffffffffffff1663e9a9c8506040518163ffffffff167c0100000000000000000000000000000000000000000000000000000000028152600401602060405180830381600087803b1580156118c757600080fd5b505af11580156118db573d6000803e3d6000fd5b505050506040513d60208110156118f157600080fd5b505161283a565b5050505050565b80156119115761191186868687612948565b61191d86868587612be0565b61192986848687612c62565b61193586848630612e2d565b611940868586612eaf565b61194d86858685886131b3565b611052868386876134c7565b600080808061196e85825b6020020151613692565b935061197b856001611964565b925061198d8560026020020151613776565b915061199a856003611964565b90509193509193565b6040805173ffffffffffffffffffffffffffffffffffffffff868116602483015285811660448301528416606482015267ffffffffffffffff83166084808301919091528251808303909101815260a49091019091526020810180517bffffffffffffffffffffffffffffffffffffffffffffffffffffffff167f3fe3f1cf00000000000000000000000000000000000000000000000000000000179052600090611a6f877f463f596a96d808cb28b5d080181e4a398bc793df2c222f6445189eb80100199183612742565b979650505050505050565b8473ffffffffffffffffffffffffffffffffffffffff1663be03847884868773ffffffffffffffffffffffffffffffffffffffff166335285a0f6040518163ffffffff167c0100000000000000000000000000000000000000000000000000000000028152600401602060405180830381600087803b158015611afc57600080fd5b505af1158015611b10573d6000803e3d6000fd5b505050506040513d6020811015611b2657600080fd5b5051604080517c010000000000000000000000000000000000000000000000000000000063ffffffff871602815273ffffffffffffffffffffffffffffffffffffffff94851660048201529284166024840152604483019190915291851660648201529051608480830192600092919082900301818387803b158015611bab57600080fd5b505af1158015611bbf573d6000803e3d6000fd5b505050508473ffffffffffffffffffffffffffffffffffffffff1663be03847884868773ffffffffffffffffffffffffffffffffffffffff1663bf510ff46040518163ffffffff167c0100000000000000000000000000000000000000000000000000000000028152600401602060405180830381600087803b158015611c4557600080fd5b505af1158015611c59573d6000803e3d6000fd5b505050506040513d6020811015611c6f57600080fd5b5051604080517c010000000000000000000000000000000000000000000000000000000063ffffffff871602815273ffffffffffffffffffffffffffffffffffffffff94851660048201529284166024840152604483019190915291851660648201529051608480830192600092919082900301818387803b158015611cf457600080fd5b505af1158015611d08573d6000803e3d6000fd5b505050508473ffffffffffffffffffffffffffffffffffffffff1663be03847884868773ffffffffffffffffffffffffffffffffffffffff166388ea92476040518163ffffffff167c0100000000000000000000000000000000000000000000000000000000028152600401602060405180830381600087803b158015611d8e57600080fd5b505af1158015611da2573d6000803e3d6000fd5b505050506040513d6020811015611db857600080fd5b5051604080517c010000000000000000000000000000000000000000000000000000000063ffffffff871602815273ffffffffffffffffffffffffffffffffffffffff94851660048201529284166024840152604483019190915291851660648201529051608480830192600092919082900301818387803b158015611e3d57600080fd5b505af1158015611e51573d6000803e3d6000fd5b505050508473ffffffffffffffffffffffffffffffffffffffff1663be03847884868773ffffffffffffffffffffffffffffffffffffffff16637100650e6040518163ffffffff167c0100000000000000000000000000000000000000000000000000000000028152600401602060405180830381600087803b158015611ed757600080fd5b505af1158015611eeb573d6000803e3d6000fd5b505050506040513d6020811015611f0157600080fd5b5051604080517c010000000000000000000000000000000000000000000000000000000063ffffffff871602815273ffffffffffffffffffffffffffffffffffffffff94851660048201529284166024840152604483019190915291851660648201529051608480830192600092919082900301818387803b158015611f8657600080fd5b505af1158015611f9a573d6000803e3d6000fd5b505050508473ffffffffffffffffffffffffffffffffffffffff1663be03847884868773ffffffffffffffffffffffffffffffffffffffff1663456fbfea6040518163ffffffff167c0100000000000000000000000000000000000000000000000000000000028152600401602060405180830381600087803b15801561202057600080fd5b505af1158015612034573d6000803e3d6000fd5b505050506040513d602081101561204a57600080fd5b5051604080517c010000000000000000000000000000000000000000000000000000000063ffffffff871602815273ffffffffffffffffffffffffffffffffffffffff94851660048201529284166024840152604483019190915291851660648201529051608480830192600092919082900301818387803b1580156120cf57600080fd5b505af11580156120e3573d6000803e3d6000fd5b505050508473ffffffffffffffffffffffffffffffffffffffff1663be03847883868773ffffffffffffffffffffffffffffffffffffffff1663595da7296040518163ffffffff167c0100000000000000000000000000000000000000000000000000000000028152600401602060405180830381600087803b15801561216957600080fd5b505af115801561217d573d6000803e3d6000fd5b505050506040513d602081101561219357600080fd5b5051604080517c010000000000000000000000000000000000000000000000000000000063ffffffff871602815273ffffffffffffffffffffffffffffffffffffffff94851660048201529284166024840152604483019190915291851660648201529051608480830192600092919082900301818387803b15801561221857600080fd5b505af115801561222c573d6000803e3d6000fd5b505050508473ffffffffffffffffffffffffffffffffffffffff1663be03847883868773ffffffffffffffffffffffffffffffffffffffff16632ee235ef6040518163ffffffff167c0100000000000000000000000000000000000000000000000000000000028152600401602060405180830381600087803b1580156122b257600080fd5b505af11580156122c6573d6000803e3d6000fd5b505050506040513d60208110156122dc57600080fd5b5051604080517c010000000000000000000000000000000000000000000000000000000063ffffffff871602815273ffffffffffffffffffffffffffffffffffffffff94851660048201529284166024840152604483019190915291851660648201529051608480830192600092919082900301818387803b15801561236157600080fd5b505af1158015612375573d6000803e3d6000fd5b505050508473ffffffffffffffffffffffffffffffffffffffff1663be03847883868773ffffffffffffffffffffffffffffffffffffffff16631bb440b16040518163ffffffff167c0100000000000000000000000000000000000000000000000000000000028152600401602060405180830381600087803b1580156123fb57600080fd5b505af115801561240f573d6000803e3d6000fd5b505050506040513d602081101561242557600080fd5b5051604080517c010000000000000000000000000000000000000000000000000000000063ffffffff871602815273ffffffffffffffffffffffffffffffffffffffff94851660048201529284166024840152604483019190915291851660648201529051608480830192600092919082900301818387803b1580156124aa57600080fd5b505af115801561042b573d6000803e3d6000fd5b8273ffffffffffffffffffffffffffffffffffffffff16630a8ed3db82848573ffffffffffffffffffffffffffffffffffffffff16630842ace46040518163ffffffff167c0100000000000000000000000000000000000000000000000000000000028152600401602060405180830381600087803b158015610d0b57600080fd5b60008373ffffffffffffffffffffffffffffffffffffffff1663de2873596040518163ffffffff167c0100000000000000000000000000000000000000000000000000000000028152600401602060405180830381600087803b1580156125a657600080fd5b505af11580156125ba573d6000803e3d6000fd5b505050506040513d60208110156125d057600080fd5b5051604080517f8ea8dc9d000000000000000000000000000000000000000000000000000000008152905191925061267a9183918791879173ffffffffffffffffffffffffffffffffffffffff841691638ea8dc9d916004808201926020929091908290030181600087803b15801561264857600080fd5b505af115801561265c573d6000803e3d6000fd5b505050506040513d602081101561267257600080fd5b50518661381f565b6126e48182858473ffffffffffffffffffffffffffffffffffffffff16633d6ab68f6040518163ffffffff167c0100000000000000000000000000000000000000000000000000000000028152600401602060405180830381600087803b15801561264857600080fd5b6040805173ffffffffffffffffffffffffffffffffffffffff8616815290517f17592627a66846ce06d92a1708275bc653b2a3f34aec855584b819872a8ba4139181900360200190a150505050565b600061170084848460016139cd565b600061170084848460006139cd565b6040805160008082526020820190925261035e9084908490612742565b6040805173ffffffffffffffffffffffffffffffffffffffff8616602482015267ffffffffffffffff8086166044830152808516606483015283166084808301919091528251808303909101815260a49091019091526020810180517bffffffffffffffffffffffffffffffffffffffffffffffffffffffff167fdf3d330500000000000000000000000000000000000000000000000000000000179052600090611a6f877f9fa3927f639745e587912d4b0fea7ef9013bf93fb907d29faeab57417ba6e1d483612742565b604080517f9d0effdb00000000000000000000000000000000000000000000000000000000815230600482015273ffffffffffffffffffffffffffffffffffffffff848116602483015260448201849052915191851691639d0effdb9160648082019260009290919082900301818387803b1580156128b857600080fd5b505af11580156128cc573d6000803e3d6000fd5b5050604080517fa885508a00000000000000000000000000000000000000000000000000000000815273ffffffffffffffffffffffffffffffffffffffff8681166004830152602482018690529151918716935063a885508a925060448082019260009290919082900301818387803b158015610db057600080fd5b8373ffffffffffffffffffffffffffffffffffffffff1663be03847883858673ffffffffffffffffffffffffffffffffffffffff16635fa5e4e66040518163ffffffff167c0100000000000000000000000000000000000000000000000000000000028152600401602060405180830381600087803b1580156129ca57600080fd5b505af11580156129de573d6000803e3d6000fd5b505050506040513d60208110156129f457600080fd5b5051604080517c010000000000000000000000000000000000000000000000000000000063ffffffff871602815273ffffffffffffffffffffffffffffffffffffffff94851660048201529284166024840152604483019190915291851660648201529051608480830192600092919082900301818387803b158015612a7957600080fd5b505af1158015612a8d573d6000803e3d6000fd5b505050508373ffffffffffffffffffffffffffffffffffffffff1663be03847883858673ffffffffffffffffffffffffffffffffffffffff1663368c3c346040518163ffffffff167c0100000000000000000000000000000000000000000000000000000000028152600401602060405180830381600087803b158015612b1357600080fd5b505af1158015612b27573d6000803e3d6000fd5b505050506040513d6020811015612b3d57600080fd5b5051604080517c010000000000000000000000000000000000000000000000000000000063ffffffff871602815273ffffffffffffffffffffffffffffffffffffffff94851660048201529284166024840152604483019190915291851660648201529051608480830192600092919082900301818387803b158015612bc257600080fd5b505af1158015612bd6573d6000803e3d6000fd5b5050505050505050565b8373ffffffffffffffffffffffffffffffffffffffff1663be03847883858673ffffffffffffffffffffffffffffffffffffffff1663206b60f96040518163ffffffff167c0100000000000000000000000000000000000000000000000000000000028152600401602060405180830381600087803b158015612b1357600080fd5b8373ffffffffffffffffffffffffffffffffffffffff1663be03847883858673ffffffffffffffffffffffffffffffffffffffff1663981cc3426040518163ffffffff167c0100000000000000000000000000000000000000000000000000000000028152600401602060405180830381600087803b158015612ce457600080fd5b505af1158015612cf8573d6000803e3d6000fd5b505050506040513d6020811015612d0e57600080fd5b5051604080517c010000000000000000000000000000000000000000000000000000000063ffffffff871602815273ffffffffffffffffffffffffffffffffffffffff94851660048201529284166024840152604483019190915291851660648201529051608480830192600092919082900301818387803b158015612d9357600080fd5b505af1158015612da7573d6000803e3d6000fd5b505050508373ffffffffffffffffffffffffffffffffffffffff1663be03847883858673ffffffffffffffffffffffffffffffffffffffff1663e94ebac56040518163ffffffff167c0100000000000000000000000000000000000000000000000000000000028152600401602060405180830381600087803b158015612b1357600080fd5b8373ffffffffffffffffffffffffffffffffffffffff1663be03847883858673ffffffffffffffffffffffffffffffffffffffff16630842ace46040518163ffffffff167c0100000000000000000000000000000000000000000000000000000000028152600401602060405180830381600087803b158015612b1357600080fd5b60008373ffffffffffffffffffffffffffffffffffffffff1663a479e5086040518163ffffffff167c0100000000000000000000000000000000000000000000000000000000028152600401602060405180830381600087803b158015612f1557600080fd5b505af1158015612f29573d6000803e3d6000fd5b505050506040513d6020811015612f3f57600080fd5b5051604080517fbd8fde1c000000000000000000000000000000000000000000000000000000008152905191925073ffffffffffffffffffffffffffffffffffffffff8087169263be03847892879286929083169163bd8fde1c9160048083019260209291908290030181600087803b158015612fbb57600080fd5b505af1158015612fcf573d6000803e3d6000fd5b505050506040513d6020811015612fe557600080fd5b5051604080517c010000000000000000000000000000000000000000000000000000000063ffffffff871602815273ffffffffffffffffffffffffffffffffffffffff94851660048201529284166024840152604483019190915291861660648201529051608480830192600092919082900301818387803b15801561306a57600080fd5b505af115801561307e573d6000803e3d6000fd5b505050508373ffffffffffffffffffffffffffffffffffffffff1663be03847884838473ffffffffffffffffffffffffffffffffffffffff166319f3d10f6040518163ffffffff167c0100000000000000000000000000000000000000000000000000000000028152600401602060405180830381600087803b15801561310457600080fd5b505af1158015613118573d6000803e3d6000fd5b505050506040513d602081101561312e57600080fd5b5051604080517c010000000000000000000000000000000000000000000000000000000063ffffffff871602815273ffffffffffffffffffffffffffffffffffffffff94851660048201529284166024840152604483019190915291861660648201529051608480830192600092919082900301818387803b158015612bc257600080fd5b8473ffffffffffffffffffffffffffffffffffffffff1663be03847884868773ffffffffffffffffffffffffffffffffffffffff16633c624c756040518163ffffffff167c0100000000000000000000000000000000000000000000000000000000028152600401602060405180830381600087803b15801561323557600080fd5b505af1158015613249573d6000803e3d6000fd5b505050506040513d602081101561325f57600080fd5b5051604080517c010000000000000000000000000000000000000000000000000000000063ffffffff871602815273ffffffffffffffffffffffffffffffffffffffff94851660048201529284166024840152604483019190915291851660648201529051608480830192600092919082900301818387803b1580156132e457600080fd5b505af11580156132f8573d6000803e3d6000fd5b505050508473ffffffffffffffffffffffffffffffffffffffff1663be03847884868773ffffffffffffffffffffffffffffffffffffffff166362de7e5a6040518163ffffffff167c0100000000000000000000000000000000000000000000000000000000028152600401602060405180830381600087803b15801561337e57600080fd5b505af1158015613392573d6000803e3d6000fd5b505050506040513d60208110156133a857600080fd5b5051604080517c010000000000000000000000000000000000000000000000000000000063ffffffff871602815273ffffffffffffffffffffffffffffffffffffffff94851660048201529284166024840152604483019190915291851660648201529051608480830192600092919082900301818387803b15801561342d57600080fd5b505af1158015613441573d6000803e3d6000fd5b505050508473ffffffffffffffffffffffffffffffffffffffff1663be03847883868773ffffffffffffffffffffffffffffffffffffffff1663be2c64d46040518163ffffffff167c0100000000000000000000000000000000000000000000000000000000028152600401602060405180830381600087803b1580156123fb57600080fd5b8373ffffffffffffffffffffffffffffffffffffffff1663be03847883858673ffffffffffffffffffffffffffffffffffffffff1663e9a9c8506040518163ffffffff167c0100000000000000000000000000000000000000000000000000000000028152600401602060405180830381600087803b15801561354957600080fd5b505af115801561355d573d6000803e3d6000fd5b505050506040513d602081101561357357600080fd5b5051604080517c010000000000000000000000000000000000000000000000000000000063ffffffff871602815273ffffffffffffffffffffffffffffffffffffffff94851660048201529284166024840152604483019190915291851660648201529051608480830192600092919082900301818387803b1580156135f857600080fd5b505af115801561360c573d6000803e3d6000fd5b505050508373ffffffffffffffffffffffffffffffffffffffff1663be03847883858673ffffffffffffffffffffffffffffffffffffffff1663b930908f6040518163ffffffff167c0100000000000000000000000000000000000000000000000000000000028152600401602060405180830381600087803b158015612b1357600080fd5b60408051606081018252602581527f54454d504c4154455f43414e4e4f545f434153545f56414c55455f544f5f414460208201527f44524553530000000000000000000000000000000000000000000000000000009181019190915260009073ffffffffffffffffffffffffffffffffffffffff83111561376f576040517f08c379a0000000000000000000000000000000000000000000000000000000008152600401808060200182810382528381815181526020019150805190602001908083836000838110156105f35781810151838201526020016105db565b5090919050565b60408051808201909152601581527f55494e5436345f4e554d4245525f544f4f5f4249470000000000000000000000602082015260009067ffffffffffffffff83111561376f576040517f08c379a0000000000000000000000000000000000000000000000000000000008152600401808060200182810382528381815181526020019150805190602001908083836000838110156105f35781810151838201526020016105db565b604080517f0a8ed3db00000000000000000000000000000000000000000000000000000000815273ffffffffffffffffffffffffffffffffffffffff8581166004830152868116602483015260448201859052915191871691630a8ed3db9160648082019260009290919082900301818387803b15801561389f57600080fd5b505af11580156138b3573d6000803e3d6000fd5b5050604080517f9d0effdb00000000000000000000000000000000000000000000000000000000815230600482015273ffffffffffffffffffffffffffffffffffffffff88811660248301526044820187905291519189169350639d0effdb925060648082019260009290919082900301818387803b15801561393557600080fd5b505af1158015613949573d6000803e3d6000fd5b5050604080517fafd925df00000000000000000000000000000000000000000000000000000000815273ffffffffffffffffffffffffffffffffffffffff85811660048301528881166024830152604482018790529151918916935063afd925df925060648082019260009290919082900301818387803b1580156124aa57600080fd5b60008060006139db86613b54565b6040517f397edd410000000000000000000000000000000000000000000000000000000081526004810188815273ffffffffffffffffffffffffffffffffffffffff80841660248401528715156064840152608060448401908152895160848501528951949650908b169363397edd41938b9388938c938c9360a40190602086019080838360005b83811015613a7b578181015183820152602001613a63565b50505050905090810190601f168015613aa85780820380516001836020036101000a031916815260200191505b5095505050505050602060405180830381600087803b158015613aca57600080fd5b505af1158015613ade573d6000803e3d6000fd5b505050506040513d6020811015613af457600080fd5b50516040805173ffffffffffffffffffffffffffffffffffffffff831681526020810189905281519293507f2b183a501d4b1bbd30e6611ebac40ab18a00390e6c6bed324bf92a265c9ce6e3929081900390910190a19695505050505050565b60008054604080517f0178b8bf000000000000000000000000000000000000000000000000000000008152600481018590529051839273ffffffffffffffffffffffffffffffffffffffff1691630178b8bf91602480830192602092919082900301818787803b158015613bc757600080fd5b505af1158015613bdb573d6000803e3d6000fd5b505050506040513d6020811015613bf157600080fd5b5051604080517f3b3b57de00000000000000000000000000000000000000000000000000000000815260048101869052905173ffffffffffffffffffffffffffffffffffffffff90921691633b3b57de916024808201926020929091908290030181600087803b158015613c6457600080fd5b505af1158015613c78573d6000803e3d6000fd5b505050506040513d6020811015613c8e57600080fd5b5051604080517fc36af460000000000000000000000000000000000000000000000000000000008152905191925073ffffffffffffffffffffffffffffffffffffffff83169163c36af4609160048082019260009290919082900301818387803b158015613cfb57600080fd5b505af1158015613d0f573d6000803e3d6000fd5b505050506040513d6000823e601f3d9081017fffffffffffffffffffffffffffffffffffffffffffffffffffffffffffffffe016820160405260a0811015613d5657600080fd5b60608201516080830180519192840191849190640100000000811115613d7b57600080fd5b82016020810184811115613d8e57600080fd5b8151640100000000811182820187101715613da857600080fd5b509499985050505050505050505600a165627a7a7230582027a8872fd1464a8633e01c8d8303b3b5d58a564abbd05a8250414d9ac7b305d80029",
  "source": "pragma solidity 0.4.24;\n\nimport \"@aragon/templates-shared/contracts/TokenCache.sol\";\nimport \"@aragon/templates-shared/contracts/BaseTemplate.sol\";\n\n\ncontract MembershipTemplate is BaseTemplate, TokenCache {\n    string constant private ERROR_MISSING_MEMBERS = \"MEMBERSHIP_MISSING_MEMBERS\";\n    string constant private ERROR_BAD_VOTE_SETTINGS = \"MEMBERSHIP_BAD_VOTE_SETTINGS\";\n    string constant private ERROR_BAD_PAYROLL_SETTINGS = \"MEMBERSHIP_BAD_PAYROLL_SETTINGS\";\n\n    bool constant private TOKEN_TRANSFERABLE = false;\n    uint8 constant private TOKEN_DECIMALS = uint8(0);\n    uint256 constant private TOKEN_MAX_PER_ACCOUNT = uint256(1);\n    uint64 constant private DEFAULT_FINANCE_PERIOD = uint64(30 days);\n\n    constructor(DAOFactory _daoFactory, ENS _ens, MiniMeTokenFactory _miniMeFactory, IFIFSResolvingRegistrar _aragonID)\n        BaseTemplate(_daoFactory, _ens, _miniMeFactory, _aragonID)\n        public\n    {\n        _ensureAragonIdIsValid(_aragonID);\n        _ensureMiniMeFactoryIsValid(_miniMeFactory);\n    }\n\n    /**\n    * @dev Create a new MiniMe token and deploy a Membership DAO. This function does not allow Payroll\n    *      to be setup due to gas limits.\n    * @param _tokenName String with the name for the token used by share holders in the organization\n    * @param _tokenSymbol String with the symbol for the token used by share holders in the organization\n    * @param _id String with the name for org, will assign `[id].aragonid.eth`\n    * @param _members Array of member addresses (1 token will be minted for each member)\n    * @param _votingSettings Array of [supportRequired, minAcceptanceQuorum, voteDuration] to set up the voting app of the organization\n    * @param _financePeriod Initial duration for accounting periods, it can be set to zero in order to use the default of 30 days.\n    * @param _useAgentAsVault Boolean to tell whether to use an Agent app as a more advanced form of Vault app\n    */\n    function newTokenAndInstance(\n        string _tokenName,\n        string _tokenSymbol,\n        string _id,\n        address[] _members,\n        uint64[3] _votingSettings,\n        uint64 _financePeriod,\n        bool _useAgentAsVault\n    )\n        external\n    {\n        newToken(_tokenName, _tokenSymbol);\n        newInstance(_id, _members, _votingSettings, _financePeriod, _useAgentAsVault);\n    }\n\n    /**\n    * @dev Create a new MiniMe token and cache it for the user\n    * @param _name String with the name for the token used by share holders in the organization\n    * @param _symbol String with the symbol for the token used by share holders in the organization\n    */\n    function newToken(string memory _name, string memory _symbol) public returns (MiniMeToken) {\n        MiniMeToken token = _createToken(_name, _symbol, TOKEN_DECIMALS);\n        _cacheToken(token, msg.sender);\n        return token;\n    }\n\n    /**\n    * @dev Deploy a Membership DAO using a previously cached MiniMe token\n    * @param _id String with the name for org, will assign `[id].aragonid.eth`\n    * @param _members Array of member addresses (1 token will be minted for each member)\n    * @param _votingSettings Array of [supportRequired, minAcceptanceQuorum, voteDuration] to set up the voting app of the organization\n    * @param _financePeriod Initial duration for accounting periods, it can be set to zero in order to use the default of 30 days.\n    * @param _useAgentAsVault Boolean to tell whether to use an Agent app as a more advanced form of Vault app\n    */\n    function newInstance(\n        string memory _id,\n        address[] memory _members,\n        uint64[3] memory _votingSettings,\n        uint64 _financePeriod,\n        bool _useAgentAsVault\n    )\n        public\n\t{\n        _validateId(_id);\n        _ensureMembershipSettings(_members, _votingSettings);\n\n        (Kernel dao, ACL acl) = _createDAO();\n        (Finance finance, Voting voting) = _setupApps(dao, acl, _members, _votingSettings, _financePeriod, _useAgentAsVault);\n        _transferCreatePaymentManagerFromTemplate(acl, finance, voting);\n        _transferRootPermissionsFromTemplateAndFinalizeDAO(dao, voting);\n        _registerID(_id, dao);\n    }\n\n    /**\n    * @dev Deploy a Membership DAO using a previously cached MiniMe token\n    * @param _id String with the name for org, will assign `[id].aragonid.eth`\n    * @param _members Array of member addresses (1 token will be minted for each member)\n    * @param _votingSettings Array of [supportRequired, minAcceptanceQuorum, voteDuration] to set up the voting app of the organization\n    * @param _financePeriod Initial duration for accounting periods, it can be set to zero in order to use the default of 30 days.\n    * @param _useAgentAsVault Boolean to tell whether to use an Agent app as a more advanced form of Vault app\n    * @param _payrollSettings Array of [address denominationToken , IFeed priceFeed, uint64 rateExpiryTime, address employeeManager]\n             for the payroll app. The `employeeManager` can be set to `0x0` in order to use the voting app as the employee manager.\n    */\n    function newInstance(\n        string memory _id,\n        address[] memory _members,\n        uint64[3] memory _votingSettings,\n        uint64 _financePeriod,\n        bool _useAgentAsVault,\n        uint256[4] memory _payrollSettings\n    )\n        public\n    {\n        _validateId(_id);\n        _ensureMembershipSettings(_members, _votingSettings, _payrollSettings);\n\n        (Kernel dao, ACL acl) = _createDAO();\n        (Finance finance, Voting voting) = _setupApps(dao, acl, _members, _votingSettings, _financePeriod, _useAgentAsVault);\n        _setupPayrollApp(dao, acl, finance, voting, _payrollSettings);\n        _transferCreatePaymentManagerFromTemplate(acl, finance, voting);\n        _transferRootPermissionsFromTemplateAndFinalizeDAO(dao, voting);\n        _registerID(_id, dao);\n    }\n\n    function _setupApps(\n        Kernel _dao,\n        ACL _acl,\n        address[] memory _members,\n        uint64[3] memory _votingSettings,\n        uint64 _financePeriod,\n        bool _useAgentAsVault\n    )\n        internal\n        returns (Finance, Voting)\n    {\n        MiniMeToken token = _popTokenCache(msg.sender);\n        Vault agentOrVault = _useAgentAsVault ? _installDefaultAgentApp(_dao) : _installVaultApp(_dao);\n        Finance finance = _installFinanceApp(_dao, agentOrVault, _financePeriod == 0 ? DEFAULT_FINANCE_PERIOD : _financePeriod);\n        TokenManager tokenManager = _installTokenManagerApp(_dao, token, TOKEN_TRANSFERABLE, TOKEN_MAX_PER_ACCOUNT);\n        Voting voting = _installVotingApp(_dao, token, _votingSettings);\n\n        _mintTokens(_acl, tokenManager, _members, 1);\n        _setupPermissions(_acl, agentOrVault, voting, finance, tokenManager, _useAgentAsVault);\n\n        return (finance, voting);\n    }\n\n    function _setupPayrollApp(Kernel _dao, ACL _acl, Finance _finance, Voting _voting, uint256[4] memory _payrollSettings) internal {\n        (address denominationToken, IFeed priceFeed, uint64 rateExpiryTime, address employeeManager) = _unwrapPayrollSettings(_payrollSettings);\n        address manager = employeeManager == address(0) ? _voting : employeeManager;\n\n        Payroll payroll = _installPayrollApp(_dao, _finance, denominationToken, priceFeed, rateExpiryTime);\n        _createPayrollPermissions(_acl, payroll, manager, _voting, _voting);\n        _grantCreatePaymentPermission(_acl, _finance, payroll);\n    }\n\n    function _setupPermissions(\n        ACL _acl,\n        Vault _agentOrVault,\n        Voting _voting,\n        Finance _finance,\n        TokenManager _tokenManager,\n        bool _useAgentAsVault\n    )\n        internal\n    {\n        if (_useAgentAsVault) {\n            _createAgentPermissions(_acl, Agent(_agentOrVault), _voting, _voting);\n        }\n        _createVaultPermissions(_acl, _agentOrVault, _finance, _voting);\n        _createFinancePermissions(_acl, _finance, _voting, _voting);\n        _createFinanceCreatePaymentsPermission(_acl, _finance, _voting, address(this));\n        _createEvmScriptsRegistryPermissions(_acl, _voting, _voting);\n        _createVotingPermissions(_acl, _voting, _voting, _tokenManager, _voting);\n        _createTokenManagerPermissions(_acl, _tokenManager, _voting, _voting);\n    }\n\n    function _ensureMembershipSettings(\n        address[] memory _members,\n        uint64[3] memory _votingSettings,\n        uint256[4] memory _payrollSettings\n    )\n        private\n        pure\n    {\n        _ensureMembershipSettings(_members, _votingSettings);\n        require(_payrollSettings.length == 4, ERROR_BAD_PAYROLL_SETTINGS);\n    }\n\n    function _ensureMembershipSettings(address[] memory _members, uint64[3] memory _votingSettings) private pure {\n        require(_members.length > 0, ERROR_MISSING_MEMBERS);\n        require(_votingSettings.length == 3, ERROR_BAD_VOTE_SETTINGS);\n    }\n}\n",
  "sourcePath": "/Users/jorge/provident/dao-kits/templates/membership/contracts/MembershipTemplate.sol",
  "compiler": {
    "name": "solc",
    "version": "0.4.24+commit.e67f0147.Emscripten.clang"
  },
  "schemaVersion": "2.0.1",
  "updatedAt": "2019-09-05T16:42:58.897Z"
}