{
  "contractName": "Payroll",
  "abi": [
    {
      "constant": true,
      "inputs": [],
      "name": "hasInitialized",
      "outputs": [
        {
          "name": "",
          "type": "bool"
        }
      ],
      "payable": false,
      "stateMutability": "view",
      "type": "function"
    },
    {
      "constant": true,
      "inputs": [],
      "name": "MANAGE_ALLOWED_TOKENS_ROLE",
      "outputs": [
        {
          "name": "",
          "type": "bytes32"
        }
      ],
      "payable": false,
      "stateMutability": "view",
      "type": "function"
    },
    {
      "constant": true,
      "inputs": [],
      "name": "nextEmployee",
      "outputs": [
        {
          "name": "",
          "type": "uint256"
        }
      ],
      "payable": false,
      "stateMutability": "view",
      "type": "function"
    },
    {
      "constant": true,
      "inputs": [
        {
          "name": "_script",
          "type": "bytes"
        }
      ],
      "name": "getEVMScriptExecutor",
      "outputs": [
        {
          "name": "",
          "type": "address"
        }
      ],
      "payable": false,
      "stateMutability": "view",
      "type": "function"
    },
    {
      "constant": true,
      "inputs": [],
      "name": "MODIFY_RATE_EXPIRY_ROLE",
      "outputs": [
        {
          "name": "",
          "type": "bytes32"
        }
      ],
      "payable": false,
      "stateMutability": "view",
      "type": "function"
    },
    {
      "constant": true,
      "inputs": [],
      "name": "finance",
      "outputs": [
        {
          "name": "",
          "type": "address"
        }
      ],
      "payable": false,
      "stateMutability": "view",
      "type": "function"
    },
    {
      "constant": true,
      "inputs": [],
      "name": "getRecoveryVault",
      "outputs": [
        {
          "name": "",
          "type": "address"
        }
      ],
      "payable": false,
      "stateMutability": "view",
      "type": "function"
    },
    {
      "constant": true,
      "inputs": [],
      "name": "ADD_BONUS_ROLE",
      "outputs": [
        {
          "name": "",
          "type": "bytes32"
        }
      ],
      "payable": false,
      "stateMutability": "view",
      "type": "function"
    },
    {
      "constant": true,
      "inputs": [],
      "name": "feed",
      "outputs": [
        {
          "name": "",
          "type": "address"
        }
      ],
      "payable": false,
      "stateMutability": "view",
      "type": "function"
    },
    {
      "constant": true,
      "inputs": [],
      "name": "SET_EMPLOYEE_SALARY_ROLE",
      "outputs": [
        {
          "name": "",
          "type": "bytes32"
        }
      ],
      "payable": false,
      "stateMutability": "view",
      "type": "function"
    },
    {
      "constant": true,
      "inputs": [],
      "name": "MODIFY_PRICE_FEED_ROLE",
      "outputs": [
        {
          "name": "",
          "type": "bytes32"
        }
      ],
      "payable": false,
      "stateMutability": "view",
      "type": "function"
    },
    {
      "constant": true,
      "inputs": [],
      "name": "TERMINATE_EMPLOYEE_ROLE",
      "outputs": [
        {
          "name": "",
          "type": "bytes32"
        }
      ],
      "payable": false,
      "stateMutability": "view",
      "type": "function"
    },
    {
      "constant": true,
      "inputs": [
        {
          "name": "token",
          "type": "address"
        }
      ],
      "name": "allowRecoverability",
      "outputs": [
        {
          "name": "",
          "type": "bool"
        }
      ],
      "payable": false,
      "stateMutability": "view",
      "type": "function"
    },
    {
      "constant": true,
      "inputs": [],
      "name": "appId",
      "outputs": [
        {
          "name": "",
          "type": "bytes32"
        }
      ],
      "payable": false,
      "stateMutability": "view",
      "type": "function"
    },
    {
      "constant": true,
      "inputs": [],
      "name": "ADD_REIMBURSEMENT_ROLE",
      "outputs": [
        {
          "name": "",
          "type": "bytes32"
        }
      ],
      "payable": false,
      "stateMutability": "view",
      "type": "function"
    },
    {
      "constant": true,
      "inputs": [],
      "name": "getInitializationBlock",
      "outputs": [
        {
          "name": "",
          "type": "uint256"
        }
      ],
      "payable": false,
      "stateMutability": "view",
      "type": "function"
    },
    {
      "constant": false,
      "inputs": [
        {
          "name": "_token",
          "type": "address"
        }
      ],
      "name": "transferToVault",
      "outputs": [],
      "payable": false,
      "stateMutability": "nonpayable",
      "type": "function"
    },
    {
      "constant": true,
      "inputs": [
        {
          "name": "_sender",
          "type": "address"
        },
        {
          "name": "_role",
          "type": "bytes32"
        },
        {
          "name": "_params",
          "type": "uint256[]"
        }
      ],
      "name": "canPerform",
      "outputs": [
        {
          "name": "",
          "type": "bool"
        }
      ],
      "payable": false,
      "stateMutability": "view",
      "type": "function"
    },
    {
      "constant": true,
      "inputs": [],
      "name": "getEVMScriptRegistry",
      "outputs": [
        {
          "name": "",
          "type": "address"
        }
      ],
      "payable": false,
      "stateMutability": "view",
      "type": "function"
    },
    {
      "constant": true,
      "inputs": [],
      "name": "rateExpiryTime",
      "outputs": [
        {
          "name": "",
          "type": "uint64"
        }
      ],
      "payable": false,
      "stateMutability": "view",
      "type": "function"
    },
    {
      "constant": true,
      "inputs": [],
      "name": "ADD_EMPLOYEE_ROLE",
      "outputs": [
        {
          "name": "",
          "type": "bytes32"
        }
      ],
      "payable": false,
      "stateMutability": "view",
      "type": "function"
    },
    {
      "constant": true,
      "inputs": [],
      "name": "kernel",
      "outputs": [
        {
          "name": "",
          "type": "address"
        }
      ],
      "payable": false,
      "stateMutability": "view",
      "type": "function"
    },
    {
      "constant": true,
      "inputs": [],
      "name": "isPetrified",
      "outputs": [
        {
          "name": "",
          "type": "bool"
        }
      ],
      "payable": false,
      "stateMutability": "view",
      "type": "function"
    },
    {
      "constant": true,
      "inputs": [],
      "name": "denominationToken",
      "outputs": [
        {
          "name": "",
          "type": "address"
        }
      ],
      "payable": false,
      "stateMutability": "view",
      "type": "function"
    },
    {
      "anonymous": false,
      "inputs": [
        {
          "indexed": true,
          "name": "employeeId",
          "type": "uint256"
        },
        {
          "indexed": true,
          "name": "accountAddress",
          "type": "address"
        },
        {
          "indexed": false,
          "name": "initialDenominationSalary",
          "type": "uint256"
        },
        {
          "indexed": false,
          "name": "startDate",
          "type": "uint64"
        },
        {
          "indexed": false,
          "name": "role",
          "type": "string"
        }
      ],
      "name": "AddEmployee",
      "type": "event"
    },
    {
      "anonymous": false,
      "inputs": [
        {
          "indexed": true,
          "name": "employeeId",
          "type": "uint256"
        },
        {
          "indexed": false,
          "name": "endDate",
          "type": "uint64"
        }
      ],
      "name": "TerminateEmployee",
      "type": "event"
    },
    {
      "anonymous": false,
      "inputs": [
        {
          "indexed": true,
          "name": "employeeId",
          "type": "uint256"
        },
        {
          "indexed": false,
          "name": "denominationSalary",
          "type": "uint256"
        }
      ],
      "name": "SetEmployeeSalary",
      "type": "event"
    },
    {
      "anonymous": false,
      "inputs": [
        {
          "indexed": true,
          "name": "employeeId",
          "type": "uint256"
        },
        {
          "indexed": false,
          "name": "amount",
          "type": "uint256"
        }
      ],
      "name": "AddEmployeeAccruedSalary",
      "type": "event"
    },
    {
      "anonymous": false,
      "inputs": [
        {
          "indexed": true,
          "name": "employeeId",
          "type": "uint256"
        },
        {
          "indexed": false,
          "name": "amount",
          "type": "uint256"
        }
      ],
      "name": "AddEmployeeBonus",
      "type": "event"
    },
    {
      "anonymous": false,
      "inputs": [
        {
          "indexed": true,
          "name": "employeeId",
          "type": "uint256"
        },
        {
          "indexed": false,
          "name": "amount",
          "type": "uint256"
        }
      ],
      "name": "AddEmployeeReimbursement",
      "type": "event"
    },
    {
      "anonymous": false,
      "inputs": [
        {
          "indexed": true,
          "name": "employeeId",
          "type": "uint256"
        },
        {
          "indexed": true,
          "name": "newAccountAddress",
          "type": "address"
        },
        {
          "indexed": true,
          "name": "oldAccountAddress",
          "type": "address"
        }
      ],
      "name": "ChangeAddressByEmployee",
      "type": "event"
    },
    {
      "anonymous": false,
      "inputs": [
        {
          "indexed": true,
          "name": "employeeId",
          "type": "uint256"
        }
      ],
      "name": "DetermineAllocation",
      "type": "event"
    },
    {
      "anonymous": false,
      "inputs": [
        {
          "indexed": true,
          "name": "employeeId",
          "type": "uint256"
        },
        {
          "indexed": true,
          "name": "accountAddress",
          "type": "address"
        },
        {
          "indexed": true,
          "name": "token",
          "type": "address"
        },
        {
          "indexed": false,
          "name": "amount",
          "type": "uint256"
        },
        {
          "indexed": false,
          "name": "exchangeRate",
          "type": "uint256"
        },
        {
          "indexed": false,
          "name": "paymentReference",
          "type": "string"
        }
      ],
      "name": "SendPayment",
      "type": "event"
    },
    {
      "anonymous": false,
      "inputs": [
        {
          "indexed": true,
          "name": "token",
          "type": "address"
        },
        {
          "indexed": false,
          "name": "allowed",
          "type": "bool"
        }
      ],
      "name": "SetAllowedToken",
      "type": "event"
    },
    {
      "anonymous": false,
      "inputs": [
        {
          "indexed": true,
          "name": "feed",
          "type": "address"
        }
      ],
      "name": "SetPriceFeed",
      "type": "event"
    },
    {
      "anonymous": false,
      "inputs": [
        {
          "indexed": false,
          "name": "time",
          "type": "uint64"
        }
      ],
      "name": "SetRateExpiryTime",
      "type": "event"
    },
    {
      "anonymous": false,
      "inputs": [
        {
          "indexed": true,
          "name": "executor",
          "type": "address"
        },
        {
          "indexed": false,
          "name": "script",
          "type": "bytes"
        },
        {
          "indexed": false,
          "name": "input",
          "type": "bytes"
        },
        {
          "indexed": false,
          "name": "returnData",
          "type": "bytes"
        }
      ],
      "name": "ScriptResult",
      "type": "event"
    },
    {
      "anonymous": false,
      "inputs": [
        {
          "indexed": true,
          "name": "vault",
          "type": "address"
        },
        {
          "indexed": true,
          "name": "token",
          "type": "address"
        },
        {
          "indexed": false,
          "name": "amount",
          "type": "uint256"
        }
      ],
      "name": "RecoverToVault",
      "type": "event"
    },
    {
      "constant": false,
      "inputs": [
        {
          "name": "_finance",
          "type": "address"
        },
        {
          "name": "_denominationToken",
          "type": "address"
        },
        {
          "name": "_priceFeed",
          "type": "address"
        },
        {
          "name": "_rateExpiryTime",
          "type": "uint64"
        }
      ],
      "name": "initialize",
      "outputs": [],
      "payable": false,
      "stateMutability": "nonpayable",
      "type": "function"
    },
    {
      "constant": false,
      "inputs": [
        {
          "name": "_token",
          "type": "address"
        },
        {
          "name": "_allowed",
          "type": "bool"
        }
      ],
      "name": "setAllowedToken",
      "outputs": [],
      "payable": false,
      "stateMutability": "nonpayable",
      "type": "function"
    },
    {
      "constant": false,
      "inputs": [
        {
          "name": "_feed",
          "type": "address"
        }
      ],
      "name": "setPriceFeed",
      "outputs": [],
      "payable": false,
      "stateMutability": "nonpayable",
      "type": "function"
    },
    {
      "constant": false,
      "inputs": [
        {
          "name": "_time",
          "type": "uint64"
        }
      ],
      "name": "setRateExpiryTime",
      "outputs": [],
      "payable": false,
      "stateMutability": "nonpayable",
      "type": "function"
    },
    {
      "constant": false,
      "inputs": [
        {
          "name": "_accountAddress",
          "type": "address"
        },
        {
          "name": "_initialDenominationSalary",
          "type": "uint256"
        },
        {
          "name": "_startDate",
          "type": "uint64"
        },
        {
          "name": "_role",
          "type": "string"
        }
      ],
      "name": "addEmployee",
      "outputs": [],
      "payable": false,
      "stateMutability": "nonpayable",
      "type": "function"
    },
    {
      "constant": false,
      "inputs": [
        {
          "name": "_employeeId",
          "type": "uint256"
        },
        {
          "name": "_amount",
          "type": "uint256"
        }
      ],
      "name": "addBonus",
      "outputs": [],
      "payable": false,
      "stateMutability": "nonpayable",
      "type": "function"
    },
    {
      "constant": false,
      "inputs": [
        {
          "name": "_employeeId",
          "type": "uint256"
        },
        {
          "name": "_amount",
          "type": "uint256"
        }
      ],
      "name": "addReimbursement",
      "outputs": [],
      "payable": false,
      "stateMutability": "nonpayable",
      "type": "function"
    },
    {
      "constant": false,
      "inputs": [
        {
          "name": "_employeeId",
          "type": "uint256"
        },
        {
          "name": "_denominationSalary",
          "type": "uint256"
        }
      ],
      "name": "setEmployeeSalary",
      "outputs": [],
      "payable": false,
      "stateMutability": "nonpayable",
      "type": "function"
    },
    {
      "constant": false,
      "inputs": [
        {
          "name": "_employeeId",
          "type": "uint256"
        },
        {
          "name": "_endDate",
          "type": "uint64"
        }
      ],
      "name": "terminateEmployee",
      "outputs": [],
      "payable": false,
      "stateMutability": "nonpayable",
      "type": "function"
    },
    {
      "constant": false,
      "inputs": [
        {
          "name": "_newAccountAddress",
          "type": "address"
        }
      ],
      "name": "changeAddressByEmployee",
      "outputs": [],
      "payable": false,
      "stateMutability": "nonpayable",
      "type": "function"
    },
    {
      "constant": false,
      "inputs": [
        {
          "name": "_tokens",
          "type": "address[]"
        },
        {
          "name": "_distribution",
          "type": "uint256[]"
        }
      ],
      "name": "determineAllocation",
      "outputs": [],
      "payable": false,
      "stateMutability": "nonpayable",
      "type": "function"
    },
    {
      "constant": false,
      "inputs": [
        {
          "name": "_type",
          "type": "uint8"
        },
        {
          "name": "_requestedAmount",
          "type": "uint256"
        },
        {
          "name": "_minRates",
          "type": "uint256[]"
        }
      ],
      "name": "payday",
      "outputs": [],
      "payable": false,
      "stateMutability": "nonpayable",
      "type": "function"
    },
    {
      "constant": true,
      "inputs": [],
      "name": "isForwarder",
      "outputs": [
        {
          "name": "",
          "type": "bool"
        }
      ],
      "payable": false,
      "stateMutability": "pure",
      "type": "function"
    },
    {
      "constant": false,
      "inputs": [
        {
          "name": "_evmScript",
          "type": "bytes"
        }
      ],
      "name": "forward",
      "outputs": [],
      "payable": false,
      "stateMutability": "nonpayable",
      "type": "function"
    },
    {
      "constant": true,
      "inputs": [
        {
          "name": "_sender",
          "type": "address"
        },
        {
          "name": "",
          "type": "bytes"
        }
      ],
      "name": "canForward",
      "outputs": [
        {
          "name": "",
          "type": "bool"
        }
      ],
      "payable": false,
      "stateMutability": "view",
      "type": "function"
    },
    {
      "constant": true,
      "inputs": [
        {
          "name": "_accountAddress",
          "type": "address"
        }
      ],
      "name": "getEmployeeIdByAddress",
      "outputs": [
        {
          "name": "",
          "type": "uint256"
        }
      ],
      "payable": false,
      "stateMutability": "view",
      "type": "function"
    },
    {
      "constant": true,
      "inputs": [
        {
          "name": "_employeeId",
          "type": "uint256"
        }
      ],
      "name": "getEmployee",
      "outputs": [
        {
          "name": "accountAddress",
          "type": "address"
        },
        {
          "name": "denominationSalary",
          "type": "uint256"
        },
        {
          "name": "accruedSalary",
          "type": "uint256"
        },
        {
          "name": "bonus",
          "type": "uint256"
        },
        {
          "name": "reimbursements",
          "type": "uint256"
        },
        {
          "name": "lastPayroll",
          "type": "uint64"
        },
        {
          "name": "endDate",
          "type": "uint64"
        },
        {
          "name": "allocationTokens",
          "type": "address[]"
        }
      ],
      "payable": false,
      "stateMutability": "view",
      "type": "function"
    },
    {
      "constant": true,
      "inputs": [
        {
          "name": "_employeeId",
          "type": "uint256"
        }
      ],
      "name": "getTotalOwedSalary",
      "outputs": [
        {
          "name": "",
          "type": "uint256"
        }
      ],
      "payable": false,
      "stateMutability": "view",
      "type": "function"
    },
    {
      "constant": true,
      "inputs": [
        {
          "name": "_employeeId",
          "type": "uint256"
        },
        {
          "name": "_token",
          "type": "address"
        }
      ],
      "name": "getAllocation",
      "outputs": [
        {
          "name": "",
          "type": "uint256"
        }
      ],
      "payable": false,
      "stateMutability": "view",
      "type": "function"
    },
    {
      "constant": true,
      "inputs": [
        {
          "name": "_token",
          "type": "address"
        }
      ],
      "name": "isTokenAllowed",
      "outputs": [
        {
          "name": "",
          "type": "bool"
        }
      ],
      "payable": false,
      "stateMutability": "view",
      "type": "function"
    }
  ],
  "bytecode": "0x6080604052620000176401000000006200001d810204565b6200023b565b6200003064010000000062000125810204565b60408051808201909152601881527f494e49545f414c52454144595f494e495449414c495a45440000000000000000602082015290156200010c576040517f08c379a00000000000000000000000000000000000000000000000000000000081526004018080602001828103825283818151815260200191508051906020019080838360005b83811015620000d0578181015183820152602001620000b6565b50505050905090810190601f168015620000fe5780820380516001836020036101000a031916815260200191505b509250505060405180910390fd5b506200012360001964010000000062000154810204565b565b60006200014f60008051602062005fde833981519152640100000000620037666200023382021704565b905090565b6200016764010000000062000125810204565b60408051808201909152601881527f494e49545f414c52454144595f494e495449414c495a454400000000000000006020820152901562000206576040517f08c379a000000000000000000000000000000000000000000000000000000000815260040180806020018281038252838181518152602001915080519060200190808383600083811015620000d0578181015183820152602001620000b6565b506200023060008051602062005fde833981519152826401000000006200376a6200023782021704565b50565b5490565b9055565b615d93806200024b6000396000f3006080604052600436106102195763ffffffff7c01000000000000000000000000000000000000000000000000000000006000350416630803fac0811461021e5780630a0c75aa146102475780631216906b146102645780631bb440b1146102925780631bfe5f61146102b95780632350a84d146102ce57806327e02676146102f35780632914b9bd146103245780632ee235ef146103a6578063313b7b19146103bb57806332f0a3b5146103d057806335285a0f146103e557806337a7b7d8146103fa5780633fe3f1cf1461040f578063456fbfea146104565780634fd52f421461046b578063595da7291461048d5780637100650e146104a2578063724e78da146104b75780637e7db6e1146104e557806380afdea81461051357806388ea9247146105285780638aaa22841461053d5780638b3dd749146105705780639d4941d814610585578063a1658fad146105b3578063a479e50814610627578063a52e605f1461063c578063b02b69d614610654578063b7cafcc81461066f578063bca9a5c51461068a578063bef80ce11461077b578063bf510ff4146107ad578063c0774df3146107c2578063d4aae0c414610836578063d948d4681461084b578063dcb33f3e146108a4578063de4796ed146108cf578063ea199a83146108e4578063f6b9fdfb14610930578063f9eaee0d14610945578063fd64eccb14610973578063fe2fdf0b14610988578063ffd5acad146109b4575b600080fd5b34801561022a57600080fd5b506102336109e2565b604080519115158252519081900360200190f35b34801561025357600080fd5b50610262600435602435610a0c565b005b34801561027057600080fd5b5061026273ffffffffffffffffffffffffffffffffffffffff60043516610c8e565b34801561029e57600080fd5b506102a7610f25565b60408051918252519081900360200190f35b3480156102c557600080fd5b506102a7610f49565b3480156102da57600080fd5b5061026260043567ffffffffffffffff60243516610f4f565b3480156102ff57600080fd5b506102a760043573ffffffffffffffffffffffffffffffffffffffff602435166110e6565b34801561033057600080fd5b506040805160206004803580820135601f810184900484028501840190955284845261037d9436949293602493928401919081908401838280828437509497506111cd9650505050505050565b6040805173ffffffffffffffffffffffffffffffffffffffff9092168252519081900360200190f35b3480156103b257600080fd5b506102a76112db565b3480156103c757600080fd5b5061037d6112ff565b3480156103dc57600080fd5b5061037d61131b565b3480156103f157600080fd5b506102a76113ba565b34801561040657600080fd5b5061037d6113de565b34801561041b57600080fd5b5061026273ffffffffffffffffffffffffffffffffffffffff6004358116906024358116906044351667ffffffffffffffff606435166113fa565b34801561046257600080fd5b506102a76115c0565b34801561047757600080fd5b5061026267ffffffffffffffff600435166115e4565b34801561049957600080fd5b506102a76116ea565b3480156104ae57600080fd5b506102a761170e565b3480156104c357600080fd5b5061026273ffffffffffffffffffffffffffffffffffffffff60043516611732565b3480156104f157600080fd5b5061023373ffffffffffffffffffffffffffffffffffffffff6004351661182a565b34801561051f57600080fd5b506102a7611830565b34801561053457600080fd5b506102a7611860565b34801561054957600080fd5b5061026273ffffffffffffffffffffffffffffffffffffffff600435166024351515611884565b34801561057c57600080fd5b506102a7611ab3565b34801561059157600080fd5b5061026273ffffffffffffffffffffffffffffffffffffffff60043516611ade565b3480156105bf57600080fd5b50604080516020600460443581810135838102808601850190965280855261023395833573ffffffffffffffffffffffffffffffffffffffff16956024803596369695606495939492019291829185019084908082843750949750611e009650505050505050565b34801561063357600080fd5b5061037d611f90565b34801561064857600080fd5b506102a7600435612084565b34801561066057600080fd5b5061026260043560243561214e565b34801561067b57600080fd5b506102626004356024356122d4565b34801561069657600080fd5b506106a260043561245a565b604051808973ffffffffffffffffffffffffffffffffffffffff1673ffffffffffffffffffffffffffffffffffffffff1681526020018881526020018781526020018681526020018581526020018467ffffffffffffffff1667ffffffffffffffff1681526020018367ffffffffffffffff1667ffffffffffffffff16815260200180602001828103825283818151815260200191508051906020019060200280838360005b83811015610760578181015183820152602001610748565b50505050905001995050505050505050505060405180910390f35b34801561078757600080fd5b50610790612618565b6040805167ffffffffffffffff9092168252519081900360200190f35b3480156107b957600080fd5b506102a7612640565b3480156107ce57600080fd5b5060408051602060046024803582810135601f810185900485028601850190965285855261023395833573ffffffffffffffffffffffffffffffffffffffff169536956044949193909101919081908401838280828437509497506126649650505050505050565b34801561084257600080fd5b5061037d61269a565b34801561085757600080fd5b506040805160206004803580820135601f81018490048402850184019095528484526102629436949293602493928401919081908401838280828437509497506126c59650505050505050565b3480156108b057600080fd5b506102626004803560ff169060248035916044359182019101356127f9565b3480156108db57600080fd5b50610233612d15565b3480156108f057600080fd5b506102626004803573ffffffffffffffffffffffffffffffffffffffff1690602480359160443567ffffffffffffffff1691606435908101910135612d46565b34801561093c57600080fd5b5061037d612e6a565b34801561095157600080fd5b5061023373ffffffffffffffffffffffffffffffffffffffff60043516612e86565b34801561097f57600080fd5b50610233612f5a565b34801561099457600080fd5b506102626024600480358281019290820135918135918201910135612f5f565b3480156109c057600080fd5b506102a773ffffffffffffffffffffffffffffffffffffffff600435166134da565b6000806109ed611ab3565b90508015801590610a05575080610a026135ca565b10155b91505b5090565b60008281526004602052604081206001015481907fea9ac65018da2421cf419ee2152371440c08267a193a33ccc1e39545d197e44d90610a4f90869086906135ce565b610a5a338383611e00565b60408051808201909152600f81527f4150505f415554485f4641494c454400000000000000000000000000000000006020820152901515610b33576040517f08c379a00000000000000000000000000000000000000000000000000000000081526004018080602001828103825283818151815260200191508051906020019080838360005b83811015610af8578181015183820152602001610ae0565b50505050905090810190601f168015610b255780820380516001836020036101000a031916815260200191505b509250505060405180910390fd5b5085610b3e81613647565b60408051808201909152601b81527f504159524f4c4c5f4e4f4e5f4143544956455f454d504c4f59454500000000006020820152901515610bdb576040517f08c379a000000000000000000000000000000000000000000000000000000000815260040180806020018281038252838181518152602001915080519060200190808383600083811015610af8578181015183820152602001610ae0565b5060008781526004602052604081209550610bf7908690613664565b9350610c0387856136f1565b610c0b613754565b60058601805467ffffffffffffffff929092167fffffffffffffffffffffffffffffffffffffffffffffffff00000000000000009092169190911790556001850186905560408051878152905188917fec4f21c1230ce7d88517d17b1f8ae85725a029dc2066fe2ed6401f1b01024e05919081900360200190a250505050505050565b33600081815260056020908152604080832054835260048252808320548151808301909252601d82527f504159524f4c4c5f53454e4445525f444f45535f4e4f545f4d4154434800000092820192909252919283929173ffffffffffffffffffffffffffffffffffffffff1614610d61576040517f08c379a000000000000000000000000000000000000000000000000000000000815260040180806020018281038252838181518152602001915080519060200190808383600083811015610af8578181015183820152602001610ae0565b50610d8b7fe855346402235fdd185c890e68d2c4ecad599b88587635ee285bce2fda58dacb613766565b60408051808201909152601981527f5245454e5452414e43595f5245454e5452414e545f43414c4c0000000000000060208201529015610e27576040517f08c379a000000000000000000000000000000000000000000000000000000000815260040180806020018281038252838181518152602001915080519060200190808383600083811015610af8578181015183820152602001610ae0565b50610e597fe855346402235fdd185c890e68d2c4ecad599b88587635ee285bce2fda58dacb600163ffffffff61376a16565b50503360009081526005602090815260408083205480845260049092529091205473ffffffffffffffffffffffffffffffffffffffff16610e9a828461376e565b73ffffffffffffffffffffffffffffffffffffffff80821660008181526005602052604080822082905551919286169185917f5a3949ffa1f5851afea532ad9d4c7dfb51bf68f7d5964ff77f3bb4c0abedbbe491a4610f207fe855346402235fdd185c890e68d2c4ecad599b88587635ee285bce2fda58dacb600063ffffffff61376a16565b505050565b7f0be34987c45700ee3fae8c55e270418ba903337decc6bacb1879504be9331c0681565b60035481565b7f69c67f914d12b6440e7ddf01961214818d9158fbcb19211e0ff42800fdea9242610f848367ffffffffffffffff8416613946565b610f8f338383611e00565b60408051808201909152600f81527f4150505f415554485f4641494c45440000000000000000000000000000000000602082015290151561102c576040517f08c379a000000000000000000000000000000000000000000000000000000000815260040180806020018281038252838181518152602001915080519060200190808383600083811015610af8578181015183820152602001610ae0565b508361103781613647565b60408051808201909152601b81527f504159524f4c4c5f4e4f4e5f4143544956455f454d504c4f594545000000000060208201529015156110d4576040517f08c379a000000000000000000000000000000000000000000000000000000000815260040180806020018281038252838181518152602001915080519060200190808383600083811015610af8578181015183820152602001610ae0565b506110df85856139a1565b5050505050565b6000826110f281613ae4565b60408051808201909152601d81527f504159524f4c4c5f454d504c4f5945455f444f45534e545f4558495354000000602082015290151561118f576040517f08c379a000000000000000000000000000000000000000000000000000000000815260040180806020018281038252838181518152602001915080519060200190808383600083811015610af8578181015183820152602001610ae0565b50600084815260046020908152604080832073ffffffffffffffffffffffffffffffffffffffff8716845260070190915290205491505b5092915050565b60006111d7611f90565b73ffffffffffffffffffffffffffffffffffffffff166304bf2a7f836040518263ffffffff167c01000000000000000000000000000000000000000000000000000000000281526004018080602001828103825283818151815260200191508051906020019080838360005b8381101561125b578181015183820152602001611243565b50505050905090810190601f1680156112885780820380516001836020036101000a031916815260200191505b5092505050602060405180830381600087803b1580156112a757600080fd5b505af11580156112bb573d6000803e3d6000fd5b505050506040513d60208110156112d157600080fd5b505190505b919050565b7f79fe989a8899060dfbdabb174ebb96616fa9f1d9dadd739f8d814cbab452404e81565b60005473ffffffffffffffffffffffffffffffffffffffff1681565b600061132561269a565b73ffffffffffffffffffffffffffffffffffffffff166332f0a3b56040518163ffffffff167c0100000000000000000000000000000000000000000000000000000000028152600401602060405180830381600087803b15801561138857600080fd5b505af115801561139c573d6000803e3d6000fd5b505050506040513d60208110156113b257600080fd5b505190505b90565b7fceca7e2f5eb749a87aaf68f3f76d6b9251aa2f4600f13f93c5a4adf7a72df4ae81565b60025473ffffffffffffffffffffffffffffffffffffffff1681565b611402611ab3565b60408051808201909152601881527f494e49545f414c52454144595f494e495449414c495a454400000000000000006020820152901561149e576040517f08c379a000000000000000000000000000000000000000000000000000000000815260040180806020018281038252838181518152602001915080519060200190808383600083811015610af8578181015183820152602001610ae0565b506114a7613b0e565b6114b084613bed565b60408051808201909152601c81527f504159524f4c4c5f46494e414e43455f4e4f545f434f4e545241435400000000602082015290151561154d576040517f08c379a000000000000000000000000000000000000000000000000000000000815260040180806020018281038252838181518152602001915080519060200190808383600083811015610af8578181015183820152602001610ae0565b506000805473ffffffffffffffffffffffffffffffffffffffff8087167fffffffffffffffffffffffff00000000000000000000000000000000000000009283161790925560018054928616929091169190911790556115ac82613c20565b6115b581613d3c565b505060016003555050565b7fea9ac65018da2421cf419ee2152371440c08267a193a33ccc1e39545d197e44d81565b6002547f79fe989a8899060dfbdabb174ebb96616fa9f1d9dadd739f8d814cbab452404e906116389067ffffffffffffffff8085169174010000000000000000000000000000000000000000900416613946565b611643338383611e00565b60408051808201909152600f81527f4150505f415554485f4641494c4544000000000000000000000000000000000060208201529015156116e0576040517f08c379a000000000000000000000000000000000000000000000000000000000815260040180806020018281038252838181518152602001915080519060200190808383600083811015610af8578181015183820152602001610ae0565b50610f2083613d3c565b7f74350efbcba8b85341c5bbf70cc34e2a585fc1463524773a12fa0a71d4eb930281565b7f69c67f914d12b6440e7ddf01961214818d9158fbcb19211e0ff42800fdea924281565b6002547f74350efbcba8b85341c5bbf70cc34e2a585fc1463524773a12fa0a71d4eb93029061177890839073ffffffffffffffffffffffffffffffffffffffff16613e75565b611783338383611e00565b60408051808201909152600f81527f4150505f415554485f4641494c454400000000000000000000000000000000006020820152901515611820576040517f08c379a000000000000000000000000000000000000000000000000000000000815260040180806020018281038252838181518152602001915080519060200190808383600083811015610af8578181015183820152602001610ae0565b50610f2083613c20565b50600190565b600061185b7fd625496217aa6a3453eecb9c3489dc5a53e6c67b444329ea2b2cbc9ff547639b613766565b905090565b7f90698b9d54427f1e41636025017309bdb1b55320da960c8845bab0a504b01a1681565b7f0be34987c45700ee3fae8c55e270418ba903337decc6bacb1879504be9331c066118ae83613ead565b6118b9338383611e00565b60408051808201909152600f81527f4150505f415554485f4641494c454400000000000000000000000000000000006020820152901515611956576040517f08c379a000000000000000000000000000000000000000000000000000000000815260040180806020018281038252838181518152602001915080519060200190808383600083811015610af8578181015183820152602001610ae0565b5073ffffffffffffffffffffffffffffffffffffffff8416600090815260066020908152604091829020548251808401909352601983527f504159524f4c4c5f544f4b454e5f414c52454144595f534554000000000000009183019190915260ff1615158415151415611a25576040517f08c379a000000000000000000000000000000000000000000000000000000000815260040180806020018281038252838181518152602001915080519060200190808383600083811015610af8578181015183820152602001610ae0565b5073ffffffffffffffffffffffffffffffffffffffff841660008181526006602090815260409182902080547fffffffffffffffffffffffffffffffffffffffffffffffffffffffffffffff0016871515908117909155825190815291517fe589eb036e62c07e307aa4d441bd39c81e8bd86f349eaacb0caa06b1477f7f9a9281900390910190a250505050565b600061185b7febb05b386a8d34882b8711d156f463690983dc47815980fb82aeeff1aa43579e613766565b6000806000611aec8461182a565b60408051808201909152601281527f5245434f5645525f444953414c4c4f57454400000000000000000000000000006020820152901515611b89576040517f08c379a000000000000000000000000000000000000000000000000000000000815260040180806020018281038252838181518152602001915080519060200190808383600083811015610af8578181015183820152602001610ae0565b50611b9261131b565b9250611b9d83613bed565b60408051808201909152601a81527f5245434f5645525f5641554c545f4e4f545f434f4e54524143540000000000006020820152901515611c3a576040517f08c379a000000000000000000000000000000000000000000000000000000000815260040180806020018281038252838181518152602001915080519060200190808383600083811015610af8578181015183820152602001610ae0565b5073ffffffffffffffffffffffffffffffffffffffff84161515611ca5576040513031925073ffffffffffffffffffffffffffffffffffffffff84169083156108fc029084906000818181858888f19350505050158015611c9f573d6000803e3d6000fd5b50611d95565b5082611ccd73ffffffffffffffffffffffffffffffffffffffff82163063ffffffff613ed216565b9150611cf673ffffffffffffffffffffffffffffffffffffffff8216848463ffffffff61400b16565b60408051808201909152601d81527f5245434f5645525f544f4b454e5f5452414e534645525f4641494c45440000006020820152901515611d93576040517f08c379a000000000000000000000000000000000000000000000000000000000815260040180806020018281038252838181518152602001915080519060200190808383600083811015610af8578181015183820152602001610ae0565b505b8373ffffffffffffffffffffffffffffffffffffffff168373ffffffffffffffffffffffffffffffffffffffff167f596caf56044b55fb8c4ca640089bbc2b63cae3e978b851f5745cbb7c5b288e02846040518082815260200191505060405180910390a350505050565b600080611e0b6109e2565b1515611e1a5760009150611f88565b611e2261269a565b905073ffffffffffffffffffffffffffffffffffffffff81161515611e4a5760009150611f88565b8073ffffffffffffffffffffffffffffffffffffffff1663fdef9106863087611e72886140a3565b6040517c010000000000000000000000000000000000000000000000000000000063ffffffff871602815273ffffffffffffffffffffffffffffffffffffffff808616600483019081529085166024830152604482018490526080606483019081528351608484015283519192909160a490910190602085019080838360005b83811015611f0a578181015183820152602001611ef2565b50505050905090810190601f168015611f375780820380516001836020036101000a031916815260200191505b5095505050505050602060405180830381600087803b158015611f5957600080fd5b505af1158015611f6d573d6000803e3d6000fd5b505050506040513d6020811015611f8357600080fd5b505191505b509392505050565b600080611f9b61269a565b604080517fbe00bbd80000000000000000000000000000000000000000000000000000000081527fd6f028ca0e8edb4a8c9757ca4fdccab25fa1e0317da1188108f7d2dee14902fb60048201527fddbcfd564f642ab5627cf68b9b7d374fb4f8a36e941a75d89c87998cef03bd616024820152905173ffffffffffffffffffffffffffffffffffffffff929092169163be00bbd8916044808201926020929091908290030181600087803b15801561205257600080fd5b505af1158015612066573d6000803e3d6000fd5b505050506040513d602081101561207c57600080fd5b505192915050565b60008161209081613ae4565b60408051808201909152601d81527f504159524f4c4c5f454d504c4f5945455f444f45534e545f4558495354000000602082015290151561212d576040517f08c379a000000000000000000000000000000000000000000000000000000000815260040180806020018281038252838181518152602001915080519060200190808383600083811015610af8578181015183820152602001610ae0565b506000838152600460205260409020612145906140ad565b91505b50919050565b7fceca7e2f5eb749a87aaf68f3f76d6b9251aa2f4600f13f93c5a4adf7a72df4ae6121798383613946565b612184338383611e00565b60408051808201909152600f81527f4150505f415554485f4641494c454400000000000000000000000000000000006020820152901515612221576040517f08c379a000000000000000000000000000000000000000000000000000000000815260040180806020018281038252838181518152602001915080519060200190808383600083811015610af8578181015183820152602001610ae0565b508361222c81613647565b60408051808201909152601b81527f504159524f4c4c5f4e4f4e5f4143544956455f454d504c4f594545000000000060208201529015156122c9576040517f08c379a000000000000000000000000000000000000000000000000000000000815260040180806020018281038252838181518152602001915080519060200190808383600083811015610af8578181015183820152602001610ae0565b506110df85856140fe565b7f90698b9d54427f1e41636025017309bdb1b55320da960c8845bab0a504b01a166122ff8383613946565b61230a338383611e00565b60408051808201909152600f81527f4150505f415554485f4641494c4544000000000000000000000000000000000060208201529015156123a7576040517f08c379a000000000000000000000000000000000000000000000000000000000815260040180806020018281038252838181518152602001915080519060200190808383600083811015610af8578181015183820152602001610ae0565b50836123b281613647565b60408051808201909152601b81527f504159524f4c4c5f4e4f4e5f4143544956455f454d504c4f5945450000000000602082015290151561244f576040517f08c379a000000000000000000000000000000000000000000000000000000000815260040180806020018281038252838181518152602001915080519060200190808383600083811015610af8578181015183820152602001610ae0565b506110df8585614161565b6000806000806000806000606060008961247381613ae4565b60408051808201909152601d81527f504159524f4c4c5f454d504c4f5945455f444f45534e545f45584953540000006020820152901515612510576040517f08c379a000000000000000000000000000000000000000000000000000000000815260040180806020018281038252838181518152602001915080519060200190808383600083811015610af8578181015183820152602001610ae0565b50600460008c815260200190815260200160002091508160000160009054906101000a900473ffffffffffffffffffffffffffffffffffffffff169950816001015498508160020154975081600301549650816004015495508160050160009054906101000a900467ffffffffffffffff1694508160050160089054906101000a900467ffffffffffffffff1693508160060180548060200260200160405190810160405280929190818152602001828054801561260457602002820191906000526020600020905b815473ffffffffffffffffffffffffffffffffffffffff1681526001909101906020018083116125d9575b505050505092505050919395975091939597565b60025474010000000000000000000000000000000000000000900467ffffffffffffffff1681565b7f9ecdc3c63716b45d0756eece5fe1614cae1889ec5a1ce62b3127c1f1f1615d6e81565b73ffffffffffffffffffffffffffffffffffffffff821660009081526005602052604081205461269390613647565b9392505050565b600061185b7f4172f0f7d2289153072b0a6ca36959e0cbe2efc3afe50fc81636caa96338137b613766565b6060806126d23384612664565b60408051808201909152601781527f504159524f4c4c5f43414e5f4e4f545f464f5257415244000000000000000000602082015290151561276f576040517f08c379a000000000000000000000000000000000000000000000000000000000815260040180806020018281038252838181518152602001915080519060200190808383600083811015610af8578181015183820152602001610ae0565b50604080516000815260016020808301828152606084018552929550919290919085019080388339505060008054835193945073ffffffffffffffffffffffffffffffffffffffff169284925081106127c457fe5b73ffffffffffffffffffffffffffffffffffffffff9092166020928302909101909101526127f38383836141c6565b50505050565b33600081815260056020908152604080832054835260048252808320548151808301909252601d82527f504159524f4c4c5f53454e4445525f444f45535f4e4f545f4d4154434800000092820192909252919283928392839283928392909173ffffffffffffffffffffffffffffffffffffffff909116146128d7576040517f08c379a000000000000000000000000000000000000000000000000000000000815260040180806020018281038252838181518152602001915080519060200190808383600083811015610af8578181015183820152602001610ae0565b506129017fe855346402235fdd185c890e68d2c4ecad599b88587635ee285bce2fda58dacb613766565b60408051808201909152601981527f5245454e5452414e43595f5245454e5452414e545f43414c4c000000000000006020820152901561299d576040517f08c379a000000000000000000000000000000000000000000000000000000000815260040180806020018281038252838181518152602001915080519060200190808383600083811015610af8578181015183820152602001610ae0565b506129cf7fe855346402235fdd185c890e68d2c4ecad599b88587635ee285bce2fda58dacb600163ffffffff61376a16565b33600090815260056020908152604080832054808452600490925290912090955093506129fb8461489c565b861580612a0b5750600684015487145b60408051808201909152601a81527f504159524f4c4c5f4d494e5f52415445535f4d49534d415443480000000000006020820152901515612aa8576040517f08c379a000000000000000000000000000000000000000000000000000000000815260040180806020018281038252838181518152602001915080519060200190808383600083811015610af8578181015183820152602001610ae0565b5060008a6002811115612ab757fe5b1415612ae357612ac6846140ad565b9250612ad2838a614af1565b9550612ade8487614c3f565b612bf8565b60018a6002811115612af157fe5b1415612b245783600401549150612b08828a614af1565b9550612b1a828763ffffffff614dd616565b6004850155612bf8565b60028a6002811115612b3257fe5b1415612b6457506003830154612b48818a614af1565b9550612b5a818763ffffffff614dd616565b6003850155612bf8565b604080518082018252601c81527f504159524f4c4c5f494e56414c49445f5041594d454e545f5459504500000000602080830191825292517f08c379a000000000000000000000000000000000000000000000000000000000815260048101938452825160248201528251929392839260449092019190808383600083811015610af8578181015183820152602001610ae0565b612c31858b888b8b8080602002602001604051908101604052809392919081815260200183836020028082843750614e81945050505050565b60408051808201909152601481527f504159524f4c4c5f4e4f5448494e475f504149440000000000000000000000006020820152901515612cce576040517f08c379a000000000000000000000000000000000000000000000000000000000815260040180806020018281038252838181518152602001915080519060200190808383600083811015610af8578181015183820152602001610ae0565b50612cd885615374565b612d097fe855346402235fdd185c890e68d2c4ecad599b88587635ee285bce2fda58dacb600063ffffffff61376a16565b50505050505050505050565b60007fffffffffffffffffffffffffffffffffffffffffffffffffffffffffffffffff612d40611ab3565b14905090565b7f9ecdc3c63716b45d0756eece5fe1614cae1889ec5a1ce62b3127c1f1f1615d6e612d7c868667ffffffffffffffff8716615483565b612d87338383611e00565b60408051808201909152600f81527f4150505f415554485f4641494c454400000000000000000000000000000000006020820152901515612e24576040517f08c379a000000000000000000000000000000000000000000000000000000000815260040180806020018281038252838181518152602001915080519060200190808383600083811015610af8578181015183820152602001610ae0565b50612e6187878787878080601f016020809104026020016040519081016040528093929190818152602001838380828437506154ae945050505050565b50505050505050565b60015473ffffffffffffffffffffffffffffffffffffffff1681565b6000612e906109e2565b60408051808201909152601481527f494e49545f4e4f545f494e495449414c495a45440000000000000000000000006020820152901515612f2d576040517f08c379a000000000000000000000000000000000000000000000000000000000815260040180806020018281038252838181518152602001915080519060200190808383600083811015610af8578181015183820152602001610ae0565b505073ffffffffffffffffffffffffffffffffffffffff1660009081526006602052604090205460ff1690565b600190565b33600081815260056020908152604080832054835260048252808320548151808301909252601d82527f504159524f4c4c5f53454e4445525f444f45535f4e4f545f4d415443480000009282019290925291928392606092849283929173ffffffffffffffffffffffffffffffffffffffff1614613039576040517f08c379a000000000000000000000000000000000000000000000000000000000815260040180806020018281038252838181518152602001915080519060200190808383600083811015610af8578181015183820152602001610ae0565b506130637fe855346402235fdd185c890e68d2c4ecad599b88587635ee285bce2fda58dacb613766565b60408051808201909152601981527f5245454e5452414e43595f5245454e5452414e545f43414c4c00000000000000602082015290156130ff576040517f08c379a000000000000000000000000000000000000000000000000000000000815260040180806020018281038252838181518152602001915080519060200190808383600083811015610af8578181015183820152602001610ae0565b506131317fe855346402235fdd185c890e68d2c4ecad599b88587635ee285bce2fda58dacb600163ffffffff61376a16565b60408051808201909152601a81527f504159524f4c4c5f4d41585f414c4c4f5745445f544f4b454e53000000000000602082015260148911156131d0576040517f08c379a000000000000000000000000000000000000000000000000000000000815260040180806020018281038252838181518152602001915080519060200190808383600083811015610af8578181015183820152602001610ae0565b5060408051606081018252602181527f504159524f4c4c5f544f4b454e5f414c4c4f434154494f4e5f4d49534d41544360208201527f480000000000000000000000000000000000000000000000000000000000000091810191909152888714613296576040517f08c379a000000000000000000000000000000000000000000000000000000000815260040180806020018281038252838181518152602001915080519060200190808383600083811015610af8578181015183820152602001610ae0565b503360009081526005602090815260408083205480845260048352928190206006810180548351818602810186019094528084529499509097509092909183018282801561331a57602002820191906000526020600020905b815473ffffffffffffffffffffffffffffffffffffffff1681526001909101906020018083116132ef575b50505050509250600091505b825182101561338057836007016000848481518110151561334357fe5b602090810290910181015173ffffffffffffffffffffffffffffffffffffffff168252810191909152604001600090812055600190910190613326565b61338e600685016000615d2c565b5060005b8781101561346a57600684018989838181106133aa57fe5b835460018101855560009485526020948590200180547fffffffffffffffffffffffff00000000000000000000000000000000000000001673ffffffffffffffffffffffffffffffffffffffff959092029390930135939093169290921790555086868281811061341757fe5b905060200201358460070160008b8b85818110151561343257fe5b6020908102929092013573ffffffffffffffffffffffffffffffffffffffff1683525081019190915260400160002055600101613392565b6134738461489c565b60405185907f2e68f13a32c51068abe241b8c7db891d265385114938311f83a31583b2a11d7a90600090a26134cf7fe855346402235fdd185c890e68d2c4ecad599b88587635ee285bce2fda58dacb600063ffffffff61376a16565b505050505050505050565b73ffffffffffffffffffffffffffffffffffffffff81166000908152600560209081526040808320548151808301909252601d82527f504159524f4c4c5f454d504c4f5945455f444f45534e545f4558495354000000928201929092529015156135a0576040517f08c379a000000000000000000000000000000000000000000000000000000000815260040180806020018281038252838181518152602001915080519060200190808383600083811015610af8578181015183820152602001610ae0565b505073ffffffffffffffffffffffffffffffffffffffff1660009081526005602052604090205490565b4390565b604080516003808252608082019092526060916020820183803883390190505090508381600081518110151561360057fe5b60209081029091010152805183908290600190811061361b57fe5b60209081029091010152805182908290600290811061363657fe5b602090810290910101529392505050565b600081815260046020526040812061365e9061561d565b92915050565b60008060008061367386615651565b925082151561368557600093506136e8565b8560010154915084156136d857508082028183828115156136a257fe5b0414156136af57806136d1565b7fffffffffffffffffffffffffffffffffffffffffffffffffffffffffffffffff5b93506136e8565b6136d1828463ffffffff6156ca16565b50505092915050565b60008281526004602052604090206002810154613714908363ffffffff61578c16565b600282015560408051838152905184917f494c76e58dab1186acc63fd537885795bd237ae0feb2d4d3f6092ca77f594f83919081900360200190a2505050565b600061185b613761615831565b615835565b5490565b9055565b60408051808201909152601d81527f504159524f4c4c5f454d504c4f5945455f4e554c4c5f41444452455353000000602082015273ffffffffffffffffffffffffffffffffffffffff82161515613821576040517f08c379a000000000000000000000000000000000000000000000000000000000815260040180806020018281038252838181518152602001915080519060200190808383600083811015610af8578181015183820152602001610ae0565b5073ffffffffffffffffffffffffffffffffffffffff8116600090815260056020908152604091829020548251808401909352601e83527f504159524f4c4c5f454d504c4f5945455f414c52454144595f4558495354000091830191909152156138e7576040517f08c379a000000000000000000000000000000000000000000000000000000000815260040180806020018281038252838181518152602001915080519060200190808383600083811015610af8578181015183820152602001610ae0565b506000828152600460209081526040808320805473ffffffffffffffffffffffffffffffffffffffff9095167fffffffffffffffffffffffff000000000000000000000000000000000000000090951685179055928252600590522055565b60408051600280825260608083018452926020830190803883390190505090508281600081518110151561397657fe5b60209081029091010152805182908290600190811061399157fe5b6020908102909101015292915050565b6139a9613754565b60408051808201909152601d81527f504159524f4c4c5f504153545f5445524d494e4154494f4e5f4441544500000060208201529067ffffffffffffffff9081169083161015613a55576040517f08c379a000000000000000000000000000000000000000000000000000000000815260040180806020018281038252838181518152602001915080519060200190808383600083811015610af8578181015183820152602001610ae0565b5060008281526004602090815260409182902060050180547fffffffffffffffffffffffffffffffff0000000000000000ffffffffffffffff166801000000000000000067ffffffffffffffff8616908102919091179091558251908152915184927f64eed8d28fe1c502b235bba967ed50243ed5fbda55daa5388ede25613185f8af92908290030190a25050565b60009081526004602052604090205473ffffffffffffffffffffffffffffffffffffffff16151590565b613b16611ab3565b60408051808201909152601881527f494e49545f414c52454144595f494e495449414c495a4544000000000000000060208201529015613bb2576040517f08c379a000000000000000000000000000000000000000000000000000000000815260040180806020018281038252838181518152602001915080519060200190808383600083811015610af8578181015183820152602001610ae0565b50613beb613bbe6135ca565b7febb05b386a8d34882b8711d156f463690983dc47815980fb82aeeff1aa43579e9063ffffffff61376a16565b565b60008073ffffffffffffffffffffffffffffffffffffffff83161515613c165760009150612148565b50506000903b1190565b613c2981613bed565b60408051808201909152601981527f504159524f4c4c5f464545445f4e4f545f434f4e5452414354000000000000006020820152901515613cc6576040517f08c379a000000000000000000000000000000000000000000000000000000000815260040180806020018281038252838181518152602001915080519060200190808383600083811015610af8578181015183820152602001610ae0565b50600280547fffffffffffffffffffffffff00000000000000000000000000000000000000001673ffffffffffffffffffffffffffffffffffffffff83811691909117918290556040519116907ff724a45d041687842411f2b977ef22ab8f43c8f1104f4592b42a00f9b34a643d90600090a250565b60408051808201909152601d81527f504159524f4c4c5f4558504952595f54494d455f544f4f5f53484f52540000006020820152603c67ffffffffffffffff83161015613de5576040517f08c379a000000000000000000000000000000000000000000000000000000000815260040180806020018281038252838181518152602001915080519060200190808383600083811015610af8578181015183820152602001610ae0565b506002805467ffffffffffffffff808416740100000000000000000000000000000000000000009081027fffffffff0000000000000000ffffffffffffffffffffffffffffffffffffffff9093169290921792839055604080519290930416815290517f79f849dfd7cf0efc92191ac811c877afb4d27891c560189c77117e755b103a3e9181900360200190a150565b60606126938373ffffffffffffffffffffffffffffffffffffffff168373ffffffffffffffffffffffffffffffffffffffff16613946565b606061365e8273ffffffffffffffffffffffffffffffffffffffff166158e9565b5490565b6040805173ffffffffffffffffffffffffffffffffffffffff83166024808301919091528251808303909101815260449091019091526020810180517bffffffffffffffffffffffffffffffffffffffffffffffffffffffff167f70a08231000000000000000000000000000000000000000000000000000000001790526000908180613f5f868461592a565b60408051808201909152601c81527f534146455f4552435f32305f42414c414e43455f52455645525445440000000060208201529193509150821515614001576040517f08c379a000000000000000000000000000000000000000000000000000000000815260040180806020018281038252838181518152602001915080519060200190808383600083811015610af8578181015183820152602001610ae0565b5095945050505050565b6040805173ffffffffffffffffffffffffffffffffffffffff8416602482015260448082018490528251808303909101815260649091019091526020810180517bffffffffffffffffffffffffffffffffffffffffffffffffffffffff167fa9059cbb0000000000000000000000000000000000000000000000000000000017905260009061409a858261595b565b95945050505050565b8051602002815290565b60008060006140bd846001613664565b9150836002015482019050818110156140f357507fffffffffffffffffffffffffffffffffffffffffffffffffffffffffffffffff5b8092505b5050919050565b60008281526004602052604090206003810154614121908363ffffffff61578c16565b600382015560408051838152905184917f02eaf727c9cb2b9ae1c0d973092bfa6431d79978bf1db9f57ec4279a8c1eb85a919081900360200190a2505050565b600082815260046020819052604090912090810154614186908363ffffffff61578c16565b600482015560408051838152905184917f594fd22b20a17265cf2b4459acd7f1b6fa11f6a0046fa052bba6ef7f1ee95392919081900360200190a2505050565b60606000806060806141d66109e2565b60408051808201909152601481527f494e49545f4e4f545f494e495449414c495a45440000000000000000000000006020820152901515614273576040517f08c379a000000000000000000000000000000000000000000000000000000000815260040180806020018281038252838181518152602001915080519060200190808383600083811015610af8578181015183820152602001610ae0565b5060008061427f61269a565b9150614289611830565b90506142948a6111cd565b60408051808201909152601b81527f45564d52554e5f4558454355544f525f554e415641494c41424c450000000000602082015290965073ffffffffffffffffffffffffffffffffffffffff8716151561434a576040517f08c379a000000000000000000000000000000000000000000000000000000000815260040180806020018281038252838181518152602001915080519060200190808383600083811015610af8578181015183820152602001610ae0565b506040516060602482019081528b5160848301528b517f279cea3500000000000000000000000000000000000000000000000000000000975087928d928d928d9282916044820191606481019160a490910190602089019080838360005b838110156143c05781810151838201526020016143a8565b50505050905090810190601f1680156143ed5780820380516001836020036101000a031916815260200191505b50848103835286518152865160209182019188019080838360005b83811015614420578181015183820152602001614408565b50505050905090810190601f16801561444d5780820380516001836020036101000a031916815260200191505b508481038252855181528551602091820191808801910280838360005b8381101561448257818101518382015260200161446a565b505050509050019650505050505050604051602081830303815290604052907bffffffffffffffffffffffffffffffffffffffffffffffffffffffff19166020820180517bffffffffffffffffffffffffffffffffffffffffffffffffffffffff83818316178352505050509350600080855160208701895af4604051935080801561458757603f3d1180156145255760203d03806020883e8601604052614581565b7f08c379a000000000000000000000000000000000000000000000000000000000865260206004870152601e60248701527f45564d52554e5f4558454355544f525f494e56414c49445f52455455524e00006044870152606486fd5b50614590565b3d6000863e3d85fd5b50508573ffffffffffffffffffffffffffffffffffffffff167f5229a5dba83a54ae8cb5b51bdd6de9474cacbe9dd332f5185f3a4f4f2e3f4ad98b8b8660405180806020018060200180602001848103845287818151815260200191508051906020019080838360005b838110156146125781810151838201526020016145fa565b50505050905090810190601f16801561463f5780820380516001836020036101000a031916815260200191505b50848103835286518152865160209182019188019080838360005b8381101561467257818101518382015260200161465a565b50505050905090810190601f16801561469f5780820380516001836020036101000a031916815260200191505b50848103825285518152855160209182019187019080838360005b838110156146d25781810151838201526020016146ba565b50505050905090810190601f1680156146ff5780820380516001836020036101000a031916815260200191505b50965050505050505060405180910390a28296508173ffffffffffffffffffffffffffffffffffffffff1661473261269a565b73ffffffffffffffffffffffffffffffffffffffff16146040805190810160405280601f81526020017f45564d52554e5f50524f5445435445445f53544154455f4d4f444946494544008152509015156147e8576040517f08c379a000000000000000000000000000000000000000000000000000000000815260040180806020018281038252838181518152602001915080519060200190808383600083811015610af8578181015183820152602001610ae0565b50806147f2611830565b60408051808201909152601f81527f45564d52554e5f50524f5445435445445f53544154455f4d4f444946494544006020820152911461488e576040517f08c379a000000000000000000000000000000000000000000000000000000000815260040180806020018281038252838181518152602001915080519060200190808383600083811015610af8578181015183820152602001610ae0565b505050505050509392505050565b60006060600080600093508460060180548060200260200160405190810160405280929190818152602001828054801561490c57602002820191906000526020600020905b815473ffffffffffffffffffffffffffffffffffffffff1681526001909101906020018083116148e1575b50505050509250600091505b8251821015614a4b57828281518110151561492f57fe5b602090810290910181015173ffffffffffffffffffffffffffffffffffffffff8116600090815260068352604090819020548151808301909252601982527f504159524f4c4c5f4e4f545f414c4c4f5745445f544f4b454e00000000000000938201939093529092509060ff161515614a04576040517f08c379a000000000000000000000000000000000000000000000000000000000815260040180806020018281038252838181518152602001915080519060200190808383600083811015610af8578181015183820152602001610ae0565b5073ffffffffffffffffffffffffffffffffffffffff81166000908152600786016020526040902054614a3e90859063ffffffff61578c16565b9350600190910190614918565b60408051808201909152601d81527f504159524f4c4c5f444953545249425554494f4e5f4e4f545f46554c4c000000602082015260648514614ae9576040517f08c379a000000000000000000000000000000000000000000000000000000000815260040180806020018281038252838181518152602001915080519060200190808383600083811015610af8578181015183820152602001610ae0565b505050505050565b60408051808201909152601481527f504159524f4c4c5f4e4f5448494e475f504149440000000000000000000000006020820152600090818411614b91576040517f08c379a000000000000000000000000000000000000000000000000000000000815260040180806020018281038252838181518152602001915080519060200190808383600083811015610af8578181015183820152602001610ae0565b5060408051808201909152601d81527f504159524f4c4c5f494e56414c49445f5245515545535445445f414d54000000602082015282841015614c30576040517f08c379a000000000000000000000000000000000000000000000000000000000815260040180806020018281038252838181518152602001915080519060200190808383600083811015610af8578181015183820152602001610ae0565b50600082116121485782612693565b6002820154600080808080858711614c5e578686036002890155614dcc565b8694506000861115614c77576000600289015585870394505b60018801549350614c8e858563ffffffff6159a916565b92508385811515614c9b57fe5b0691506000821115614cc357614cb883600163ffffffff61578c16565b82850360028a015592505b6005880154614ce29067ffffffffffffffff168463ffffffff61578c16565b9050614cec613754565b60408051808201909152601981527f504159524f4c4c5f4c4153545f444154455f544f4f5f4249470000000000000060208201529067ffffffffffffffff16821115614d94576040517f08c379a000000000000000000000000000000000000000000000000000000000815260040180806020018281038252838181518152602001915080519060200190808383600083811015610af8578181015183820152602001610ae0565b506005880180547fffffffffffffffffffffffffffffffffffffffffffffffff00000000000000001667ffffffffffffffff83161790555b5050505050505050565b60408051808201909152601281527f4d4154485f5355425f554e444552464c4f5700000000000000000000000000006020820152600090819084841115614e79576040517f08c379a000000000000000000000000000000000000000000000000000000000815260040180806020018281038252838181518152602001915080519060200190808383600083811015610af8578181015183820152602001610ae0565b505050900390565b6000808060608180808080808b1515614e9d5760009950615363565b60008e8152600460205260409020805490995073ffffffffffffffffffffffffffffffffffffffff169750614ed18d615a60565b9650886006019550600094505b8554851015615363578585815481101515614ef557fe5b600091825260208083209091015473ffffffffffffffffffffffffffffffffffffffff1680835260078c019091526040909120549094509250821561535857614f3d84615b4c565b915060008b5111614f515760008211614f6d565b8a85815181101515614f5f57fe5b906020019060200201518210155b60408051808201909152601d81527f504159524f4c4c5f45584348414e47455f524154455f544f4f5f4c4f57000000602082015290151561500a576040517f08c379a000000000000000000000000000000000000000000000000000000000815260040180806020018281038252838181518152602001915080519060200190808383600083811015610af8578181015183820152602001610ae0565b5061502b8361501f8e8563ffffffff6156ca16565b9063ffffffff6156ca16565b90506150ff600260009054906101000a900473ffffffffffffffffffffffffffffffffffffffff1673ffffffffffffffffffffffffffffffffffffffff1663f40a04486040518163ffffffff167c0100000000000000000000000000000000000000000000000000000000028152600401602060405180830381600087803b1580156150b657600080fd5b505af11580156150ca573d6000803e3d6000fd5b505050506040513d60208110156150e057600080fd5b50516150f383606463ffffffff6159a916565b9063ffffffff6159a916565b90506000809054906101000a900473ffffffffffffffffffffffffffffffffffffffff1673ffffffffffffffffffffffffffffffffffffffff1663f6364846858a848b6040518563ffffffff167c0100000000000000000000000000000000000000000000000000000000028152600401808573ffffffffffffffffffffffffffffffffffffffff1673ffffffffffffffffffffffffffffffffffffffff1681526020018473ffffffffffffffffffffffffffffffffffffffff1673ffffffffffffffffffffffffffffffffffffffff16815260200183815260200180602001828103825283818151815260200191508051906020019080838360005b838110156152145781810151838201526020016151fc565b50505050905090810190601f1680156152415780820380516001836020036101000a031916815260200191505b5095505050505050600060405180830381600087803b15801561526357600080fd5b505af1158015615277573d6000803e3d6000fd5b505050508373ffffffffffffffffffffffffffffffffffffffff168873ffffffffffffffffffffffffffffffffffffffff168f7fc517ef2ebef7336f05f233ebf372c7096b88120031a6cfd2e3b1bb7697ae7bf984868c6040518084815260200183815260200180602001828103825283818151815260200191508051906020019080838360005b838110156153175781810151838201526020016152ff565b50505050905090810190601f1680156153445780820380516001836020036101000a031916815260200191505b5094505050505060405180910390a4600199505b600190940193614ede565b505050505050505050949350505050565b6000818152600460205260409020600581015467ffffffffffffffff80821668010000000000000000909204161480156153cb575060028101541580156153bd57506003810154155b80156153cb57506004810154155b1561547f57805473ffffffffffffffffffffffffffffffffffffffff166000908152600560208181526040808420849055858452600491829052832080547fffffffffffffffffffffffff000000000000000000000000000000000000000016815560018101849055600281018490556003810184905590810183905590810180547fffffffffffffffffffffffffffffffff00000000000000000000000000000000169055906127f36006830182615d2c565b5050565b60606154a68473ffffffffffffffffffffffffffffffffffffffff1684846135ce565b949350505050565b600380546001810190915560006154c5828761376e565b506000818152600460209081526040808320600181018890556005810180547fffffffffffffffffffffffffffffffff0000000000000000ffffffffffffffff67ffffffffffffffff8a167fffffffffffffffffffffffffffffffffffffffffffffffff00000000000000009092168217166fffffffffffffffff00000000000000001790915582518981528085019190915260609281018381528751938201939093528651919473ffffffffffffffffffffffffffffffffffffffff8b169487947f3ffb58fcadedbe7d45e1447eaeeba102f5ac5bbd44b7b99eab1dff2772d07225948c948c948c9491939260808501928601918190849084905b838110156155d95781810151838201526020016155c1565b50505050905090810190601f1680156156065780820380516001836020036101000a031916815260200191505b5094505050505060405180910390a3505050505050565b6000615627613754565b600583015467ffffffffffffffff9182166801000000000000000090910490911610159050919050565b60008061565d8361561d565b61568157600583015468010000000000000000900467ffffffffffffffff16615689565b615689613754565b600584015490915067ffffffffffffffff908116908216116156ae5760009150612148565b600583015467ffffffffffffffff908116820316915050919050565b6000808315156156dd57600091506111c6565b508282028284828115156156ed57fe5b60408051808201909152601181527f4d4154485f4d554c5f4f564552464c4f5700000000000000000000000000000060208201529291900414611f88576040517f08c379a000000000000000000000000000000000000000000000000000000000815260040180806020018281038252838181518152602001915080519060200190808383600083811015610af8578181015183820152602001610ae0565b60408051808201909152601181527f4d4154485f4144445f4f564552464c4f5700000000000000000000000000000060208201526000908383019084821015611f88576040517f08c379a000000000000000000000000000000000000000000000000000000000815260040180806020018281038252838181518152602001915080519060200190808383600083811015610af8578181015183820152602001610ae0565b4290565b60408051808201909152601581527f55494e5436345f4e554d4245525f544f4f5f4249470000000000000000000000602082015260009067ffffffffffffffff8311156158de576040517f08c379a000000000000000000000000000000000000000000000000000000000815260040180806020018281038252838181518152602001915080519060200190808383600083811015610af8578181015183820152602001610ae0565b5090919050565b9055565b604080516001808252818301909252606091602080830190803883390190505090508181600081518110151561591b57fe5b60209081029091010152919050565b6000806000806040516020818751602089018a5afa9250600083111561594f57805191505b50909590945092505050565b6000806040516020818551602087016000895af1600081111561599f573d801561598c57602081146159955761599d565b6001935061599d565b600183511493505b505b5090949350505050565b60408051808201909152600d81527f4d4154485f4449565f5a45524f0000000000000000000000000000000000000060208201526000908190818411615a4b576040517f08c379a000000000000000000000000000000000000000000000000000000000815260040180806020018281038252838181518152602001915080519060200190808383600083811015610af8578181015183820152602001610ae0565b508284811515615a5757fe5b04949350505050565b60606000826002811115615a7057fe5b1415615ab0575060408051808201909152600f81527f456d706c6f7965652073616c617279000000000000000000000000000000000060208201526112d6565b6001826002811115615abe57fe5b1415615afe575060408051808201909152601681527f456d706c6f796565207265696d62757273656d656e740000000000000000000060208201526112d6565b6002826002811115615b0c57fe5b1415612b64575060408051808201909152600e81527f456d706c6f79656520626f6e757300000000000000000000000000000000000060208201526112d6565b600254600154604080517fd81e842300000000000000000000000000000000000000000000000000000000815273ffffffffffffffffffffffffffffffffffffffff9283166004820152848316602482015281516000948594859491169263d81e8423926044808301939282900301818787803b158015615bcc57600080fd5b505af1158015615be0573d6000803e3d6000fd5b505050506040513d6040811015615bf657600080fd5b508051602090910151600254919350915074010000000000000000000000000000000000000000900467ffffffffffffffff16615c4b82615c35613754565b67ffffffffffffffff169063ffffffff615c7c16565b67ffffffffffffffff1610615c6357600092506140f7565b506fffffffffffffffffffffffffffffffff1692915050565b60408051808201909152601481527f4d41544836345f5355425f554e444552464c4f570000000000000000000000006020820152600090819067ffffffffffffffff8086169085161115614e79576040517f08c379a000000000000000000000000000000000000000000000000000000000815260040180806020018281038252838181518152602001915080519060200190808383600083811015610af8578181015183820152602001610ae0565b5080546000825590600052602060002090810190615d4a9190615d4d565b50565b6113b791905b80821115610a085760008155600101615d535600a165627a7a72305820592579f8f081d7e37124ff72cfcbf4bf0d61cf3dc059f6f28488fb1daa33efe80029ebb05b386a8d34882b8711d156f463690983dc47815980fb82aeeff1aa43579e",
  "source": "pragma solidity 0.4.24;\n\nimport \"@aragon/os/contracts/apps/AragonApp.sol\";\nimport \"@aragon/os/contracts/common/EtherTokenConstant.sol\";\nimport \"@aragon/os/contracts/common/IsContract.sol\";\nimport \"@aragon/os/contracts/common/IForwarder.sol\";\n\nimport \"@aragon/os/contracts/lib/math/SafeMath.sol\";\nimport \"@aragon/os/contracts/lib/math/SafeMath64.sol\";\n\nimport \"@aragon/ppf-contracts/contracts/IFeed.sol\";\nimport \"@aragon/apps-finance/contracts/Finance.sol\";\n\n\n/**\n * @title Payroll in multiple currencies\n */\ncontract Payroll is EtherTokenConstant, IForwarder, IsContract, AragonApp {\n    using SafeMath for uint256;\n    using SafeMath64 for uint64;\n\n    /* Hardcoded constants to save gas\n    * bytes32 constant public ADD_EMPLOYEE_ROLE = keccak256(\"ADD_EMPLOYEE_ROLE\");\n    * bytes32 constant public TERMINATE_EMPLOYEE_ROLE = keccak256(\"TERMINATE_EMPLOYEE_ROLE\");\n    * bytes32 constant public SET_EMPLOYEE_SALARY_ROLE = keccak256(\"SET_EMPLOYEE_SALARY_ROLE\");\n    * bytes32 constant public ADD_BONUS_ROLE = keccak256(\"ADD_BONUS_ROLE\");\n    * bytes32 constant public ADD_REIMBURSEMENT_ROLE = keccak256(\"ADD_REIMBURSEMENT_ROLE\");\n    * bytes32 constant public MANAGE_ALLOWED_TOKENS_ROLE = keccak256(\"MANAGE_ALLOWED_TOKENS_ROLE\");\n    * bytes32 constant public MODIFY_PRICE_FEED_ROLE = keccak256(\"MODIFY_PRICE_FEED_ROLE\");\n    * bytes32 constant public MODIFY_RATE_EXPIRY_ROLE = keccak256(\"MODIFY_RATE_EXPIRY_ROLE\");\n    */\n\n    bytes32 constant public ADD_EMPLOYEE_ROLE = 0x9ecdc3c63716b45d0756eece5fe1614cae1889ec5a1ce62b3127c1f1f1615d6e;\n    bytes32 constant public TERMINATE_EMPLOYEE_ROLE = 0x69c67f914d12b6440e7ddf01961214818d9158fbcb19211e0ff42800fdea9242;\n    bytes32 constant public SET_EMPLOYEE_SALARY_ROLE = 0xea9ac65018da2421cf419ee2152371440c08267a193a33ccc1e39545d197e44d;\n    bytes32 constant public ADD_BONUS_ROLE = 0xceca7e2f5eb749a87aaf68f3f76d6b9251aa2f4600f13f93c5a4adf7a72df4ae;\n    bytes32 constant public ADD_REIMBURSEMENT_ROLE = 0x90698b9d54427f1e41636025017309bdb1b55320da960c8845bab0a504b01a16;\n    bytes32 constant public MANAGE_ALLOWED_TOKENS_ROLE = 0x0be34987c45700ee3fae8c55e270418ba903337decc6bacb1879504be9331c06;\n    bytes32 constant public MODIFY_PRICE_FEED_ROLE = 0x74350efbcba8b85341c5bbf70cc34e2a585fc1463524773a12fa0a71d4eb9302;\n    bytes32 constant public MODIFY_RATE_EXPIRY_ROLE = 0x79fe989a8899060dfbdabb174ebb96616fa9f1d9dadd739f8d814cbab452404e;\n\n    uint256 internal constant MAX_ALLOWED_TOKENS = 20; // prevent OOG issues with `payday()`\n    uint64 internal constant MIN_RATE_EXPIRY = uint64(1 minutes); // 1 min == ~4 block window to mine both a price feed update and a payout\n\n    uint256 internal constant MAX_UINT256 = uint256(-1);\n    uint64 internal constant MAX_UINT64 = uint64(-1);\n\n    string private constant ERROR_EMPLOYEE_DOESNT_EXIST = \"PAYROLL_EMPLOYEE_DOESNT_EXIST\";\n    string private constant ERROR_NON_ACTIVE_EMPLOYEE = \"PAYROLL_NON_ACTIVE_EMPLOYEE\";\n    string private constant ERROR_SENDER_DOES_NOT_MATCH = \"PAYROLL_SENDER_DOES_NOT_MATCH\";\n    string private constant ERROR_FINANCE_NOT_CONTRACT = \"PAYROLL_FINANCE_NOT_CONTRACT\";\n    string private constant ERROR_TOKEN_ALREADY_SET = \"PAYROLL_TOKEN_ALREADY_SET\";\n    string private constant ERROR_MAX_ALLOWED_TOKENS = \"PAYROLL_MAX_ALLOWED_TOKENS\";\n    string private constant ERROR_MIN_RATES_MISMATCH = \"PAYROLL_MIN_RATES_MISMATCH\";\n    string private constant ERROR_TOKEN_ALLOCATION_MISMATCH = \"PAYROLL_TOKEN_ALLOCATION_MISMATCH\";\n    string private constant ERROR_NOT_ALLOWED_TOKEN = \"PAYROLL_NOT_ALLOWED_TOKEN\";\n    string private constant ERROR_DISTRIBUTION_NOT_FULL = \"PAYROLL_DISTRIBUTION_NOT_FULL\";\n    string private constant ERROR_INVALID_PAYMENT_TYPE = \"PAYROLL_INVALID_PAYMENT_TYPE\";\n    string private constant ERROR_NOTHING_PAID = \"PAYROLL_NOTHING_PAID\";\n    string private constant ERROR_CAN_NOT_FORWARD = \"PAYROLL_CAN_NOT_FORWARD\";\n    string private constant ERROR_EMPLOYEE_NULL_ADDRESS = \"PAYROLL_EMPLOYEE_NULL_ADDRESS\";\n    string private constant ERROR_EMPLOYEE_ALREADY_EXIST = \"PAYROLL_EMPLOYEE_ALREADY_EXIST\";\n    string private constant ERROR_FEED_NOT_CONTRACT = \"PAYROLL_FEED_NOT_CONTRACT\";\n    string private constant ERROR_EXPIRY_TIME_TOO_SHORT = \"PAYROLL_EXPIRY_TIME_TOO_SHORT\";\n    string private constant ERROR_PAST_TERMINATION_DATE = \"PAYROLL_PAST_TERMINATION_DATE\";\n    string private constant ERROR_EXCHANGE_RATE_TOO_LOW = \"PAYROLL_EXCHANGE_RATE_TOO_LOW\";\n    string private constant ERROR_LAST_PAYROLL_DATE_TOO_BIG = \"PAYROLL_LAST_DATE_TOO_BIG\";\n    string private constant ERROR_INVALID_REQUESTED_AMOUNT = \"PAYROLL_INVALID_REQUESTED_AMT\";\n\n    enum PaymentType { Payroll, Reimbursement, Bonus }\n\n    struct Employee {\n        address accountAddress; // unique, but can be changed over time\n        uint256 denominationTokenSalary; // salary per second in denomination Token\n        uint256 accruedSalary; // keep track of any leftover accrued salary when changing salaries\n        uint256 bonus;\n        uint256 reimbursements;\n        uint64 lastPayroll;\n        uint64 endDate;\n        address[] allocationTokenAddresses;\n        mapping(address => uint256) allocationTokens;\n    }\n\n    Finance public finance;\n    address public denominationToken;\n    IFeed public feed;\n    uint64 public rateExpiryTime;\n\n    // Employees start at index 1, to allow us to use employees[0] to check for non-existent employees\n    uint256 public nextEmployee;\n    mapping(uint256 => Employee) internal employees;     // employee ID -> employee\n    mapping(address => uint256) internal employeeIds;    // employee address -> employee ID\n\n    mapping(address => bool) internal allowedTokens;\n\n    event AddEmployee(\n        uint256 indexed employeeId,\n        address indexed accountAddress,\n        uint256 initialDenominationSalary,\n        uint64 startDate,\n        string role\n    );\n    event TerminateEmployee(uint256 indexed employeeId, uint64 endDate);\n    event SetEmployeeSalary(uint256 indexed employeeId, uint256 denominationSalary);\n    event AddEmployeeAccruedSalary(uint256 indexed employeeId, uint256 amount);\n    event AddEmployeeBonus(uint256 indexed employeeId, uint256 amount);\n    event AddEmployeeReimbursement(uint256 indexed employeeId, uint256 amount);\n    event ChangeAddressByEmployee(uint256 indexed employeeId, address indexed newAccountAddress, address indexed oldAccountAddress);\n    event DetermineAllocation(uint256 indexed employeeId);\n    event SendPayment(\n        uint256 indexed employeeId,\n        address indexed accountAddress,\n        address indexed token,\n        uint256 amount,\n        uint256 exchangeRate,\n        string paymentReference\n    );\n    event SetAllowedToken(address indexed token, bool allowed);\n    event SetPriceFeed(address indexed feed);\n    event SetRateExpiryTime(uint64 time);\n\n    // Check employee exists by ID\n    modifier employeeIdExists(uint256 _employeeId) {\n        require(_employeeExists(_employeeId), ERROR_EMPLOYEE_DOESNT_EXIST);\n        _;\n    }\n\n    // Check employee exists and is still active\n    modifier employeeActive(uint256 _employeeId) {\n        // No need to check for existence as _isEmployeeIdActive() is false for non-existent employees\n        require(_isEmployeeIdActive(_employeeId), ERROR_NON_ACTIVE_EMPLOYEE);\n        _;\n    }\n\n    // Check sender matches an existing employee\n    modifier employeeMatches {\n        require(employees[employeeIds[msg.sender]].accountAddress == msg.sender, ERROR_SENDER_DOES_NOT_MATCH);\n        _;\n    }\n\n    /**\n     * @notice Initialize Payroll app for Finance at `_finance` and price feed at `_priceFeed`, setting denomination token to `_token` and exchange rate expiry time to `@transformTime(_rateExpiryTime)`\n     * @dev Note that we do not require _denominationToken to be a contract, as it may be a \"fake\"\n     *      address used by the price feed to denominate fiat currencies\n     * @param _finance Address of the Finance app this Payroll app will rely on for payments (non-changeable)\n     * @param _denominationToken Address of the denomination token used for salary accounting\n     * @param _priceFeed Address of the price feed\n     * @param _rateExpiryTime Acceptable expiry time in seconds for the price feed's exchange rates\n     */\n    function initialize(Finance _finance, address _denominationToken, IFeed _priceFeed, uint64 _rateExpiryTime) external onlyInit {\n        initialized();\n\n        require(isContract(_finance), ERROR_FINANCE_NOT_CONTRACT);\n        finance = _finance;\n\n        denominationToken = _denominationToken;\n        _setPriceFeed(_priceFeed);\n        _setRateExpiryTime(_rateExpiryTime);\n\n        // Employees start at index 1, to allow us to use employees[0] to check for non-existent employees\n        nextEmployee = 1;\n    }\n\n    /**\n     * @notice `_allowed ? 'Add' : 'Remove'` `_token.symbol(): string` `_allowed ? 'to' : 'from'` the set of allowed tokens\n     * @param _token Address of the token to be added or removed from the list of allowed tokens for payments\n     * @param _allowed Boolean to tell whether the given token should be added or removed from the list\n     */\n    function setAllowedToken(address _token, bool _allowed) external authP(MANAGE_ALLOWED_TOKENS_ROLE, arr(_token)) {\n        require(allowedTokens[_token] != _allowed, ERROR_TOKEN_ALREADY_SET);\n        allowedTokens[_token] = _allowed;\n        emit SetAllowedToken(_token, _allowed);\n    }\n\n    /**\n     * @notice Set the price feed for exchange rates to `_feed`\n     * @param _feed Address of the new price feed instance\n     */\n    function setPriceFeed(IFeed _feed) external authP(MODIFY_PRICE_FEED_ROLE, arr(_feed, feed)) {\n        _setPriceFeed(_feed);\n    }\n\n    /**\n     * @notice Set the acceptable expiry time for the price feed's exchange rates to `@transformTime(_time)`\n     * @dev Exchange rates older than the given value won't be accepted for payments and will cause payouts to revert\n     * @param _time The expiration time in seconds for exchange rates\n     */\n    function setRateExpiryTime(uint64 _time) external authP(MODIFY_RATE_EXPIRY_ROLE, arr(uint256(_time), uint256(rateExpiryTime))) {\n        _setRateExpiryTime(_time);\n    }\n\n    /**\n     * @notice Add employee with address `_accountAddress` to payroll with an salary of `_initialDenominationSalary` per second, starting on `@formatDate(_startDate)`\n     * @param _accountAddress Employee's address to receive payroll\n     * @param _initialDenominationSalary Employee's salary, per second in denomination token\n     * @param _startDate Employee's starting timestamp in seconds (it actually sets their initial lastPayroll value)\n     * @param _role Employee's role\n     */\n    function addEmployee(address _accountAddress, uint256 _initialDenominationSalary, uint64 _startDate, string _role)\n        external\n        authP(ADD_EMPLOYEE_ROLE, arr(_accountAddress, _initialDenominationSalary, uint256(_startDate)))\n    {\n        _addEmployee(_accountAddress, _initialDenominationSalary, _startDate, _role);\n    }\n\n    /**\n     * @notice Add `_amount` to bonus for employee #`_employeeId`\n     * @param _employeeId Employee's identifier\n     * @param _amount Amount to be added to the employee's bonuses in denomination token\n     */\n    function addBonus(uint256 _employeeId, uint256 _amount)\n        external\n        authP(ADD_BONUS_ROLE, arr(_employeeId, _amount))\n        employeeActive(_employeeId)\n    {\n        _addBonus(_employeeId, _amount);\n    }\n\n    /**\n     * @notice Add `_amount` to reimbursements for employee #`_employeeId`\n     * @param _employeeId Employee's identifier\n     * @param _amount Amount to be added to the employee's reimbursements in denomination token\n     */\n    function addReimbursement(uint256 _employeeId, uint256 _amount)\n        external\n        authP(ADD_REIMBURSEMENT_ROLE, arr(_employeeId, _amount))\n        employeeActive(_employeeId)\n    {\n        _addReimbursement(_employeeId, _amount);\n    }\n\n    /**\n     * @notice Set employee #`_employeeId`'s salary to `_denominationSalary` per second\n     * @dev This reverts if either the employee's owed salary or accrued salary overflows, to avoid\n     *      losing any accrued salary for an employee due to the employer changing their salary.\n     * @param _employeeId Employee's identifier\n     * @param _denominationSalary Employee's new salary, per second in denomination token\n     */\n    function setEmployeeSalary(uint256 _employeeId, uint256 _denominationSalary)\n        external\n        authP(SET_EMPLOYEE_SALARY_ROLE, arr(_employeeId, _denominationSalary, employees[_employeeId].denominationTokenSalary))\n        employeeActive(_employeeId)\n    {\n        Employee storage employee = employees[_employeeId];\n\n        // Accrue employee's owed salary; don't cap to revert on overflow\n        uint256 owed = _getOwedSalarySinceLastPayroll(employee, false);\n        _addAccruedSalary(_employeeId, owed);\n\n        // Update employee to track the new salary and payment date\n        employee.lastPayroll = getTimestamp64();\n        employee.denominationTokenSalary = _denominationSalary;\n\n        emit SetEmployeeSalary(_employeeId, _denominationSalary);\n    }\n\n    /**\n     * @notice Terminate employee #`_employeeId` on `@formatDate(_endDate)`\n     * @param _employeeId Employee's identifier\n     * @param _endDate Termination timestamp in seconds\n     */\n    function terminateEmployee(uint256 _employeeId, uint64 _endDate)\n        external\n        authP(TERMINATE_EMPLOYEE_ROLE, arr(_employeeId, uint256(_endDate)))\n        employeeActive(_employeeId)\n    {\n        _terminateEmployee(_employeeId, _endDate);\n    }\n\n    /**\n     * @notice Change your employee account address to `_newAccountAddress`\n     * @dev Initialization check is implicitly provided by `employeeMatches` as new employees can\n     *      only be added via `addEmployee(),` which requires initialization.\n     *      As the employee is allowed to call this, we enforce non-reentrancy.\n     * @param _newAccountAddress New address to receive payments for the requesting employee\n     */\n    function changeAddressByEmployee(address _newAccountAddress) external employeeMatches nonReentrant {\n        uint256 employeeId = employeeIds[msg.sender];\n        address oldAddress = employees[employeeId].accountAddress;\n\n        _setEmployeeAddress(employeeId, _newAccountAddress);\n        // Don't delete the old address until after setting the new address to check that the\n        // employee specified a new address\n        delete employeeIds[oldAddress];\n\n        emit ChangeAddressByEmployee(employeeId, _newAccountAddress, oldAddress);\n    }\n\n    /**\n     * @notice Set the token distribution for your payments\n     * @dev Initialization check is implicitly provided by `employeeMatches` as new employees can\n     *      only be added via `addEmployee(),` which requires initialization.\n     *      As the employee is allowed to call this, we enforce non-reentrancy.\n     * @param _tokens Array of token addresses; they must belong to the list of allowed tokens\n     * @param _distribution Array with each token's corresponding proportions (must be integers summing to 100)\n     */\n    function determineAllocation(address[] _tokens, uint256[] _distribution) external employeeMatches nonReentrant {\n        // Check array lengthes match\n        require(_tokens.length <= MAX_ALLOWED_TOKENS, ERROR_MAX_ALLOWED_TOKENS);\n        require(_tokens.length == _distribution.length, ERROR_TOKEN_ALLOCATION_MISMATCH);\n\n        uint256 employeeId = employeeIds[msg.sender];\n        Employee storage employee = employees[employeeId];\n\n        // Delete previous token allocations\n        address[] memory previousAllowedTokenAddresses = employee.allocationTokenAddresses;\n        for (uint256 j = 0; j < previousAllowedTokenAddresses.length; j++) {\n            delete employee.allocationTokens[previousAllowedTokenAddresses[j]];\n        }\n        delete employee.allocationTokenAddresses;\n\n        // Set distributions only if given tokens are allowed\n        for (uint256 i = 0; i < _tokens.length; i++) {\n            employee.allocationTokenAddresses.push(_tokens[i]);\n            employee.allocationTokens[_tokens[i]] = _distribution[i];\n        }\n\n        _ensureEmployeeTokenAllocationsIsValid(employee);\n        emit DetermineAllocation(employeeId);\n    }\n\n    /**\n     * @notice Request your `_type == 0 ? 'salary' : _type == 1 ? 'reimbursements' : 'bonus'`\n     * @dev Reverts if no payments were made.\n     *      Initialization check is implicitly provided by `employeeMatches` as new employees can\n     *      only be added via `addEmployee(),` which requires initialization.\n     *      As the employee is allowed to call this, we enforce non-reentrancy.\n     * @param _type Payment type being requested (Payroll, Reimbursement or Bonus)\n     * @param _requestedAmount Requested amount to pay for the payment type. Must be less than or equal to total owed amount for the payment type, or zero to request all.\n     * @param _minRates Array of employee's minimum acceptable rates for their allowed payment tokens\n     */\n    function payday(PaymentType _type, uint256 _requestedAmount, uint256[] _minRates) external employeeMatches nonReentrant {\n        uint256 paymentAmount;\n        uint256 employeeId = employeeIds[msg.sender];\n        Employee storage employee = employees[employeeId];\n        _ensureEmployeeTokenAllocationsIsValid(employee);\n        require(_minRates.length == 0 || _minRates.length == employee.allocationTokenAddresses.length, ERROR_MIN_RATES_MISMATCH);\n\n        // Do internal employee accounting\n        if (_type == PaymentType.Payroll) {\n            // Salary is capped here to avoid reverting at this point if it becomes too big\n            // (so employees aren't DDOSed if their salaries get too large)\n            // If we do use a capped value, the employee's lastPayroll date will be adjusted accordingly\n            uint256 totalOwedSalary = _getTotalOwedCappedSalary(employee);\n            paymentAmount = _ensurePaymentAmount(totalOwedSalary, _requestedAmount);\n            _updateEmployeeAccountingBasedOnPaidSalary(employee, paymentAmount);\n        } else if (_type == PaymentType.Reimbursement) {\n            uint256 owedReimbursements = employee.reimbursements;\n            paymentAmount = _ensurePaymentAmount(owedReimbursements, _requestedAmount);\n            employee.reimbursements = owedReimbursements.sub(paymentAmount);\n        } else if (_type == PaymentType.Bonus) {\n            uint256 owedBonusAmount = employee.bonus;\n            paymentAmount = _ensurePaymentAmount(owedBonusAmount, _requestedAmount);\n            employee.bonus = owedBonusAmount.sub(paymentAmount);\n        } else {\n            revert(ERROR_INVALID_PAYMENT_TYPE);\n        }\n\n        // Actually transfer the owed funds\n        require(_transferTokensAmount(employeeId, _type, paymentAmount, _minRates), ERROR_NOTHING_PAID);\n        _removeEmployeeIfTerminatedAndPaidOut(employeeId);\n    }\n\n    // Forwarding fns\n\n    /**\n     * @dev IForwarder interface conformance. Tells whether the Payroll app is a forwarder or not.\n     * @return Always true\n     */\n    function isForwarder() external pure returns (bool) {\n        return true;\n    }\n\n    /**\n     * @notice Execute desired action as an active employee\n     * @dev IForwarder interface conformance. Allows active employees to run EVMScripts in the context of the Payroll app.\n     * @param _evmScript Script being executed\n     */\n    function forward(bytes _evmScript) public {\n        require(canForward(msg.sender, _evmScript), ERROR_CAN_NOT_FORWARD);\n        bytes memory input = new bytes(0); // TODO: Consider input for this\n\n        // Add the Finance app to the blacklist to disallow employees from executing actions on the\n        // Finance app from Payroll's context (since Payroll requires permissions on Finance)\n        address[] memory blacklist = new address[](1);\n        blacklist[0] = address(finance);\n\n        runScript(_evmScript, input, blacklist);\n    }\n\n    /**\n     * @dev IForwarder interface conformance. Tells whether a given address can forward actions or not.\n     * @param _sender Address of the account intending to forward an action\n     * @return True if the given address is an active employee, false otherwise\n     */\n    function canForward(address _sender, bytes) public view returns (bool) {\n        return _isEmployeeIdActive(employeeIds[_sender]);\n    }\n\n    // Getter fns\n\n    /**\n     * @dev Return employee's identifier by their account address\n     * @param _accountAddress Employee's address to receive payments\n     * @return Employee's identifier\n     */\n    function getEmployeeIdByAddress(address _accountAddress) public view returns (uint256) {\n        require(employeeIds[_accountAddress] != uint256(0), ERROR_EMPLOYEE_DOESNT_EXIST);\n        return employeeIds[_accountAddress];\n    }\n\n    /**\n     * @dev Return all information for employee by their ID\n     * @param _employeeId Employee's identifier\n     * @return Employee's address to receive payments\n     * @return Employee's salary, per second in denomination token\n     * @return Employee's accrued salary\n     * @return Employee's bonus amount\n     * @return Employee's reimbursements amount\n     * @return Employee's last payment date\n     * @return Employee's termination date (max uint64 if none)\n     * @return Employee's allowed payment tokens\n     */\n    function getEmployee(uint256 _employeeId)\n        public\n        view\n        employeeIdExists(_employeeId)\n        returns (\n            address accountAddress,\n            uint256 denominationSalary,\n            uint256 accruedSalary,\n            uint256 bonus,\n            uint256 reimbursements,\n            uint64 lastPayroll,\n            uint64 endDate,\n            address[] allocationTokens\n        )\n    {\n        Employee storage employee = employees[_employeeId];\n\n        accountAddress = employee.accountAddress;\n        denominationSalary = employee.denominationTokenSalary;\n        accruedSalary = employee.accruedSalary;\n        bonus = employee.bonus;\n        reimbursements = employee.reimbursements;\n        lastPayroll = employee.lastPayroll;\n        endDate = employee.endDate;\n        allocationTokens = employee.allocationTokenAddresses;\n    }\n\n    /**\n     * @dev Get owed salary since last payroll for an employee. It will take into account the accrued salary as well.\n     *      The result will be capped to max uint256 to avoid having an overflow.\n     * @return Employee's total owed salary: current owed payroll since the last payroll date, plus the accrued salary.\n     */\n    function getTotalOwedSalary(uint256 _employeeId) public view employeeIdExists(_employeeId) returns (uint256) {\n        return _getTotalOwedCappedSalary(employees[_employeeId]);\n    }\n\n    /**\n     * @dev Get an employee's payment allocation for a token\n     * @param _employeeId Employee's identifier\n     * @param _token Token to query the payment allocation for\n     * @return Employee's payment allocation for the token being queried\n     */\n    function getAllocation(uint256 _employeeId, address _token) public view employeeIdExists(_employeeId) returns (uint256) {\n        return employees[_employeeId].allocationTokens[_token];\n    }\n\n    /**\n     * @dev Check if a token is allowed to be used for payments\n     * @param _token Address of the token to be checked\n     * @return True if the given token is allowed, false otherwise\n     */\n    function isTokenAllowed(address _token) public view isInitialized returns (bool) {\n        return allowedTokens[_token];\n    }\n\n    // Internal fns\n\n    /**\n     * @dev Set the price feed used for exchange rates\n     * @param _feed Address of the new price feed instance\n     */\n    function _setPriceFeed(IFeed _feed) internal {\n        require(isContract(_feed), ERROR_FEED_NOT_CONTRACT);\n        feed = _feed;\n        emit SetPriceFeed(feed);\n    }\n\n    /**\n     * @dev Set the exchange rate expiry time in seconds.\n     *      Exchange rates older than the given value won't be accepted for payments and will cause\n     *      payouts to revert.\n     * @param _time The expiration time in seconds for exchange rates\n     */\n    function _setRateExpiryTime(uint64 _time) internal {\n        // Require a sane minimum for the rate expiry time\n        require(_time >= MIN_RATE_EXPIRY, ERROR_EXPIRY_TIME_TOO_SHORT);\n        rateExpiryTime = _time;\n        emit SetRateExpiryTime(rateExpiryTime);\n    }\n\n    /**\n     * @dev Add a new employee to Payroll\n     * @param _accountAddress Employee's address to receive payroll\n     * @param _initialDenominationSalary Employee's salary, per second in denomination token\n     * @param _startDate Employee's starting timestamp in seconds\n     * @param _role Employee's role\n     */\n    function _addEmployee(address _accountAddress, uint256 _initialDenominationSalary, uint64 _startDate, string _role) internal {\n        uint256 employeeId = nextEmployee++;\n\n        _setEmployeeAddress(employeeId, _accountAddress);\n\n        Employee storage employee = employees[employeeId];\n        employee.denominationTokenSalary = _initialDenominationSalary;\n        employee.lastPayroll = _startDate;\n        employee.endDate = MAX_UINT64;\n\n        emit AddEmployee(employeeId, _accountAddress, _initialDenominationSalary, _startDate, _role);\n    }\n\n    /**\n     * @dev Add amount to an employee's bonuses\n     * @param _employeeId Employee's identifier\n     * @param _amount Amount be added to the employee's bonuses in denomination token\n     */\n    function _addBonus(uint256 _employeeId, uint256 _amount) internal {\n        Employee storage employee = employees[_employeeId];\n        employee.bonus = employee.bonus.add(_amount);\n        emit AddEmployeeBonus(_employeeId, _amount);\n    }\n\n    /**\n     * @dev Add amount to an employee's reimbursements\n     * @param _employeeId Employee's identifier\n     * @param _amount Amount be added to the employee's reimbursements in denomination token\n     */\n    function _addReimbursement(uint256 _employeeId, uint256 _amount) internal {\n        Employee storage employee = employees[_employeeId];\n        employee.reimbursements = employee.reimbursements.add(_amount);\n        emit AddEmployeeReimbursement(_employeeId, _amount);\n    }\n\n    /**\n     * @dev Add amount to an employee's accrued salary\n     * @param _employeeId Employee's identifier\n     * @param _amount Amount be added to the employee's accrued salary in denomination token\n     */\n    function _addAccruedSalary(uint256 _employeeId, uint256 _amount) internal {\n        Employee storage employee = employees[_employeeId];\n        employee.accruedSalary = employee.accruedSalary.add(_amount);\n        emit AddEmployeeAccruedSalary(_employeeId, _amount);\n    }\n\n    /**\n     * @dev Set an employee's account address\n     * @param _employeeId Employee's identifier\n     * @param _accountAddress Employee's address to receive payroll\n     */\n    function _setEmployeeAddress(uint256 _employeeId, address _accountAddress) internal {\n        // Check address is non-null\n        require(_accountAddress != address(0), ERROR_EMPLOYEE_NULL_ADDRESS);\n        // Check address isn't already being used\n        require(employeeIds[_accountAddress] == uint256(0), ERROR_EMPLOYEE_ALREADY_EXIST);\n\n        employees[_employeeId].accountAddress = _accountAddress;\n\n        // Create IDs mapping\n        employeeIds[_accountAddress] = _employeeId;\n    }\n\n    /**\n     * @dev Terminate employee on end date\n     * @param _employeeId Employee's identifier\n     * @param _endDate Termination timestamp in seconds\n     */\n    function _terminateEmployee(uint256 _employeeId, uint64 _endDate) internal {\n        // Prevent past termination dates\n        require(_endDate >= getTimestamp64(), ERROR_PAST_TERMINATION_DATE);\n        employees[_employeeId].endDate = _endDate;\n        emit TerminateEmployee(_employeeId, _endDate);\n    }\n\n    /**\n     * @dev Loop over allowed tokens to send requested amount to the employee in their desired allocation\n     * @param _employeeId Employee's identifier\n     * @param _totalAmount Total amount to be transferred to the employee distributed in accordance to the employee's token allocation.\n     * @param _type Payment type being transferred (Payroll, Reimbursement or Bonus)\n     * @param _minRates Array of employee's minimum acceptable rates for their allowed payment tokens\n     * @return True if there was at least one token transfer\n     */\n    function _transferTokensAmount(uint256 _employeeId, PaymentType _type, uint256 _totalAmount, uint256[] _minRates) internal returns (bool somethingPaid) {\n        if (_totalAmount == 0) {\n            return false;\n        }\n\n        Employee storage employee = employees[_employeeId];\n        address employeeAddress = employee.accountAddress;\n        string memory paymentReference = _paymentReferenceFor(_type);\n\n        address[] storage allocationTokenAddresses = employee.allocationTokenAddresses;\n        for (uint256 i = 0; i < allocationTokenAddresses.length; i++) {\n            address token = allocationTokenAddresses[i];\n            uint256 tokenAllocation = employee.allocationTokens[token];\n            if (tokenAllocation != uint256(0)) {\n                // Get the exchange rate for the payout token in denomination token,\n                // as we do accounting in denomination tokens\n                uint256 exchangeRate = _getExchangeRateInDenominationToken(token);\n                require(_minRates.length > 0 ? exchangeRate >= _minRates[i] : exchangeRate > 0, ERROR_EXCHANGE_RATE_TOO_LOW);\n\n                // Convert amount (in denomination tokens) to payout token and apply allocation\n                uint256 tokenAmount = _totalAmount.mul(exchangeRate).mul(tokenAllocation);\n                // Divide by 100 for the allocation percentage and by the exchange rate precision\n                tokenAmount = tokenAmount.div(100).div(feed.ratePrecision());\n\n                // Finance reverts if the payment wasn't possible\n                finance.newImmediatePayment(token, employeeAddress, tokenAmount, paymentReference);\n                emit SendPayment(_employeeId, employeeAddress, token, tokenAmount, exchangeRate, paymentReference);\n                somethingPaid = true;\n            }\n        }\n    }\n\n    /**\n     * @dev Remove employee if there are no owed funds and employee's end date has been reached\n     * @param _employeeId Employee's identifier\n     */\n    function _removeEmployeeIfTerminatedAndPaidOut(uint256 _employeeId) internal {\n        Employee storage employee = employees[_employeeId];\n\n        if (\n            employee.lastPayroll == employee.endDate &&\n            (employee.accruedSalary == 0 && employee.bonus == 0 && employee.reimbursements == 0)\n        ) {\n            delete employeeIds[employee.accountAddress];\n            delete employees[_employeeId];\n        }\n    }\n\n    /**\n     * @dev Updates the accrued salary and payroll date of an employee based on a payment amount and\n     *      their currently owed salary since last payroll date\n     * @param _employee Employee struct in storage\n     * @param _paymentAmount Amount being paid to the employee\n     */\n    function _updateEmployeeAccountingBasedOnPaidSalary(Employee storage _employee, uint256 _paymentAmount) internal {\n        uint256 accruedSalary = _employee.accruedSalary;\n\n        if (_paymentAmount <= accruedSalary) {\n            // Employee is only cashing out some previously owed salary so we don't need to update\n            // their last payroll date\n            // No need to use SafeMath as we already know _paymentAmount <= accruedSalary\n            _employee.accruedSalary = accruedSalary - _paymentAmount;\n            return;\n        }\n\n        // Employee is cashing out some of their currently owed salary so their last payroll date\n        // needs to be modified based on the amount of salary paid\n        uint256 currentSalaryPaid = _paymentAmount;\n        if (accruedSalary > 0) {\n            // Employee is cashing out a mixed amount between previous and current owed salaries;\n            // first use up their accrued salary\n            // No need to use SafeMath here as we already know _paymentAmount > accruedSalary\n            currentSalaryPaid = _paymentAmount - accruedSalary;\n            // We finally need to clear their accrued salary\n            _employee.accruedSalary = 0;\n        }\n\n        uint256 salary = _employee.denominationTokenSalary;\n        uint256 timeDiff = currentSalaryPaid.div(salary);\n\n        // If they're being paid an amount that doesn't match perfectly with the adjusted time\n        // (up to a seconds' worth of salary), add the second and put the extra remaining salary\n        // into their accrued salary\n        uint256 extraSalary = currentSalaryPaid % salary;\n        if (extraSalary > 0) {\n            timeDiff = timeDiff.add(1);\n            _employee.accruedSalary = salary - extraSalary;\n        }\n\n        uint256 lastPayrollDate = uint256(_employee.lastPayroll).add(timeDiff);\n        // Even though this function should never receive a currentSalaryPaid value that would\n        // result in the lastPayrollDate being higher than the current time,\n        // let's double check to be safe\n        require(lastPayrollDate <= uint256(getTimestamp64()), ERROR_LAST_PAYROLL_DATE_TOO_BIG);\n        // Already know lastPayrollDate must fit in uint64 from above\n        _employee.lastPayroll = uint64(lastPayrollDate);\n    }\n\n    /**\n     * @dev Tell whether an employee is registered in this Payroll or not\n     * @param _employeeId Employee's identifier\n     * @return True if the given employee ID belongs to an registered employee, false otherwise\n     */\n    function _employeeExists(uint256 _employeeId) internal view returns (bool) {\n        return employees[_employeeId].accountAddress != address(0);\n    }\n\n    /**\n     * @dev Tell whether an employee has a valid token allocation or not.\n     *      A valid allocation is one that sums to 100 and only includes allowed tokens.\n     * @param _employee Employee struct in storage\n     * @return Reverts if employee's allocation is invalid\n     */\n    function _ensureEmployeeTokenAllocationsIsValid(Employee storage _employee) internal view {\n        uint256 sum = 0;\n        address[] memory allocationTokenAddresses = _employee.allocationTokenAddresses;\n        for (uint256 i = 0; i < allocationTokenAddresses.length; i++) {\n            address token = allocationTokenAddresses[i];\n            require(allowedTokens[token], ERROR_NOT_ALLOWED_TOKEN);\n            sum = sum.add(_employee.allocationTokens[token]);\n        }\n        require(sum == 100, ERROR_DISTRIBUTION_NOT_FULL);\n    }\n\n    /**\n     * @dev Tell whether an employee is still active or not\n     * @param _employee Employee struct in storage\n     * @return True if the employee exists and has an end date that has not been reached yet, false otherwise\n     */\n    function _isEmployeeActive(Employee storage _employee) internal view returns (bool) {\n        return _employee.endDate >= getTimestamp64();\n    }\n\n    /**\n     * @dev Tell whether an employee id is still active or not\n     * @param _employeeId Employee's identifier\n     * @return True if the employee exists and has an end date that has not been reached yet, false otherwise\n     */\n    function _isEmployeeIdActive(uint256 _employeeId) internal view returns (bool) {\n        return _isEmployeeActive(employees[_employeeId]);\n    }\n\n    /**\n     * @dev Get exchange rate for a token based on the denomination token.\n     *      As an example, if the denomination token was USD and ETH's price was 100USD,\n     *      this would return 0.01 * precision rate for ETH.\n     * @param _token Token to get price of in denomination tokens\n     * @return Exchange rate (multiplied by the PPF rate precision)\n     */\n    function _getExchangeRateInDenominationToken(address _token) internal view returns (uint256) {\n        // xrt is the number of `_token` that can be exchanged for one `denominationToken`\n        (uint128 xrt, uint64 when) = feed.get(\n            denominationToken,  // Base (e.g. USD)\n            _token              // Quote (e.g. ETH)\n        );\n\n        // Check the price feed is recent enough\n        if (getTimestamp64().sub(when) >= rateExpiryTime) {\n            return 0;\n        }\n\n        return uint256(xrt);\n    }\n\n    /**\n     * @dev Get owed salary since last payroll for an employee\n     * @param _employee Employee struct in storage\n     * @param _capped Safely cap the owed salary at max uint\n     * @return Owed salary in denomination tokens since last payroll for the employee.\n     *         If _capped is false, it reverts in case of an overflow.\n     */\n    function _getOwedSalarySinceLastPayroll(Employee storage _employee, bool _capped) internal view returns (uint256) {\n        uint256 timeDiff = _getOwedPayrollPeriod(_employee);\n        if (timeDiff == 0) {\n            return 0;\n        }\n        uint256 salary = _employee.denominationTokenSalary;\n\n        if (_capped) {\n            // Return max uint if the result overflows\n            uint256 result = salary * timeDiff;\n            return (result / timeDiff != salary) ? MAX_UINT256 : result;\n        } else {\n            return salary.mul(timeDiff);\n        }\n    }\n\n    /**\n     * @dev Get owed payroll period for an employee\n     * @param _employee Employee struct in storage\n     * @return Owed time in seconds since the employee's last payroll date\n     */\n    function _getOwedPayrollPeriod(Employee storage _employee) internal view returns (uint256) {\n        // Get the min of current date and termination date\n        uint64 date = _isEmployeeActive(_employee) ? getTimestamp64() : _employee.endDate;\n\n        // Make sure we don't revert if we try to get the owed salary for an employee whose last\n        // payroll date is now or in the future\n        // This can happen either by adding new employees with start dates in the future, to allow\n        // us to change their salary before their start date, or by terminating an employee and\n        // paying out their full owed salary\n        if (date <= _employee.lastPayroll) {\n            return 0;\n        }\n\n        // Return time diff in seconds, no need to use SafeMath as the underflow was covered by the previous check\n        return uint256(date - _employee.lastPayroll);\n    }\n\n    /**\n     * @dev Get owed salary since last payroll for an employee. It will take into account the accrued salary as well.\n     *      The result will be capped to max uint256 to avoid having an overflow.\n     * @param _employee Employee struct in storage\n     * @return Employee's total owed salary: current owed payroll since the last payroll date, plus the accrued salary.\n     */\n    function _getTotalOwedCappedSalary(Employee storage _employee) internal view returns (uint256) {\n        uint256 currentOwedSalary = _getOwedSalarySinceLastPayroll(_employee, true); // cap amount\n        uint256 totalOwedSalary = currentOwedSalary + _employee.accruedSalary;\n        if (totalOwedSalary < currentOwedSalary) {\n            totalOwedSalary = MAX_UINT256;\n        }\n        return totalOwedSalary;\n    }\n\n    /**\n     * @dev Get payment reference for a given payment type\n     * @param _type Payment type to query the reference of\n     * @return Payment reference for the given payment type\n     */\n    function _paymentReferenceFor(PaymentType _type) internal pure returns (string memory) {\n        if (_type == PaymentType.Payroll) {\n            return \"Employee salary\";\n        } else if (_type == PaymentType.Reimbursement) {\n            return \"Employee reimbursement\";\n        } if (_type == PaymentType.Bonus) {\n            return \"Employee bonus\";\n        }\n        revert(ERROR_INVALID_PAYMENT_TYPE);\n    }\n\n    function _ensurePaymentAmount(uint256 _owedAmount, uint256 _requestedAmount) private pure returns (uint256) {\n        require(_owedAmount > 0, ERROR_NOTHING_PAID);\n        require(_owedAmount >= _requestedAmount, ERROR_INVALID_REQUESTED_AMOUNT);\n        return _requestedAmount > 0 ? _requestedAmount : _owedAmount;\n    }\n}\n",
  "sourcePath": "@aragon/apps-payroll/contracts/Payroll.sol",
  "compiler": {
    "name": "solc",
    "version": "0.4.24+commit.e67f0147.Emscripten.clang"
  },
  "schemaVersion": "2.0.1",
  "updatedAt": "2019-09-05T16:42:58.912Z"
}